{
  "contractName": "DateTime",
  "abi": [
    {
      "constant": true,
      "inputs": [
        {
          "name": "year",
          "type": "uint16"
        }
      ],
      "name": "isLeapYear",
      "outputs": [
        {
          "name": "",
          "type": "bool"
        }
      ],
      "payable": false,
      "stateMutability": "pure",
      "type": "function"
    },
    {
      "constant": true,
      "inputs": [
        {
          "name": "year",
          "type": "uint256"
        }
      ],
      "name": "leapYearsBefore",
      "outputs": [
        {
          "name": "",
          "type": "uint256"
        }
      ],
      "payable": false,
      "stateMutability": "pure",
      "type": "function"
    },
    {
      "constant": true,
      "inputs": [
        {
          "name": "month",
          "type": "uint8"
        },
        {
          "name": "year",
          "type": "uint16"
        }
      ],
      "name": "getDaysInMonth",
      "outputs": [
        {
          "name": "",
          "type": "uint8"
        }
      ],
      "payable": false,
      "stateMutability": "pure",
      "type": "function"
    },
    {
      "constant": true,
      "inputs": [
        {
          "name": "timestamp",
          "type": "uint256"
        }
      ],
      "name": "getYear",
      "outputs": [
        {
          "name": "",
          "type": "uint16"
        }
      ],
      "payable": false,
      "stateMutability": "pure",
      "type": "function"
    },
    {
      "constant": true,
      "inputs": [
        {
          "name": "timestamp",
          "type": "uint256"
        }
      ],
      "name": "getMonth",
      "outputs": [
        {
          "name": "",
          "type": "uint8"
        }
      ],
      "payable": false,
      "stateMutability": "pure",
      "type": "function"
    },
    {
      "constant": true,
      "inputs": [
        {
          "name": "timestamp",
          "type": "uint256"
        }
      ],
      "name": "getDay",
      "outputs": [
        {
          "name": "",
          "type": "uint8"
        }
      ],
      "payable": false,
      "stateMutability": "pure",
      "type": "function"
    },
    {
      "constant": true,
      "inputs": [
        {
          "name": "timestamp",
          "type": "uint256"
        }
      ],
      "name": "getHour",
      "outputs": [
        {
          "name": "",
          "type": "uint8"
        }
      ],
      "payable": false,
      "stateMutability": "pure",
      "type": "function"
    },
    {
      "constant": true,
      "inputs": [
        {
          "name": "timestamp",
          "type": "uint256"
        }
      ],
      "name": "getMinute",
      "outputs": [
        {
          "name": "",
          "type": "uint8"
        }
      ],
      "payable": false,
      "stateMutability": "pure",
      "type": "function"
    },
    {
      "constant": true,
      "inputs": [
        {
          "name": "timestamp",
          "type": "uint256"
        }
      ],
      "name": "getSecond",
      "outputs": [
        {
          "name": "",
          "type": "uint8"
        }
      ],
      "payable": false,
      "stateMutability": "pure",
      "type": "function"
    },
    {
      "constant": true,
      "inputs": [
        {
          "name": "timestamp",
          "type": "uint256"
        }
      ],
      "name": "getWeekday",
      "outputs": [
        {
          "name": "",
          "type": "uint8"
        }
      ],
      "payable": false,
      "stateMutability": "pure",
      "type": "function"
    },
    {
      "constant": true,
      "inputs": [
        {
          "name": "year",
          "type": "uint16"
        },
        {
          "name": "month",
          "type": "uint8"
        },
        {
          "name": "day",
          "type": "uint8"
        },
        {
          "name": "hour",
          "type": "uint8"
        },
        {
          "name": "minute",
          "type": "uint8"
        }
      ],
      "name": "toTimestamp",
      "outputs": [
        {
          "name": "timestamp",
          "type": "uint256"
        }
      ],
      "payable": false,
      "stateMutability": "pure",
      "type": "function"
    },
    {
      "constant": true,
      "inputs": [
        {
          "name": "year",
          "type": "uint16"
        },
        {
          "name": "month",
          "type": "uint8"
        },
        {
          "name": "day",
          "type": "uint8"
        },
        {
          "name": "hour",
          "type": "uint8"
        }
      ],
      "name": "toTimestamp",
      "outputs": [
        {
          "name": "timestamp",
          "type": "uint256"
        }
      ],
      "payable": false,
      "stateMutability": "pure",
      "type": "function"
    },
    {
      "constant": true,
      "inputs": [
        {
          "name": "year",
          "type": "uint16"
        },
        {
          "name": "month",
          "type": "uint8"
        },
        {
          "name": "day",
          "type": "uint8"
        }
      ],
      "name": "toTimestamp",
      "outputs": [
        {
          "name": "timestamp",
          "type": "uint256"
        }
      ],
      "payable": false,
      "stateMutability": "pure",
      "type": "function"
    },
    {
      "constant": true,
      "inputs": [
        {
          "name": "year",
          "type": "uint16"
        },
        {
          "name": "month",
          "type": "uint8"
        },
        {
          "name": "day",
          "type": "uint8"
        },
        {
          "name": "hour",
          "type": "uint8"
        },
        {
          "name": "minute",
          "type": "uint8"
        },
        {
          "name": "second",
          "type": "uint8"
        }
      ],
      "name": "toTimestamp",
      "outputs": [
        {
          "name": "timestamp",
          "type": "uint256"
        }
      ],
      "payable": false,
      "stateMutability": "pure",
      "type": "function"
    }
  ],
  "bytecode": "0x610de9610030600b82828239805160001a6073146000811461002057610022565bfe5b5030600052607381538281f3fe7300000000000000000000000000000000000000003014608060405260043610610111576000357c0100000000000000000000000000000000000000000000000000000000900480639054bdec116100b3578063a6f0e5771161008d578063a6f0e57714610496578063b1999937146104e0578063b238ad0e14610522578063fa93f8831461057b57610111565b80639054bdec1461037d57806392d6631314610404578063a324ad241461044e57610111565b806365c72840116100ef57806365c72840146102205780637f791833146102685780638aa001fc146102d55780638c8d98a01461031d57610111565b80633e239e1a146101165780634ac1ad781461015e57806362ba9687146101a6575b600080fd5b6101426004803603602081101561012c57600080fd5b81019080803590602001909291905050506105c3565b604051808260ff1660ff16815260200191505060405180910390f35b61018a6004803603602081101561017457600080fd5b81019080803590602001909291905050506105f0565b604051808260ff1660ff16815260200191505060405180910390f35b61020a600480360360a08110156101bc57600080fd5b81019080803561ffff169060200190929190803560ff169060200190929190803560ff169060200190929190803560ff169060200190929190803560ff169060200190929190505050610617565b6040518082815260200191505060405180910390f35b61024c6004803603602081101561023657600080fd5b8101908080359060200190929190505050610633565b604051808260ff1660ff16815260200191505060405180910390f35b6102bf6004803603608081101561027e57600080fd5b81019080803561ffff169060200190929190803560ff169060200190929190803560ff169060200190929190803560ff169060200190929190505050610649565b6040518082815260200191505060405180910390f35b610301600480360360208110156102eb57600080fd5b8101908080359060200190929190505050610664565b604051808260ff1660ff16815260200191505060405180910390f35b6103676004803603606081101561033357600080fd5b81019080803561ffff169060200190929190803560ff169060200190929190803560ff16906020019092919050505061067a565b6040518082815260200191505060405180910390f35b6103ee600480360360c081101561039357600080fd5b81019080803561ffff169060200190929190803560ff169060200190929190803560ff169060200190929190803560ff169060200190929190803560ff169060200190929190803560ff169060200190929190505050610695565b6040518082815260200191505060405180910390f35b6104306004803603602081101561041a57600080fd5b810190808035906020019092919050505061093c565b604051808261ffff1661ffff16815260200191505060405180910390f35b61047a6004803603602081101561046457600080fd5b81019080803590602001909291905050506109e7565b604051808260ff1660ff16815260200191505060405180910390f35b6104c6600480360360208110156104ac57600080fd5b81019080803561ffff1690602001909291905050506109fd565b604051808215151515815260200191505060405180910390f35b61050c600480360360208110156104f657600080fd5b8101908080359060200190929190505050610a7e565b6040518082815260200191505060405180910390f35b61055f6004803603604081101561053857600080fd5b81019080803560ff169060200190929190803561ffff169060200190929190505050610ab7565b604051808260ff1660ff16815260200191505060405180910390f35b6105a76004803603602081101561059157600080fd5b8101908080359060200190929190505050610b83565b604051808260ff1660ff16815260200191505060405180910390f35b60006018603c80848115156105d457fe5b048115156105de57fe5b048115156105e857fe5b069050919050565b600060076004620151808481151561060457fe5b040181151561060f57fe5b069050919050565b600061062886868686866000610695565b905095945050505050565b600061063e82610ba4565b604001519050919050565b600061065a85858585600080610695565b9050949350505050565b6000603c8281151561067257fe5b069050919050565b600061068c8484846000806000610695565b90509392505050565b6000806107b290505b8761ffff168161ffff1610156106e1576106b7816109fd565b156106ca576301e28500820191506106d4565b6301e13380820191505b808060010191505061069e565b6106e9610d45565b601f816000600c811015156106fa57fe5b602002019060ff16908160ff1681525050610714896109fd565b1561074057601d816001600c8110151561072a57fe5b602002019060ff16908160ff1681525050610763565b601c816001600c8110151561075157fe5b602002019060ff16908160ff16815250505b601f816002600c8110151561077457fe5b602002019060ff16908160ff1681525050601e816003600c8110151561079657fe5b602002019060ff16908160ff1681525050601f816004600c811015156107b857fe5b602002019060ff16908160ff1681525050601e816005600c811015156107da57fe5b602002019060ff16908160ff1681525050601f816006600c811015156107fc57fe5b602002019060ff16908160ff1681525050601f816007600c8110151561081e57fe5b602002019060ff16908160ff1681525050601e816008600c8110151561084057fe5b602002019060ff16908160ff1681525050601f816009600c8110151561086257fe5b602002019060ff16908160ff1681525050601e81600a600c8110151561088457fe5b602002019060ff16908160ff1681525050601f81600b600c811015156108a657fe5b602002019060ff16908160ff1681525050600191505b8760ff168261ffff1610156108fe57806001830361ffff16600c811015156108e057fe5b602002015160ff1662015180028301925081806001019250506108bc565b6001870360ff166201518002830192508560ff16610e1002830192508460ff16603c02830192508360ff168301925082925050509695505050505050565b600080600090506000806301e133808581151561095557fe5b046107b261ffff1601915061096f6107b261ffff16610a7e565b61097c8361ffff16610a7e565b039050806301e285000283019250806107b2830361ffff16036301e1338002830192505b848311156109dc576109b4600183036109fd565b156109c7576301e28500830392506109d1565b6301e13380830392505b6001820391506109a0565b819350505050919050565b60006109f282610ba4565b602001519050919050565b60008060048361ffff16811515610a1057fe5b0661ffff16141515610a255760009050610a79565b600060648361ffff16811515610a3757fe5b0661ffff16141515610a4c5760019050610a79565b60006101908361ffff16811515610a5f57fe5b0661ffff16141515610a745760009050610a79565b600190505b919050565b600060018203915061019082811515610a9357fe5b04606483811515610aa057fe5b04600484811515610aad57fe5b0403019050919050565b600060018360ff161480610ace575060038360ff16145b80610adc575060058360ff16145b80610aea575060078360ff16145b80610af8575060088360ff16145b80610b065750600a8360ff16145b80610b145750600c8360ff16145b15610b2257601f9050610b7d565b60048360ff161480610b37575060068360ff16145b80610b45575060098360ff16145b80610b535750600b8360ff16145b15610b6157601e9050610b7d565b610b6a826109fd565b15610b7857601d9050610b7d565b601c90505b92915050565b6000603c8083811515610b9257fe5b04811515610b9c57fe5b069050919050565b610bac610d69565b6000809050600080610bbd8561093c565b846000019061ffff16908161ffff1681525050610bdf6107b261ffff16610a7e565b610bf0856000015161ffff16610a7e565b039150816301e285000283019250816107b285600001510361ffff16036301e1338002830192506000600191505b600c8260ff16111515610c7657610c39828660000151610ab7565b60ff1662015180029050858482011115610c645781856020019060ff16908160ff1681525050610c76565b80840193508180600101925050610c1e565b600191505b610c8d85602001518660000151610ab7565b60ff168260ff16111515610cd457858462015180011115610cbf5781856040019060ff16908160ff1681525050610cd4565b62015180840193508180600101925050610c7b565b610cdd866105c3565b856060019060ff16908160ff1681525050610cf786610b83565b856080019060ff16908160ff1681525050610d1186610664565b8560a0019060ff16908160ff1681525050610d2b866105f0565b8560c0019060ff16908160ff168152505050505050919050565b61018060405190810160405280600c90602082028038833980820191505090505090565b60e060405190810160405280600061ffff168152602001600060ff168152602001600060ff168152602001600060ff168152602001600060ff168152602001600060ff168152602001600060ff168152509056fea165627a7a7230582052e96e01cd7ac5d1957bef88ac78518794465e399a33e6aa222a8d844d9105e00029",
  "source": "pragma solidity ^0.5.2;\n\n//https://github.com/pipermerriam/ethereum-datetime\n\nlibrary DateTime {\n        /*\n         *  Date and Time utilities for ethereum contracts\n         *\n         */\n    struct _DateTime {\n        uint16 year;\n        uint8 month;\n        uint8 day;\n        uint8 hour;\n        uint8 minute;\n        uint8 second;\n        uint8 weekday;\n    }\n\n    uint constant DAY_IN_SECONDS = 86400;\n    uint constant YEAR_IN_SECONDS = 31536000;\n    uint constant LEAP_YEAR_IN_SECONDS = 31622400;\n\n    uint constant HOUR_IN_SECONDS = 3600;\n    uint constant MINUTE_IN_SECONDS = 60;\n\n    uint16 constant ORIGIN_YEAR = 1970;\n\n    function isLeapYear(uint16 year) public pure returns (bool) {\n        if (year % 4 != 0) {\n            return false;\n        }\n        if (year % 100 != 0) {\n            return true;\n        }\n        if (year % 400 != 0) {\n            return false;\n        }\n        return true;\n    }\n\n    function leapYearsBefore(uint year) public pure returns (uint) {\n        year -= 1;\n        return year / 4 - year / 100 + year / 400;\n    }\n\n    function getDaysInMonth(uint8 month, uint16 year) public pure returns (uint8) {\n        if (month == 1 || month == 3 || month == 5 || month == 7 || month == 8 || month == 10 || month == 12) {\n            return 31;\n        }\n        else if (month == 4 || month == 6 || month == 9 || month == 11) {\n            return 30;\n        }\n        else if (isLeapYear(year)) {\n            return 29;\n        }\n        else {\n            return 28;\n        }\n    }\n\n    function parseTimestamp(uint timestamp) internal pure returns (_DateTime memory  dt) {\n        uint secondsAccountedFor = 0;\n        uint buf;\n        uint8 i;\n\n        // Year\n        dt.year = getYear(timestamp);\n        buf = leapYearsBefore(dt.year) - leapYearsBefore(ORIGIN_YEAR);\n\n        secondsAccountedFor += LEAP_YEAR_IN_SECONDS * buf;\n        secondsAccountedFor += YEAR_IN_SECONDS * (dt.year - ORIGIN_YEAR - buf);\n\n        // Month\n        uint secondsInMonth;\n        for (i = 1; i <= 12; i++) {\n            secondsInMonth = DAY_IN_SECONDS * getDaysInMonth(i, dt.year);\n            if (secondsInMonth + secondsAccountedFor > timestamp) {\n                dt.month = i;\n                break;\n                }\n            secondsAccountedFor += secondsInMonth;\n        }\n\n        // Day\n        for (i = 1; i <= getDaysInMonth(dt.month, dt.year); i++) {\n            if (DAY_IN_SECONDS + secondsAccountedFor > timestamp) {\n                dt.day = i;\n                break;\n            }\n            secondsAccountedFor += DAY_IN_SECONDS;\n        }\n\n        // Hour\n        dt.hour = getHour(timestamp);\n\n        // Minute\n        dt.minute = getMinute(timestamp);\n\n        // Second\n        dt.second = getSecond(timestamp);\n\n        // Day of week.\n        dt.weekday = getWeekday(timestamp);\n    }\n\n    function getYear(uint timestamp) public pure returns (uint16) {\n        uint secondsAccountedFor = 0;\n        uint16 year;\n        uint numLeapYears;\n\n        // Year\n        year = uint16(ORIGIN_YEAR + timestamp / YEAR_IN_SECONDS);\n        numLeapYears = leapYearsBefore(year) - leapYearsBefore(ORIGIN_YEAR);\n\n        secondsAccountedFor += LEAP_YEAR_IN_SECONDS * numLeapYears;\n        secondsAccountedFor += YEAR_IN_SECONDS * (year - ORIGIN_YEAR - numLeapYears);\n\n        while (secondsAccountedFor > timestamp) {\n            if (isLeapYear(uint16(year - 1))) {\n                secondsAccountedFor -= LEAP_YEAR_IN_SECONDS;\n            }\n            else {\n                secondsAccountedFor -= YEAR_IN_SECONDS;\n            }\n            year -= 1;\n        }\n        return year;\n    }\n\n    function getMonth(uint timestamp) public pure returns (uint8) {\n        return parseTimestamp(timestamp).month;\n    }\n\n    function getDay(uint timestamp) public pure returns (uint8) {\n        return parseTimestamp(timestamp).day;\n    }\n\n    function getHour(uint timestamp) public pure returns (uint8) {\n        return uint8((timestamp / 60 / 60) % 24);\n    }\n\n    function getMinute(uint timestamp) public pure returns (uint8) {\n        return uint8((timestamp / 60) % 60);\n    }\n\n    function getSecond(uint timestamp) public pure returns (uint8) {\n        return uint8(timestamp % 60);\n    }\n\n    function getWeekday(uint timestamp) public pure returns (uint8) {\n        return uint8((timestamp / DAY_IN_SECONDS + 4) % 7);\n    }\n\n    function toTimestamp(uint16 year, uint8 month, uint8 day) public pure returns (uint timestamp) {\n        return toTimestamp(year, month, day, 0, 0, 0);\n    }\n\n    function toTimestamp(uint16 year, uint8 month, uint8 day, uint8 hour) public pure returns (uint timestamp) {\n        return toTimestamp(year, month, day, hour, 0, 0);\n    }\n\n    function toTimestamp(uint16 year, uint8 month, uint8 day, uint8 hour, uint8 minute) public pure returns (uint timestamp) {\n        return toTimestamp(year, month, day, hour, minute, 0);\n    }\n\n    function toTimestamp(uint16 year, uint8 month, uint8 day, uint8 hour, uint8 minute, uint8 second) public pure returns (uint timestamp) {\n        uint16 i;\n\n        // Year\n        for (i = ORIGIN_YEAR; i < year; i++) {\n            if (isLeapYear(i)) {\n                timestamp += LEAP_YEAR_IN_SECONDS;\n            }\n            else {\n                timestamp += YEAR_IN_SECONDS;\n            }\n        }\n\n        // Month\n        uint8[12] memory monthDayCounts;\n        monthDayCounts[0] = 31;\n        if (isLeapYear(year)) {\n            monthDayCounts[1] = 29;\n        }\n        else {\n            monthDayCounts[1] = 28;\n        }\n        monthDayCounts[2] = 31;\n        monthDayCounts[3] = 30;\n        monthDayCounts[4] = 31;\n        monthDayCounts[5] = 30;\n        monthDayCounts[6] = 31;\n        monthDayCounts[7] = 31;\n        monthDayCounts[8] = 30;\n        monthDayCounts[9] = 31;\n        monthDayCounts[10] = 30;\n        monthDayCounts[11] = 31;\n\n        for (i = 1; i < month; i++) {\n            timestamp += DAY_IN_SECONDS * monthDayCounts[i - 1];\n        }\n\n        // Day\n        timestamp += DAY_IN_SECONDS * (day - 1);\n\n        // Hour\n        timestamp += HOUR_IN_SECONDS * (hour);\n\n        // Minute\n        timestamp += MINUTE_IN_SECONDS * (minute);\n\n        // Second\n        timestamp += second;\n\n        return timestamp;\n    }\n}",
  "sourcePath": "/home/bogdan/Ethereum/Projects/TGE/Token/contracts/DateTime.sol",
  "compiler": {
    "name": "solc",
    "version": "0.5.2+commit.1df8f40c.Emscripten.clang"
  },
  "schemaVersion": "3.0.1",
  "updatedAt": "2019-02-11T21:25:49.433Z",
  "devdoc": {
    "methods": {}
  },
  "userdoc": {
    "methods": {}
  }
}