{
  "contractName": "Locked",
  "abi": [
    {
      "constant": true,
      "inputs": [
        {
          "name": "",
          "type": "address"
        }
      ],
      "name": "lockedList",
      "outputs": [
        {
          "name": "",
          "type": "bool"
        }
      ],
      "payable": false,
      "stateMutability": "view",
      "type": "function"
    },
    {
      "constant": false,
      "inputs": [],
      "name": "renounceOwnership",
      "outputs": [],
      "payable": false,
      "stateMutability": "nonpayable",
      "type": "function"
    },
    {
      "constant": true,
      "inputs": [],
      "name": "owner",
      "outputs": [
        {
          "name": "",
          "type": "address"
        }
      ],
      "payable": false,
      "stateMutability": "view",
      "type": "function"
    },
    {
      "constant": true,
      "inputs": [],
      "name": "isOwner",
      "outputs": [
        {
          "name": "",
          "type": "bool"
        }
      ],
      "payable": false,
      "stateMutability": "view",
      "type": "function"
    },
    {
      "constant": false,
      "inputs": [
        {
          "name": "newOwner",
          "type": "address"
        }
      ],
      "name": "transferOwnership",
      "outputs": [],
      "payable": false,
      "stateMutability": "nonpayable",
      "type": "function"
    },
    {
      "anonymous": false,
      "inputs": [
        {
          "indexed": false,
          "name": "user",
          "type": "address"
        }
      ],
      "name": "AddedLock",
      "type": "event"
    },
    {
      "anonymous": false,
      "inputs": [
        {
          "indexed": false,
          "name": "user",
          "type": "address"
        }
      ],
      "name": "RemovedLock",
      "type": "event"
    },
    {
      "anonymous": false,
      "inputs": [
        {
          "indexed": true,
          "name": "previousOwner",
          "type": "address"
        },
        {
          "indexed": true,
          "name": "newOwner",
          "type": "address"
        }
      ],
      "name": "OwnershipTransferred",
      "type": "event"
    },
    {
      "constant": true,
      "inputs": [
        {
          "name": "_user",
          "type": "address"
        }
      ],
      "name": "isLocked",
      "outputs": [
        {
          "name": "",
          "type": "bool"
        }
      ],
      "payable": false,
      "stateMutability": "view",
      "type": "function"
    },
    {
      "constant": false,
      "inputs": [
        {
          "name": "_user",
          "type": "address"
        }
      ],
      "name": "addLock",
      "outputs": [],
      "payable": false,
      "stateMutability": "nonpayable",
      "type": "function"
    },
    {
      "constant": false,
      "inputs": [
        {
          "name": "_user",
          "type": "address"
        }
      ],
      "name": "removeLock",
      "outputs": [],
      "payable": false,
      "stateMutability": "nonpayable",
      "type": "function"
    }
  ],
  "bytecode": "0x6080604052336000806101000a81548173ffffffffffffffffffffffffffffffffffffffff021916908373ffffffffffffffffffffffffffffffffffffffff1602179055506000809054906101000a900473ffffffffffffffffffffffffffffffffffffffff1673ffffffffffffffffffffffffffffffffffffffff16600073ffffffffffffffffffffffffffffffffffffffff167f8be0079c531659141344cd1fd0a4f28419497f9722a3daafe3b4186f6b6457e060405160405180910390a361076a806100cf6000396000f3fe608060405234801561001057600080fd5b50600436106100a5576000357c010000000000000000000000000000000000000000000000000000000090048063882f327b11610078578063882f327b146101b05780638da5cb5b146101f45780638f32d59b1461023e578063f2fde38b14610260576100a5565b80631a921b3e146100aa5780634a387bef146101065780634a4fbeec1461014a578063715018a6146101a6575b600080fd5b6100ec600480360360208110156100c057600080fd5b81019080803573ffffffffffffffffffffffffffffffffffffffff1690602001909291905050506102a4565b604051808215151515815260200191505060405180910390f35b6101486004803603602081101561011c57600080fd5b81019080803573ffffffffffffffffffffffffffffffffffffffff1690602001909291905050506102c4565b005b61018c6004803603602081101561016057600080fd5b81019080803573ffffffffffffffffffffffffffffffffffffffff1690602001909291905050506102e3565b604051808215151515815260200191505060405180910390f35b6101ae610339565b005b6101f2600480360360208110156101c657600080fd5b81019080803573ffffffffffffffffffffffffffffffffffffffff16906020019092919050505061040b565b005b6101fc61042a565b604051808273ffffffffffffffffffffffffffffffffffffffff1673ffffffffffffffffffffffffffffffffffffffff16815260200191505060405180910390f35b610246610453565b604051808215151515815260200191505060405180910390f35b6102a26004803603602081101561027657600080fd5b81019080803573ffffffffffffffffffffffffffffffffffffffff1690602001909291905050506104aa565b005b60016020528060005260406000206000915054906101000a900460ff1681565b6102cc610453565b15156102d757600080fd5b6102e0816104c9565b50565b6000600160008373ffffffffffffffffffffffffffffffffffffffff1673ffffffffffffffffffffffffffffffffffffffff16815260200190815260200160002060009054906101000a900460ff169050919050565b610341610453565b151561034c57600080fd5b600073ffffffffffffffffffffffffffffffffffffffff166000809054906101000a900473ffffffffffffffffffffffffffffffffffffffff1673ffffffffffffffffffffffffffffffffffffffff167f8be0079c531659141344cd1fd0a4f28419497f9722a3daafe3b4186f6b6457e060405160405180910390a360008060006101000a81548173ffffffffffffffffffffffffffffffffffffffff021916908373ffffffffffffffffffffffffffffffffffffffff160217905550565b610413610453565b151561041e57600080fd5b61042781610587565b50565b60008060009054906101000a900473ffffffffffffffffffffffffffffffffffffffff16905090565b60008060009054906101000a900473ffffffffffffffffffffffffffffffffffffffff1673ffffffffffffffffffffffffffffffffffffffff163373ffffffffffffffffffffffffffffffffffffffff1614905090565b6104b2610453565b15156104bd57600080fd5b6104c681610644565b50565b6000600160008373ffffffffffffffffffffffffffffffffffffffff1673ffffffffffffffffffffffffffffffffffffffff16815260200190815260200160002060006101000a81548160ff0219169083151502179055507f6134e30ca79f58d7566528b3768c7d33c9c30815c63cfeae3b69f52cf31dd61a81604051808273ffffffffffffffffffffffffffffffffffffffff1673ffffffffffffffffffffffffffffffffffffffff16815260200191505060405180910390a150565b60018060008373ffffffffffffffffffffffffffffffffffffffff1673ffffffffffffffffffffffffffffffffffffffff16815260200190815260200160002060006101000a81548160ff0219169083151502179055507f1b6f28dfffb89ba40ba9067329c3c0e8bd926256b970cf7d060cd48b1cd0e44e81604051808273ffffffffffffffffffffffffffffffffffffffff1673ffffffffffffffffffffffffffffffffffffffff16815260200191505060405180910390a150565b600073ffffffffffffffffffffffffffffffffffffffff168173ffffffffffffffffffffffffffffffffffffffff161415151561068057600080fd5b8073ffffffffffffffffffffffffffffffffffffffff166000809054906101000a900473ffffffffffffffffffffffffffffffffffffffff1673ffffffffffffffffffffffffffffffffffffffff167f8be0079c531659141344cd1fd0a4f28419497f9722a3daafe3b4186f6b6457e060405160405180910390a3806000806101000a81548173ffffffffffffffffffffffffffffffffffffffff021916908373ffffffffffffffffffffffffffffffffffffffff1602179055505056fea165627a7a72305820c828552d3c0e2deee543ba009310327347a7ad9af73515b8efe950c7af3672a40029",
  "source": "pragma solidity ^0.5.2;\n\n\nimport \"../../../openzeppelin-solidity/contracts/ownership/Ownable.sol\";\n\n/// @title Locked\n/// @dev Smart contract to enable locking and unlocking of token holders. \ncontract Locked is Ownable {\n\n    mapping (address => bool) public lockedList;\n\n    event AddedLock(address user);\n    event RemovedLock(address user);\n\n\n    /// @dev terminate transaction if any of the participants is locked\n    /// @param _from - user initiating process\n    /// @param _to  - user involved in process\n    modifier isNotLocked(address _from, address _to) {\n\n        if (_from != owner()) {  // allow contract owner on sending tokens even if recipient is locked\n            require(!lockedList[_from], \"User is locked\");\n            require(!lockedList[_to], \"User is locked\");\n        }\n        _;\n    }\n\n    /// @dev check if user has been locked\n    /// @param _user - usr to check\n    /// @return true or false\n    function isLocked(address _user) public view returns (bool) {\n        return lockedList[_user];\n    }\n    \n    /// @dev add user to lock\n    /// @param _user to lock\n    function addLock (address _user) public onlyOwner {\n        _addLock(_user);\n    }\n\n    /// @dev unlock user\n    /// @param _user - user to unlock\n    function removeLock (address _user) public onlyOwner {\n        _removeLock(_user);\n    }\n\n\n    /// @dev add user to lock for internal needs\n    /// @param _user to lock\n    function _addLock(address _user) internal {\n        lockedList[_user] = true;\n        emit AddedLock(_user);\n    }\n\n    /// @dev unlock user for internal needs\n    /// @param _user - user to unlock\n    function _removeLock (address _user) internal {\n        lockedList[_user] = false;\n        emit RemovedLock(_user);\n    }\n\n}",
  "sourcePath": "/home/bogdan/Ethereum/Projects/TGE/Token/contracts/Locked.sol",
  "compiler": {
    "name": "solc",
    "version": "0.5.2+commit.1df8f40c.Emscripten.clang"
  },
  "schemaVersion": "3.0.2",
  "updatedAt": "2019-03-06T19:00:24.119Z",
  "devdoc": {
    "details": "Smart contract to enable locking and unlocking of token holders. ",
    "methods": {
      "addLock(address)": {
        "details": "add user to lock",
        "params": {
          "_user": "to lock"
        }
      },
      "isLocked(address)": {
        "details": "check if user has been locked",
        "params": {
          "_user": "- usr to check"
        },
        "return": "true or false"
      },
      "isOwner()": {
        "return": "true if `msg.sender` is the owner of the contract."
      },
      "owner()": {
        "return": "the address of the owner."
      },
      "removeLock(address)": {
        "details": "unlock user",
        "params": {
          "_user": "- user to unlock"
        }
      },
      "renounceOwnership()": {
        "details": "Allows the current owner to relinquish control of the contract."
      },
      "transferOwnership(address)": {
        "details": "Allows the current owner to transfer control of the contract to a newOwner.",
        "params": {
          "newOwner": "The address to transfer ownership to."
        }
      }
    },
    "title": "Locked"
  },
  "userdoc": {
    "methods": {
      "renounceOwnership()": {
        "notice": "Renouncing to ownership will leave the contract without an owner. It will not be possible to call the functions with the `onlyOwner` modifier anymore."
      }
    }
  }
}