{
  "contractName": "Token",
  "abi": [
    {
      "constant": true,
      "inputs": [],
      "name": "name",
      "outputs": [
        {
          "name": "",
          "type": "string"
        }
      ],
      "payable": false,
      "stateMutability": "view",
      "type": "function"
    },
    {
      "constant": true,
      "inputs": [],
      "name": "mintAgent",
      "outputs": [
        {
          "name": "",
          "type": "address"
        }
      ],
      "payable": false,
      "stateMutability": "view",
      "type": "function"
    },
    {
      "constant": true,
      "inputs": [],
      "name": "totalSupply",
      "outputs": [
        {
          "name": "",
          "type": "uint256"
        }
      ],
      "payable": false,
      "stateMutability": "view",
      "type": "function"
    },
    {
      "constant": true,
      "inputs": [
        {
          "name": "",
          "type": "address"
        }
      ],
      "name": "lockedList",
      "outputs": [
        {
          "name": "",
          "type": "bool"
        }
      ],
      "payable": false,
      "stateMutability": "view",
      "type": "function"
    },
    {
      "constant": true,
      "inputs": [],
      "name": "DECIMALS",
      "outputs": [
        {
          "name": "",
          "type": "uint8"
        }
      ],
      "payable": false,
      "stateMutability": "view",
      "type": "function"
    },
    {
      "constant": true,
      "inputs": [],
      "name": "INITIAL_SUPPLY",
      "outputs": [
        {
          "name": "",
          "type": "uint256"
        }
      ],
      "payable": false,
      "stateMutability": "view",
      "type": "function"
    },
    {
      "constant": true,
      "inputs": [],
      "name": "decimals",
      "outputs": [
        {
          "name": "",
          "type": "uint8"
        }
      ],
      "payable": false,
      "stateMutability": "view",
      "type": "function"
    },
    {
      "constant": true,
      "inputs": [
        {
          "name": "timestamp",
          "type": "uint256"
        }
      ],
      "name": "getHour",
      "outputs": [
        {
          "name": "",
          "type": "uint8"
        }
      ],
      "payable": false,
      "stateMutability": "pure",
      "type": "function"
    },
    {
      "constant": false,
      "inputs": [],
      "name": "unpause",
      "outputs": [],
      "payable": false,
      "stateMutability": "nonpayable",
      "type": "function"
    },
    {
      "constant": false,
      "inputs": [
        {
          "name": "value",
          "type": "uint256"
        }
      ],
      "name": "burn",
      "outputs": [],
      "payable": false,
      "stateMutability": "nonpayable",
      "type": "function"
    },
    {
      "constant": true,
      "inputs": [
        {
          "name": "account",
          "type": "address"
        }
      ],
      "name": "isPauser",
      "outputs": [
        {
          "name": "",
          "type": "bool"
        }
      ],
      "payable": false,
      "stateMutability": "view",
      "type": "function"
    },
    {
      "constant": false,
      "inputs": [
        {
          "name": "_user",
          "type": "address"
        }
      ],
      "name": "removeLock",
      "outputs": [],
      "payable": false,
      "stateMutability": "nonpayable",
      "type": "function"
    },
    {
      "constant": true,
      "inputs": [
        {
          "name": "_user",
          "type": "address"
        }
      ],
      "name": "isLocked",
      "outputs": [
        {
          "name": "",
          "type": "bool"
        }
      ],
      "payable": false,
      "stateMutability": "view",
      "type": "function"
    },
    {
      "constant": true,
      "inputs": [
        {
          "name": "timestamp",
          "type": "uint256"
        }
      ],
      "name": "getWeekday",
      "outputs": [
        {
          "name": "",
          "type": "uint8"
        }
      ],
      "payable": false,
      "stateMutability": "pure",
      "type": "function"
    },
    {
      "constant": true,
      "inputs": [],
      "name": "paused",
      "outputs": [
        {
          "name": "",
          "type": "bool"
        }
      ],
      "payable": false,
      "stateMutability": "view",
      "type": "function"
    },
    {
      "constant": true,
      "inputs": [
        {
          "name": "year",
          "type": "uint16"
        },
        {
          "name": "month",
          "type": "uint8"
        },
        {
          "name": "day",
          "type": "uint8"
        },
        {
          "name": "hour",
          "type": "uint8"
        },
        {
          "name": "minute",
          "type": "uint8"
        }
      ],
      "name": "toTimestamp",
      "outputs": [
        {
          "name": "timestamp",
          "type": "uint256"
        }
      ],
      "payable": false,
      "stateMutability": "pure",
      "type": "function"
    },
    {
      "constant": true,
      "inputs": [
        {
          "name": "timestamp",
          "type": "uint256"
        }
      ],
      "name": "getDay",
      "outputs": [
        {
          "name": "",
          "type": "uint8"
        }
      ],
      "payable": false,
      "stateMutability": "pure",
      "type": "function"
    },
    {
      "constant": false,
      "inputs": [],
      "name": "renouncePauser",
      "outputs": [],
      "payable": false,
      "stateMutability": "nonpayable",
      "type": "function"
    },
    {
      "constant": true,
      "inputs": [
        {
          "name": "owner",
          "type": "address"
        }
      ],
      "name": "balanceOf",
      "outputs": [
        {
          "name": "",
          "type": "uint256"
        }
      ],
      "payable": false,
      "stateMutability": "view",
      "type": "function"
    },
    {
      "constant": false,
      "inputs": [],
      "name": "renounceOwnership",
      "outputs": [],
      "payable": false,
      "stateMutability": "nonpayable",
      "type": "function"
    },
    {
      "constant": false,
      "inputs": [
        {
          "name": "from",
          "type": "address"
        },
        {
          "name": "value",
          "type": "uint256"
        }
      ],
      "name": "burnFrom",
      "outputs": [],
      "payable": false,
      "stateMutability": "nonpayable",
      "type": "function"
    },
    {
      "constant": true,
      "inputs": [
        {
          "name": "year",
          "type": "uint16"
        },
        {
          "name": "month",
          "type": "uint8"
        },
        {
          "name": "day",
          "type": "uint8"
        },
        {
          "name": "hour",
          "type": "uint8"
        }
      ],
      "name": "toTimestamp",
      "outputs": [
        {
          "name": "timestamp",
          "type": "uint256"
        }
      ],
      "payable": false,
      "stateMutability": "pure",
      "type": "function"
    },
    {
      "constant": false,
      "inputs": [
        {
          "name": "account",
          "type": "address"
        }
      ],
      "name": "addPauser",
      "outputs": [],
      "payable": false,
      "stateMutability": "nonpayable",
      "type": "function"
    },
    {
      "constant": true,
      "inputs": [],
      "name": "migrationAgent",
      "outputs": [
        {
          "name": "",
          "type": "address"
        }
      ],
      "payable": false,
      "stateMutability": "view",
      "type": "function"
    },
    {
      "constant": false,
      "inputs": [],
      "name": "pause",
      "outputs": [],
      "payable": false,
      "stateMutability": "nonpayable",
      "type": "function"
    },
    {
      "constant": false,
      "inputs": [
        {
          "name": "_user",
          "type": "address"
        }
      ],
      "name": "addLock",
      "outputs": [],
      "payable": false,
      "stateMutability": "nonpayable",
      "type": "function"
    },
    {
      "constant": true,
      "inputs": [
        {
          "name": "timestamp",
          "type": "uint256"
        }
      ],
      "name": "getSecond",
      "outputs": [
        {
          "name": "",
          "type": "uint8"
        }
      ],
      "payable": false,
      "stateMutability": "pure",
      "type": "function"
    },
    {
      "constant": true,
      "inputs": [
        {
          "name": "year",
          "type": "uint16"
        },
        {
          "name": "month",
          "type": "uint8"
        },
        {
          "name": "day",
          "type": "uint8"
        }
      ],
      "name": "toTimestamp",
      "outputs": [
        {
          "name": "timestamp",
          "type": "uint256"
        }
      ],
      "payable": false,
      "stateMutability": "pure",
      "type": "function"
    },
    {
      "constant": true,
      "inputs": [],
      "name": "owner",
      "outputs": [
        {
          "name": "",
          "type": "address"
        }
      ],
      "payable": false,
      "stateMutability": "view",
      "type": "function"
    },
    {
      "constant": true,
      "inputs": [],
      "name": "isOwner",
      "outputs": [
        {
          "name": "",
          "type": "bool"
        }
      ],
      "payable": false,
      "stateMutability": "view",
      "type": "function"
    },
    {
      "constant": true,
      "inputs": [
        {
          "name": "year",
          "type": "uint16"
        },
        {
          "name": "month",
          "type": "uint8"
        },
        {
          "name": "day",
          "type": "uint8"
        },
        {
          "name": "hour",
          "type": "uint8"
        },
        {
          "name": "minute",
          "type": "uint8"
        },
        {
          "name": "second",
          "type": "uint8"
        }
      ],
      "name": "toTimestamp",
      "outputs": [
        {
          "name": "timestamp",
          "type": "uint256"
        }
      ],
      "payable": false,
      "stateMutability": "pure",
      "type": "function"
    },
    {
      "constant": true,
      "inputs": [
        {
          "name": "timestamp",
          "type": "uint256"
        }
      ],
      "name": "getYear",
      "outputs": [
        {
          "name": "",
          "type": "uint16"
        }
      ],
      "payable": false,
      "stateMutability": "pure",
      "type": "function"
    },
    {
      "constant": true,
      "inputs": [],
      "name": "totalMigrated",
      "outputs": [
        {
          "name": "",
          "type": "uint256"
        }
      ],
      "payable": false,
      "stateMutability": "view",
      "type": "function"
    },
    {
      "constant": true,
      "inputs": [],
      "name": "symbol",
      "outputs": [
        {
          "name": "",
          "type": "string"
        }
      ],
      "payable": false,
      "stateMutability": "view",
      "type": "function"
    },
    {
      "constant": false,
      "inputs": [
        {
          "name": "account",
          "type": "address"
        }
      ],
      "name": "addMinter",
      "outputs": [],
      "payable": false,
      "stateMutability": "nonpayable",
      "type": "function"
    },
    {
      "constant": false,
      "inputs": [],
      "name": "renounceMinter",
      "outputs": [],
      "payable": false,
      "stateMutability": "nonpayable",
      "type": "function"
    },
    {
      "constant": true,
      "inputs": [
        {
          "name": "timestamp",
          "type": "uint256"
        }
      ],
      "name": "getMonth",
      "outputs": [
        {
          "name": "",
          "type": "uint8"
        }
      ],
      "payable": false,
      "stateMutability": "pure",
      "type": "function"
    },
    {
      "constant": true,
      "inputs": [
        {
          "name": "year",
          "type": "uint16"
        }
      ],
      "name": "isLeapYear",
      "outputs": [
        {
          "name": "",
          "type": "bool"
        }
      ],
      "payable": false,
      "stateMutability": "pure",
      "type": "function"
    },
    {
      "constant": true,
      "inputs": [
        {
          "name": "account",
          "type": "address"
        }
      ],
      "name": "isMinter",
      "outputs": [
        {
          "name": "",
          "type": "bool"
        }
      ],
      "payable": false,
      "stateMutability": "view",
      "type": "function"
    },
    {
      "constant": true,
      "inputs": [
        {
          "name": "year",
          "type": "uint256"
        }
      ],
      "name": "leapYearsBefore",
      "outputs": [
        {
          "name": "",
          "type": "uint256"
        }
      ],
      "payable": false,
      "stateMutability": "pure",
      "type": "function"
    },
    {
      "constant": true,
      "inputs": [
        {
          "name": "month",
          "type": "uint8"
        },
        {
          "name": "year",
          "type": "uint16"
        }
      ],
      "name": "getDaysInMonth",
      "outputs": [
        {
          "name": "",
          "type": "uint8"
        }
      ],
      "payable": false,
      "stateMutability": "pure",
      "type": "function"
    },
    {
      "constant": true,
      "inputs": [
        {
          "name": "",
          "type": "uint256"
        }
      ],
      "name": "mintedYears",
      "outputs": [
        {
          "name": "",
          "type": "bool"
        }
      ],
      "payable": false,
      "stateMutability": "view",
      "type": "function"
    },
    {
      "constant": true,
      "inputs": [],
      "name": "ONE_YEAR_SUPPLY",
      "outputs": [
        {
          "name": "",
          "type": "uint256"
        }
      ],
      "payable": false,
      "stateMutability": "view",
      "type": "function"
    },
    {
      "constant": true,
      "inputs": [
        {
          "name": "owner",
          "type": "address"
        },
        {
          "name": "spender",
          "type": "address"
        }
      ],
      "name": "allowance",
      "outputs": [
        {
          "name": "",
          "type": "uint256"
        }
      ],
      "payable": false,
      "stateMutability": "view",
      "type": "function"
    },
    {
      "constant": false,
      "inputs": [
        {
          "name": "newOwner",
          "type": "address"
        }
      ],
      "name": "transferOwnership",
      "outputs": [],
      "payable": false,
      "stateMutability": "nonpayable",
      "type": "function"
    },
    {
      "constant": true,
      "inputs": [
        {
          "name": "timestamp",
          "type": "uint256"
        }
      ],
      "name": "getMinute",
      "outputs": [
        {
          "name": "",
          "type": "uint8"
        }
      ],
      "payable": false,
      "stateMutability": "pure",
      "type": "function"
    },
    {
      "inputs": [],
      "payable": false,
      "stateMutability": "nonpayable",
      "type": "constructor"
    },
    {
      "anonymous": false,
      "inputs": [
        {
          "indexed": true,
          "name": "from",
          "type": "address"
        },
        {
          "indexed": true,
          "name": "to",
          "type": "address"
        },
        {
          "indexed": false,
          "name": "value",
          "type": "uint256"
        }
      ],
      "name": "Migrate",
      "type": "event"
    },
    {
      "anonymous": false,
      "inputs": [
        {
          "indexed": true,
          "name": "mintAgent",
          "type": "address"
        }
      ],
      "name": "MintAgentSet",
      "type": "event"
    },
    {
      "anonymous": false,
      "inputs": [
        {
          "indexed": true,
          "name": "migrationAgent",
          "type": "address"
        }
      ],
      "name": "MigrationAgentSet",
      "type": "event"
    },
    {
      "anonymous": false,
      "inputs": [
        {
          "indexed": true,
          "name": "from",
          "type": "address"
        },
        {
          "indexed": false,
          "name": "value",
          "type": "uint256"
        }
      ],
      "name": "BlacklistedFundsBurned",
      "type": "event"
    },
    {
      "anonymous": false,
      "inputs": [
        {
          "indexed": false,
          "name": "user",
          "type": "address"
        }
      ],
      "name": "AddedLock",
      "type": "event"
    },
    {
      "anonymous": false,
      "inputs": [
        {
          "indexed": false,
          "name": "user",
          "type": "address"
        }
      ],
      "name": "RemovedLock",
      "type": "event"
    },
    {
      "anonymous": false,
      "inputs": [
        {
          "indexed": true,
          "name": "account",
          "type": "address"
        }
      ],
      "name": "MinterAdded",
      "type": "event"
    },
    {
      "anonymous": false,
      "inputs": [
        {
          "indexed": true,
          "name": "account",
          "type": "address"
        }
      ],
      "name": "MinterRemoved",
      "type": "event"
    },
    {
      "anonymous": false,
      "inputs": [
        {
          "indexed": true,
          "name": "previousOwner",
          "type": "address"
        },
        {
          "indexed": true,
          "name": "newOwner",
          "type": "address"
        }
      ],
      "name": "OwnershipTransferred",
      "type": "event"
    },
    {
      "anonymous": false,
      "inputs": [
        {
          "indexed": true,
          "name": "from",
          "type": "address"
        },
        {
          "indexed": true,
          "name": "to",
          "type": "address"
        },
        {
          "indexed": false,
          "name": "value",
          "type": "uint256"
        }
      ],
      "name": "Transfer",
      "type": "event"
    },
    {
      "anonymous": false,
      "inputs": [
        {
          "indexed": true,
          "name": "owner",
          "type": "address"
        },
        {
          "indexed": true,
          "name": "spender",
          "type": "address"
        },
        {
          "indexed": false,
          "name": "value",
          "type": "uint256"
        }
      ],
      "name": "Approval",
      "type": "event"
    },
    {
      "anonymous": false,
      "inputs": [
        {
          "indexed": false,
          "name": "account",
          "type": "address"
        }
      ],
      "name": "Paused",
      "type": "event"
    },
    {
      "anonymous": false,
      "inputs": [
        {
          "indexed": false,
          "name": "account",
          "type": "address"
        }
      ],
      "name": "Unpaused",
      "type": "event"
    },
    {
      "anonymous": false,
      "inputs": [
        {
          "indexed": true,
          "name": "account",
          "type": "address"
        }
      ],
      "name": "PauserAdded",
      "type": "event"
    },
    {
      "anonymous": false,
      "inputs": [
        {
          "indexed": true,
          "name": "account",
          "type": "address"
        }
      ],
      "name": "PauserRemoved",
      "type": "event"
    },
    {
      "constant": false,
      "inputs": [],
      "name": "mint",
      "outputs": [
        {
          "name": "",
          "type": "bool"
        }
      ],
      "payable": false,
      "stateMutability": "nonpayable",
      "type": "function"
    },
    {
      "constant": false,
      "inputs": [
        {
          "name": "to",
          "type": "address"
        },
        {
          "name": "value",
          "type": "uint256"
        }
      ],
      "name": "mint",
      "outputs": [
        {
          "name": "",
          "type": "bool"
        }
      ],
      "payable": false,
      "stateMutability": "nonpayable",
      "type": "function"
    },
    {
      "constant": false,
      "inputs": [
        {
          "name": "_mintAgent",
          "type": "address"
        }
      ],
      "name": "setMintContract",
      "outputs": [],
      "payable": false,
      "stateMutability": "nonpayable",
      "type": "function"
    },
    {
      "constant": false,
      "inputs": [
        {
          "name": "_value",
          "type": "uint256"
        }
      ],
      "name": "migrate",
      "outputs": [],
      "payable": false,
      "stateMutability": "nonpayable",
      "type": "function"
    },
    {
      "constant": false,
      "inputs": [
        {
          "name": "_agent",
          "type": "address"
        }
      ],
      "name": "setMigrationAgent",
      "outputs": [],
      "payable": false,
      "stateMutability": "nonpayable",
      "type": "function"
    },
    {
      "constant": false,
      "inputs": [
        {
          "name": "to",
          "type": "address"
        },
        {
          "name": "value",
          "type": "uint256"
        }
      ],
      "name": "transfer",
      "outputs": [
        {
          "name": "",
          "type": "bool"
        }
      ],
      "payable": false,
      "stateMutability": "nonpayable",
      "type": "function"
    },
    {
      "constant": false,
      "inputs": [
        {
          "name": "from",
          "type": "address"
        },
        {
          "name": "to",
          "type": "address"
        },
        {
          "name": "value",
          "type": "uint256"
        }
      ],
      "name": "transferFrom",
      "outputs": [
        {
          "name": "",
          "type": "bool"
        }
      ],
      "payable": false,
      "stateMutability": "nonpayable",
      "type": "function"
    },
    {
      "constant": false,
      "inputs": [
        {
          "name": "spender",
          "type": "address"
        },
        {
          "name": "value",
          "type": "uint256"
        }
      ],
      "name": "approve",
      "outputs": [
        {
          "name": "",
          "type": "bool"
        }
      ],
      "payable": false,
      "stateMutability": "nonpayable",
      "type": "function"
    },
    {
      "constant": false,
      "inputs": [
        {
          "name": "spender",
          "type": "address"
        },
        {
          "name": "addedValue",
          "type": "uint256"
        }
      ],
      "name": "increaseAllowance",
      "outputs": [
        {
          "name": "success",
          "type": "bool"
        }
      ],
      "payable": false,
      "stateMutability": "nonpayable",
      "type": "function"
    },
    {
      "constant": false,
      "inputs": [
        {
          "name": "spender",
          "type": "address"
        },
        {
          "name": "subtractedValue",
          "type": "uint256"
        }
      ],
      "name": "decreaseAllowance",
      "outputs": [
        {
          "name": "success",
          "type": "bool"
        }
      ],
      "payable": false,
      "stateMutability": "nonpayable",
      "type": "function"
    }
  ],
  "bytecode": "0x60806040523480156200001157600080fd5b506040805190810160405280600a81526020017f4175646974636861696e000000000000000000000000000000000000000000008152506040805190810160405280600481526020017f415544540000000000000000000000000000000000000000000000000000000081525060126200009a3362000263640100000000026401000000009004565b6000600160006101000a81548160ff0219169083151502179055508260029080519060200190620000cd9291906200084b565b508160039080519060200190620000e69291906200084b565b5080600460006101000a81548160ff021916908360ff16021790555050505033600860006101000a81548173ffffffffffffffffffffffffffffffffffffffff021916908373ffffffffffffffffffffffffffffffffffffffff160217905550600860009054906101000a900473ffffffffffffffffffffffffffffffffffffffff1673ffffffffffffffffffffffffffffffffffffffff16600073ffffffffffffffffffffffffffffffffffffffff167f8be0079c531659141344cd1fd0a4f28419497f9722a3daafe3b4186f6b6457e060405160405180910390a3620001dd33620002cd640100000000026401000000009004565b6200021333601260ff16600a0a62bebc2002601260ff16600a0a630ee6b280020162000337640100000000026401000000009004565b506001600e6000620002344262000384640100000000026401000000009004565b61ffff16815260200190815260200160002060006101000a81548160ff021916908315150217905550620008fa565b62000287816000620004676401000000000262004368179091906401000000009004565b8073ffffffffffffffffffffffffffffffffffffffff167f6719d08c1888103bea251a4ed56406bd0c3e69723c8a1686e017e7bbe159b6f860405160405180910390a250565b620002f1816009620004676401000000000262004368179091906401000000009004565b8073ffffffffffffffffffffffffffffffffffffffff167f6ae172837ea30b801fbfcdd4108aa1d5bf8ff775444fd70256b44e6bf3dfc3f660405160405180910390a250565b600062000353336200052a640100000000026401000000009004565b15156200035f57600080fd5b6200037a838362000557640100000000026401000000009004565b6001905092915050565b600080600090506000806301e13380858115156200039e57fe5b046107b261ffff16019150620003c96107b261ffff16620006ce640100000000026401000000009004565b620003e78361ffff16620006ce640100000000026401000000009004565b039050806301e285000283019250806107b2830361ffff16036301e1338002830192505b848311156200045c5762000431600183036200070a640100000000026401000000009004565b1562000446576301e285008303925062000450565b6301e13380830392505b6001820391506200040b565b819350505050919050565b600073ffffffffffffffffffffffffffffffffffffffff168173ffffffffffffffffffffffffffffffffffffffff1614151515620004a457600080fd5b620004bf828262000794640100000000026401000000009004565b151515620004cc57600080fd5b60018260000160008373ffffffffffffffffffffffffffffffffffffffff1673ffffffffffffffffffffffffffffffffffffffff16815260200190815260200160002060006101000a81548160ff0219169083151502179055505050565b600062000550826009620007946401000000000262003947179091906401000000009004565b9050919050565b600073ffffffffffffffffffffffffffffffffffffffff168273ffffffffffffffffffffffffffffffffffffffff16141515156200059457600080fd5b620005b981600754620008296401000000000262004298179091906401000000009004565b6007819055506200062181600560008573ffffffffffffffffffffffffffffffffffffffff1673ffffffffffffffffffffffffffffffffffffffff16815260200190815260200160002054620008296401000000000262004298179091906401000000009004565b600560008473ffffffffffffffffffffffffffffffffffffffff1673ffffffffffffffffffffffffffffffffffffffff168152602001908152602001600020819055508173ffffffffffffffffffffffffffffffffffffffff16600073ffffffffffffffffffffffffffffffffffffffff167fddf252ad1be2c89b69c2b068fc378daa952ba7f163c4a11628f55a4df523b3ef836040518082815260200191505060405180910390a35050565b600060018203915061019082811515620006e457fe5b04606483811515620006f257fe5b046004848115156200070057fe5b0403019050919050565b60008060048361ffff168115156200071e57fe5b0661ffff161415156200073557600090506200078f565b600060648361ffff168115156200074857fe5b0661ffff161415156200075f57600190506200078f565b60006101908361ffff168115156200077357fe5b0661ffff161415156200078a57600090506200078f565b600190505b919050565b60008073ffffffffffffffffffffffffffffffffffffffff168273ffffffffffffffffffffffffffffffffffffffff1614151515620007d257600080fd5b8260000160008373ffffffffffffffffffffffffffffffffffffffff1673ffffffffffffffffffffffffffffffffffffffff16815260200190815260200160002060009054906101000a900460ff16905092915050565b60008082840190508381101515156200084157600080fd5b8091505092915050565b828054600181600116156101000203166002900490600052602060002090601f016020900481019282601f106200088e57805160ff1916838001178555620008bf565b82800160010185558215620008bf579182015b82811115620008be578251825591602001919060010190620008a1565b5b509050620008ce9190620008d2565b5090565b620008f791905b80821115620008f3576000816000905550600101620008d9565b5090565b90565b61453f806200090a6000396000f3fe608060405234801561001057600080fd5b5060043610610395576000357c01000000000000000000000000000000000000000000000000000000009004806379cc6790116101f0578063983b2d5611610121578063b1999937116100bf578063d0dafd8e11610099578063d0dafd8e146111f1578063dd62ed3e1461120f578063f2fde38b14611287578063fa93f883146112cb57610395565b8063b199993714611110578063b238ad0e14611152578063d0abed21146111ab57610395565b8063a457c2d7116100fb578063a457c2d714610f9e578063a6f0e57714611004578063a9059cbb1461104e578063aa271e1a146110b457610395565b8063983b2d5614610f085780639865027514610f4c578063a324ad2414610f5657610395565b80638c8d98a01161018e5780639054bdec116101685780639054bdec14610d9657806392d6631314610e1d57806395a0f5eb14610e6757806395d89b4114610e8557610395565b80638c8d98a014610cca5780638da5cb5b14610d2a5780638f32d59b14610d7457610395565b80638328dbcd116101ca5780638328dbcd14610bea5780638456cb5914610c34578063882f327b14610c3e5780638aa001fc14610c8257610395565b806379cc679014610aeb5780637f79183314610b3957806382dc1ec414610ba657610395565b806342966c68116102ca5780635fb64a6a116102685780636ef8d66d116102425780636ef8d66d14610a3b57806370a0823114610a45578063715018a614610a9d57806375e2ff6514610aa757610395565b80635fb64a6a1461093557806362ba96871461097957806365c72840146109f357610395565b80634a387bef116102a45780634a387bef1461082b5780634a4fbeec1461086f5780634ac1ad78146108cb5780635c975abb1461091357610395565b806342966c6814610773578063454b0608146107a157806346fbf68e146107cf57610395565b80632e0f262511610337578063395093511161031157806339509351146106555780633e239e1a146106bb5780633f4ba83a1461070357806340c10f191461070d57610395565b80632e0f2625146105ef5780632ff2e9dc14610613578063313ce5671461063157610395565b80631249c58b116103735780631249c58b146104cd57806318160ddd146104ef5780631a921b3e1461050d57806323b872dd1461056957610395565b806306fdde031461039a578063095ea7b31461041d5780630d3737b014610483575b600080fd5b6103a2611313565b6040518080602001828103825283818151815260200191508051906020019080838360005b838110156103e25780820151818401526020810190506103c7565b50505050905090810190601f16801561040f5780820380516001836020036101000a031916815260200191505b509250505060405180910390f35b6104696004803603604081101561043357600080fd5b81019080803573ffffffffffffffffffffffffffffffffffffffff169060200190929190803590602001909291905050506113b5565b604051808215151515815260200191505060405180910390f35b61048b611617565b604051808273ffffffffffffffffffffffffffffffffffffffff1673ffffffffffffffffffffffffffffffffffffffff16815260200191505060405180910390f35b6104d561163d565b604051808215151515815260200191505060405180910390f35b6104f7611802565b6040518082815260200191505060405180910390f35b61054f6004803603602081101561052357600080fd5b81019080803573ffffffffffffffffffffffffffffffffffffffff16906020019092919050505061180c565b604051808215151515815260200191505060405180910390f35b6105d56004803603606081101561057f57600080fd5b81019080803573ffffffffffffffffffffffffffffffffffffffff169060200190929190803573ffffffffffffffffffffffffffffffffffffffff1690602001909291908035906020019092919050505061182c565b604051808215151515815260200191505060405180910390f35b6105f7611a90565b604051808260ff1660ff16815260200191505060405180910390f35b61061b611a95565b6040518082815260200191505060405180910390f35b610639611aa6565b604051808260ff1660ff16815260200191505060405180910390f35b6106a16004803603604081101561066b57600080fd5b81019080803573ffffffffffffffffffffffffffffffffffffffff16906020019092919080359060200190929190505050611abd565b604051808215151515815260200191505060405180910390f35b6106e7600480360360208110156106d157600080fd5b8101908080359060200190929190505050611d1f565b604051808260ff1660ff16815260200191505060405180910390f35b61070b611d4c565b005b6107596004803603604081101561072357600080fd5b81019080803573ffffffffffffffffffffffffffffffffffffffff16906020019092919080359060200190929190505050611dfb565b604051808215151515815260200191505060405180910390f35b61079f6004803603602081101561078957600080fd5b8101908080359060200190929190505050611e25565b005b6107cd600480360360208110156107b757600080fd5b8101908080359060200190929190505050611e32565b005b610811600480360360208110156107e557600080fd5b81019080803573ffffffffffffffffffffffffffffffffffffffff169060200190929190505050612178565b604051808215151515815260200191505060405180910390f35b61086d6004803603602081101561084157600080fd5b81019080803573ffffffffffffffffffffffffffffffffffffffff169060200190929190505050612195565b005b6108b16004803603602081101561088557600080fd5b81019080803573ffffffffffffffffffffffffffffffffffffffff169060200190929190505050612266565b604051808215151515815260200191505060405180910390f35b6108f7600480360360208110156108e157600080fd5b81019080803590602001909291905050506122bc565b604051808260ff1660ff16815260200191505060405180910390f35b61091b6122e3565b604051808215151515815260200191505060405180910390f35b6109776004803603602081101561094b57600080fd5b81019080803573ffffffffffffffffffffffffffffffffffffffff1690602001909291905050506122fa565b005b6109dd600480360360a081101561098f57600080fd5b81019080803561ffff169060200190929190803560ff169060200190929190803560ff169060200190929190803560ff169060200190929190803560ff169060200190929190505050612439565b6040518082815260200191505060405180910390f35b610a1f60048036036020811015610a0957600080fd5b8101908080359060200190929190505050612455565b604051808260ff1660ff16815260200191505060405180910390f35b610a4361246b565b005b610a8760048036036020811015610a5b57600080fd5b81019080803573ffffffffffffffffffffffffffffffffffffffff169060200190929190505050612476565b6040518082815260200191505060405180910390f35b610aa56124bf565b005b610ae960048036036020811015610abd57600080fd5b81019080803573ffffffffffffffffffffffffffffffffffffffff169060200190929190505050612593565b005b610b3760048036036040811015610b0157600080fd5b81019080803573ffffffffffffffffffffffffffffffffffffffff169060200190929190803590602001909291905050506126f3565b005b610b9060048036036080811015610b4f57600080fd5b81019080803561ffff169060200190929190803560ff169060200190929190803560ff169060200190929190803560ff169060200190929190505050612701565b6040518082815260200191505060405180910390f35b610be860048036036020811015610bbc57600080fd5b81019080803573ffffffffffffffffffffffffffffffffffffffff16906020019092919050505061271c565b005b610bf261273c565b604051808273ffffffffffffffffffffffffffffffffffffffff1673ffffffffffffffffffffffffffffffffffffffff16815260200191505060405180910390f35b610c3c612762565b005b610c8060048036036020811015610c5457600080fd5b81019080803573ffffffffffffffffffffffffffffffffffffffff169060200190929190505050612811565b005b610cae60048036036020811015610c9857600080fd5b81019080803590602001909291905050506128e2565b604051808260ff1660ff16815260200191505060405180910390f35b610d1460048036036060811015610ce057600080fd5b81019080803561ffff169060200190929190803560ff169060200190929190803560ff1690602001909291905050506128f8565b6040518082815260200191505060405180910390f35b610d32612913565b604051808273ffffffffffffffffffffffffffffffffffffffff1673ffffffffffffffffffffffffffffffffffffffff16815260200191505060405180910390f35b610d7c61293d565b604051808215151515815260200191505060405180910390f35b610e07600480360360c0811015610dac57600080fd5b81019080803561ffff169060200190929190803560ff169060200190929190803560ff169060200190929190803560ff169060200190929190803560ff169060200190929190803560ff169060200190929190505050612995565b6040518082815260200191505060405180910390f35b610e4960048036036020811015610e3357600080fd5b8101908080359060200190929190505050612c3c565b604051808261ffff1661ffff16815260200191505060405180910390f35b610e6f612ce7565b6040518082815260200191505060405180910390f35b610e8d612ced565b6040518080602001828103825283818151815260200191508051906020019080838360005b83811015610ecd578082015181840152602081019050610eb2565b50505050905090810190601f168015610efa5780820380516001836020036101000a031916815260200191505b509250505060405180910390f35b610f4a60048036036020811015610f1e57600080fd5b81019080803573ffffffffffffffffffffffffffffffffffffffff169060200190929190505050612d8f565b005b610f54612daf565b005b610f8260048036036020811015610f6c57600080fd5b8101908080359060200190929190505050612dba565b604051808260ff1660ff16815260200191505060405180910390f35b610fea60048036036040811015610fb457600080fd5b81019080803573ffffffffffffffffffffffffffffffffffffffff16906020019092919080359060200190929190505050612dd0565b604051808215151515815260200191505060405180910390f35b6110346004803603602081101561101a57600080fd5b81019080803561ffff169060200190929190505050613032565b604051808215151515815260200191505060405180910390f35b61109a6004803603604081101561106457600080fd5b81019080803573ffffffffffffffffffffffffffffffffffffffff169060200190929190803590602001909291905050506130b3565b604051808215151515815260200191505060405180910390f35b6110f6600480360360208110156110ca57600080fd5b81019080803573ffffffffffffffffffffffffffffffffffffffff169060200190929190505050613315565b604051808215151515815260200191505060405180910390f35b61113c6004803603602081101561112657600080fd5b8101908080359060200190929190505050613332565b6040518082815260200191505060405180910390f35b61118f6004803603604081101561116857600080fd5b81019080803560ff169060200190929190803561ffff16906020019092919050505061336b565b604051808260ff1660ff16815260200191505060405180910390f35b6111d7600480360360208110156111c157600080fd5b8101908080359060200190929190505050613437565b604051808215151515815260200191505060405180910390f35b6111f9613457565b6040518082815260200191505060405180910390f35b6112716004803603604081101561122557600080fd5b81019080803573ffffffffffffffffffffffffffffffffffffffff169060200190929190803573ffffffffffffffffffffffffffffffffffffffff169060200190929190505050613467565b6040518082815260200191505060405180910390f35b6112c96004803603602081101561129d57600080fd5b81019080803573ffffffffffffffffffffffffffffffffffffffff1690602001909291905050506134ee565b005b6112f7600480360360208110156112e157600080fd5b810190808035906020019092919050505061350d565b604051808260ff1660ff16815260200191505060405180910390f35b606060028054600181600116156101000203166002900480601f0160208091040260200160405190810160405280929190818152602001828054600181600116156101000203166002900480156113ab5780601f10611380576101008083540402835291602001916113ab565b820191906000526020600020905b81548152906001019060200180831161138e57829003601f168201915b5050505050905090565b600033836113c1612913565b73ffffffffffffffffffffffffffffffffffffffff168273ffffffffffffffffffffffffffffffffffffffff1614151561157a57600a60008373ffffffffffffffffffffffffffffffffffffffff1673ffffffffffffffffffffffffffffffffffffffff16815260200190815260200160002060009054906101000a900460ff161515156114b7576040517f08c379a000000000000000000000000000000000000000000000000000000000815260040180806020018281038252600e8152602001807f55736572206973206c6f636b656400000000000000000000000000000000000081525060200191505060405180910390fd5b600a60008273ffffffffffffffffffffffffffffffffffffffff1673ffffffffffffffffffffffffffffffffffffffff16815260200190815260200160002060009054906101000a900460ff16151515611579576040517f08c379a000000000000000000000000000000000000000000000000000000000815260040180806020018281038252600e8152602001807f55736572206973206c6f636b656400000000000000000000000000000000000081525060200191505060405180910390fd5b5b843073ffffffffffffffffffffffffffffffffffffffff168173ffffffffffffffffffffffffffffffffffffffff1614151515611602576040517f08c379a000000000000000000000000000000000000000000000000000000000815260040180806020018281038252602f815260200180614491602f913960400191505060405180910390fd5b61160c868661352e565b935050505092915050565b600d60009054906101000a900473ffffffffffffffffffffffffffffffffffffffff1681565b60008073ffffffffffffffffffffffffffffffffffffffff16600d60009054906101000a900473ffffffffffffffffffffffffffffffffffffffff1673ffffffffffffffffffffffffffffffffffffffff1614151515611705576040517f08c379a000000000000000000000000000000000000000000000000000000000815260040180806020018281038252601d8152602001807f4d696e74206167656e7420616464726573732063616e2774206265203000000081525060200191505060405180910390fd5b600e600061171242612c3c565b61ffff16815260200190815260200160002060009054906101000a900460ff1615151561178a576040517f08c379a000000000000000000000000000000000000000000000000000000000815260040180806020018281038252602e8152602001806144e6602e913960400191505060405180910390fd5b6117c2600d60009054906101000a900473ffffffffffffffffffffffffffffffffffffffff16601260ff16600a0a62bebc2002611dfb565b506001600e60006117d242612c3c565b61ffff16815260200190815260200160002060006101000a81548160ff0219169083151502179055506001905090565b6000600754905090565b600a6020528060005260406000206000915054906101000a900460ff1681565b60008383611838612913565b73ffffffffffffffffffffffffffffffffffffffff168273ffffffffffffffffffffffffffffffffffffffff161415156119f157600a60008373ffffffffffffffffffffffffffffffffffffffff1673ffffffffffffffffffffffffffffffffffffffff16815260200190815260200160002060009054906101000a900460ff1615151561192e576040517f08c379a000000000000000000000000000000000000000000000000000000000815260040180806020018281038252600e8152602001807f55736572206973206c6f636b656400000000000000000000000000000000000081525060200191505060405180910390fd5b600a60008273ffffffffffffffffffffffffffffffffffffffff1673ffffffffffffffffffffffffffffffffffffffff16815260200190815260200160002060009054906101000a900460ff161515156119f0576040517f08c379a000000000000000000000000000000000000000000000000000000000815260040180806020018281038252600e8152602001807f55736572206973206c6f636b656400000000000000000000000000000000000081525060200191505060405180910390fd5b5b843073ffffffffffffffffffffffffffffffffffffffff168173ffffffffffffffffffffffffffffffffffffffff1614151515611a79576040517f08c379a000000000000000000000000000000000000000000000000000000000815260040180806020018281038252602f815260200180614491602f913960400191505060405180910390fd5b611a84878787613545565b93505050509392505050565b601281565b601260ff16600a0a630ee6b2800281565b6000600460009054906101000a900460ff16905090565b60003383611ac9612913565b73ffffffffffffffffffffffffffffffffffffffff168273ffffffffffffffffffffffffffffffffffffffff16141515611c8257600a60008373ffffffffffffffffffffffffffffffffffffffff1673ffffffffffffffffffffffffffffffffffffffff16815260200190815260200160002060009054906101000a900460ff16151515611bbf576040517f08c379a000000000000000000000000000000000000000000000000000000000815260040180806020018281038252600e8152602001807f55736572206973206c6f636b656400000000000000000000000000000000000081525060200191505060405180910390fd5b600a60008273ffffffffffffffffffffffffffffffffffffffff1673ffffffffffffffffffffffffffffffffffffffff16815260200190815260200160002060009054906101000a900460ff16151515611c81576040517f08c379a000000000000000000000000000000000000000000000000000000000815260040180806020018281038252600e8152602001807f55736572206973206c6f636b656400000000000000000000000000000000000081525060200191505060405180910390fd5b5b843073ffffffffffffffffffffffffffffffffffffffff168173ffffffffffffffffffffffffffffffffffffffff1614151515611d0a576040517f08c379a000000000000000000000000000000000000000000000000000000000815260040180806020018281038252602f815260200180614491602f913960400191505060405180910390fd5b611d1486866135f6565b935050505092915050565b60006018603c8084811515611d3057fe5b04811515611d3a57fe5b04811515611d4457fe5b069050919050565b611d5533612178565b1515611d6057600080fd5b600160009054906101000a900460ff161515611d7b57600080fd5b6000600160006101000a81548160ff0219169083151502179055507f5db9ee0a495bf2e6ff9c91a7834c1ba4fdd244a5e8aa4e537bd38aeae4b073aa33604051808273ffffffffffffffffffffffffffffffffffffffff1673ffffffffffffffffffffffffffffffffffffffff16815260200191505060405180910390a1565b6000611e0633613315565b1515611e1157600080fd5b611e1b838361369b565b6001905092915050565b611e2f33826137f1565b50565b600160009054906101000a900460ff16151515611e4e57600080fd5b600073ffffffffffffffffffffffffffffffffffffffff16600b60009054906101000a900473ffffffffffffffffffffffffffffffffffffffff1673ffffffffffffffffffffffffffffffffffffffff1614151515611f15576040517f08c379a000000000000000000000000000000000000000000000000000000000815260040180806020018281038252601d8152602001807f456e746572206d6967726174696f6e206167656e74206164647265737300000081525060200191505060405180910390fd5b600081111515611f8d576040517f08c379a000000000000000000000000000000000000000000000000000000000815260040180806020018281038252601c8152602001807f416d6f756e74206f6620746f6b656e732069732072657175697265640000000081525060200191505060405180910390fd5b611f9633612476565b8111151515611ff0576040517f08c379a00000000000000000000000000000000000000000000000000000000081526004018080602001828103825260268152602001806144c06026913960400191505060405180910390fd5b612001611ffc33612476565b611e25565b80600c60008282540192505081905550600b60009054906101000a900473ffffffffffffffffffffffffffffffffffffffff1673ffffffffffffffffffffffffffffffffffffffff16637a3130e333836040518363ffffffff167c0100000000000000000000000000000000000000000000000000000000028152600401808373ffffffffffffffffffffffffffffffffffffffff1673ffffffffffffffffffffffffffffffffffffffff16815260200182815260200192505050600060405180830381600087803b1580156120d657600080fd5b505af11580156120ea573d6000803e3d6000fd5b50505050600b60009054906101000a900473ffffffffffffffffffffffffffffffffffffffff1673ffffffffffffffffffffffffffffffffffffffff163373ffffffffffffffffffffffffffffffffffffffff167f18df02dcc52b9c494f391df09661519c0069bd8540141946280399408205ca1a836040518082815260200191505060405180910390a350565b600061218e82600061394790919063ffffffff16565b9050919050565b61219d61293d565b15156121a857600080fd5b6000600a60008373ffffffffffffffffffffffffffffffffffffffff1673ffffffffffffffffffffffffffffffffffffffff16815260200190815260200160002060006101000a81548160ff0219169083151502179055507f6134e30ca79f58d7566528b3768c7d33c9c30815c63cfeae3b69f52cf31dd61a81604051808273ffffffffffffffffffffffffffffffffffffffff1673ffffffffffffffffffffffffffffffffffffffff16815260200191505060405180910390a150565b6000600a60008373ffffffffffffffffffffffffffffffffffffffff1673ffffffffffffffffffffffffffffffffffffffff16815260200190815260200160002060009054906101000a900460ff169050919050565b60006007600462015180848115156122d057fe5b04018115156122db57fe5b069050919050565b6000600160009054906101000a900460ff16905090565b61230261293d565b151561230d57600080fd5b600073ffffffffffffffffffffffffffffffffffffffff168173ffffffffffffffffffffffffffffffffffffffff16141515156123b2576040517f08c379a000000000000000000000000000000000000000000000000000000000815260040180806020018281038252601d8152602001807f4d696e74206167656e7420616464726573732063616e2774206265203000000081525060200191505060405180910390fd5b80600d60006101000a81548173ffffffffffffffffffffffffffffffffffffffff021916908373ffffffffffffffffffffffffffffffffffffffff1602179055508073ffffffffffffffffffffffffffffffffffffffff167fcea475dd5b51b9b5218c64ef560247c5b741ba24ddb1ad2fca98056f199518cc60405160405180910390a250565b600061244a86868686866000612995565b905095945050505050565b6000612460826139db565b604001519050919050565b61247433613b7c565b565b6000600560008373ffffffffffffffffffffffffffffffffffffffff1673ffffffffffffffffffffffffffffffffffffffff168152602001908152602001600020549050919050565b6124c761293d565b15156124d257600080fd5b600073ffffffffffffffffffffffffffffffffffffffff16600860009054906101000a900473ffffffffffffffffffffffffffffffffffffffff1673ffffffffffffffffffffffffffffffffffffffff167f8be0079c531659141344cd1fd0a4f28419497f9722a3daafe3b4186f6b6457e060405160405180910390a36000600860006101000a81548173ffffffffffffffffffffffffffffffffffffffff021916908373ffffffffffffffffffffffffffffffffffffffff160217905550565b61259b61293d565b15156125a657600080fd5b600073ffffffffffffffffffffffffffffffffffffffff16600b60009054906101000a900473ffffffffffffffffffffffffffffffffffffffff1673ffffffffffffffffffffffffffffffffffffffff1614151561266c576040517f08c379a000000000000000000000000000000000000000000000000000000000815260040180806020018281038252601a8152602001807f4d6967726174696f6e206167656e742063616e2774206265203000000000000081525060200191505060405180910390fd5b80600b60006101000a81548173ffffffffffffffffffffffffffffffffffffffff021916908373ffffffffffffffffffffffffffffffffffffffff1602179055508073ffffffffffffffffffffffffffffffffffffffff167f53002f2ca3e2737f3405e7f734101551690f8426e082167285f3caa8e6c6a18260405160405180910390a250565b6126fd8282613bd6565b5050565b600061271285858585600080612995565b9050949350505050565b61272533612178565b151561273057600080fd5b61273981613c7d565b50565b600b60009054906101000a900473ffffffffffffffffffffffffffffffffffffffff1681565b61276b33612178565b151561277657600080fd5b600160009054906101000a900460ff1615151561279257600080fd5b60018060006101000a81548160ff0219169083151502179055507f62e78cea01bee320cd4e420270b5ea74000d11b0c9f74754ebdbfc544b05a25833604051808273ffffffffffffffffffffffffffffffffffffffff1673ffffffffffffffffffffffffffffffffffffffff16815260200191505060405180910390a1565b61281961293d565b151561282457600080fd5b6001600a60008373ffffffffffffffffffffffffffffffffffffffff1673ffffffffffffffffffffffffffffffffffffffff16815260200190815260200160002060006101000a81548160ff0219169083151502179055507f1b6f28dfffb89ba40ba9067329c3c0e8bd926256b970cf7d060cd48b1cd0e44e81604051808273ffffffffffffffffffffffffffffffffffffffff1673ffffffffffffffffffffffffffffffffffffffff16815260200191505060405180910390a150565b6000603c828115156128f057fe5b069050919050565b600061290a8484846000806000612995565b90509392505050565b6000600860009054906101000a900473ffffffffffffffffffffffffffffffffffffffff16905090565b6000600860009054906101000a900473ffffffffffffffffffffffffffffffffffffffff1673ffffffffffffffffffffffffffffffffffffffff163373ffffffffffffffffffffffffffffffffffffffff1614905090565b6000806107b290505b8761ffff168161ffff1610156129e1576129b781613032565b156129ca576301e28500820191506129d4565b6301e13380820191505b808060010191505061299e565b6129e9614418565b601f816000600c811015156129fa57fe5b602002019060ff16908160ff1681525050612a1489613032565b15612a4057601d816001600c81101515612a2a57fe5b602002019060ff16908160ff1681525050612a63565b601c816001600c81101515612a5157fe5b602002019060ff16908160ff16815250505b601f816002600c81101515612a7457fe5b602002019060ff16908160ff1681525050601e816003600c81101515612a9657fe5b602002019060ff16908160ff1681525050601f816004600c81101515612ab857fe5b602002019060ff16908160ff1681525050601e816005600c81101515612ada57fe5b602002019060ff16908160ff1681525050601f816006600c81101515612afc57fe5b602002019060ff16908160ff1681525050601f816007600c81101515612b1e57fe5b602002019060ff16908160ff1681525050601e816008600c81101515612b4057fe5b602002019060ff16908160ff1681525050601f816009600c81101515612b6257fe5b602002019060ff16908160ff1681525050601e81600a600c81101515612b8457fe5b602002019060ff16908160ff1681525050601f81600b600c81101515612ba657fe5b602002019060ff16908160ff1681525050600191505b8760ff168261ffff161015612bfe57806001830361ffff16600c81101515612be057fe5b602002015160ff166201518002830192508180600101925050612bbc565b6001870360ff166201518002830192508560ff16610e1002830192508460ff16603c02830192508360ff168301925082925050509695505050505050565b600080600090506000806301e1338085811515612c5557fe5b046107b261ffff16019150612c6f6107b261ffff16613332565b612c7c8361ffff16613332565b039050806301e285000283019250806107b2830361ffff16036301e1338002830192505b84831115612cdc57612cb460018303613032565b15612cc7576301e2850083039250612cd1565b6301e13380830392505b600182039150612ca0565b819350505050919050565b600c5481565b606060038054600181600116156101000203166002900480601f016020809104026020016040519081016040528092919081815260200182805460018160011615610100020316600290048015612d855780601f10612d5a57610100808354040283529160200191612d85565b820191906000526020600020905b815481529060010190602001808311612d6857829003601f168201915b5050505050905090565b612d9833613315565b1515612da357600080fd5b612dac81613cd7565b50565b612db833613d31565b565b6000612dc5826139db565b602001519050919050565b60003383612ddc612913565b73ffffffffffffffffffffffffffffffffffffffff168273ffffffffffffffffffffffffffffffffffffffff16141515612f9557600a60008373ffffffffffffffffffffffffffffffffffffffff1673ffffffffffffffffffffffffffffffffffffffff16815260200190815260200160002060009054906101000a900460ff16151515612ed2576040517f08c379a000000000000000000000000000000000000000000000000000000000815260040180806020018281038252600e8152602001807f55736572206973206c6f636b656400000000000000000000000000000000000081525060200191505060405180910390fd5b600a60008273ffffffffffffffffffffffffffffffffffffffff1673ffffffffffffffffffffffffffffffffffffffff16815260200190815260200160002060009054906101000a900460ff16151515612f94576040517f08c379a000000000000000000000000000000000000000000000000000000000815260040180806020018281038252600e8152602001807f55736572206973206c6f636b656400000000000000000000000000000000000081525060200191505060405180910390fd5b5b843073ffffffffffffffffffffffffffffffffffffffff168173ffffffffffffffffffffffffffffffffffffffff161415151561301d576040517f08c379a000000000000000000000000000000000000000000000000000000000815260040180806020018281038252602f815260200180614491602f913960400191505060405180910390fd5b6130278686613d8b565b935050505092915050565b60008060048361ffff1681151561304557fe5b0661ffff1614151561305a57600090506130ae565b600060648361ffff1681151561306c57fe5b0661ffff1614151561308157600190506130ae565b60006101908361ffff1681151561309457fe5b0661ffff161415156130a957600090506130ae565b600190505b919050565b600033836130bf612913565b73ffffffffffffffffffffffffffffffffffffffff168273ffffffffffffffffffffffffffffffffffffffff1614151561327857600a60008373ffffffffffffffffffffffffffffffffffffffff1673ffffffffffffffffffffffffffffffffffffffff16815260200190815260200160002060009054906101000a900460ff161515156131b5576040517f08c379a000000000000000000000000000000000000000000000000000000000815260040180806020018281038252600e8152602001807f55736572206973206c6f636b656400000000000000000000000000000000000081525060200191505060405180910390fd5b600a60008273ffffffffffffffffffffffffffffffffffffffff1673ffffffffffffffffffffffffffffffffffffffff16815260200190815260200160002060009054906101000a900460ff16151515613277576040517f08c379a000000000000000000000000000000000000000000000000000000000815260040180806020018281038252600e8152602001807f55736572206973206c6f636b656400000000000000000000000000000000000081525060200191505060405180910390fd5b5b843073ffffffffffffffffffffffffffffffffffffffff168173ffffffffffffffffffffffffffffffffffffffff1614151515613300576040517f08c379a000000000000000000000000000000000000000000000000000000000815260040180806020018281038252602f815260200180614491602f913960400191505060405180910390fd5b61330a8686613e30565b935050505092915050565b600061332b82600961394790919063ffffffff16565b9050919050565b60006001820391506101908281151561334757fe5b0460648381151561335457fe5b0460048481151561336157fe5b0403019050919050565b600060018360ff161480613382575060038360ff16145b80613390575060058360ff16145b8061339e575060078360ff16145b806133ac575060088360ff16145b806133ba5750600a8360ff16145b806133c85750600c8360ff16145b156133d657601f9050613431565b60048360ff1614806133eb575060068360ff16145b806133f9575060098360ff16145b806134075750600b8360ff16145b1561341557601e9050613431565b61341e82613032565b1561342c57601d9050613431565b601c90505b92915050565b600e6020528060005260406000206000915054906101000a900460ff1681565b601260ff16600a0a62bebc200281565b6000600660008473ffffffffffffffffffffffffffffffffffffffff1673ffffffffffffffffffffffffffffffffffffffff16815260200190815260200160002060008373ffffffffffffffffffffffffffffffffffffffff1673ffffffffffffffffffffffffffffffffffffffff16815260200190815260200160002054905092915050565b6134f661293d565b151561350157600080fd5b61350a81613e47565b50565b6000603c808381151561351c57fe5b0481151561352657fe5b069050919050565b600061353b338484613f43565b6001905092915050565b60006135528484846140a6565b6135eb84336135e685600660008a73ffffffffffffffffffffffffffffffffffffffff1673ffffffffffffffffffffffffffffffffffffffff16815260200190815260200160002060003373ffffffffffffffffffffffffffffffffffffffff1673ffffffffffffffffffffffffffffffffffffffff1681526020019081526020016000205461427690919063ffffffff16565b613f43565b600190509392505050565b6000613691338461368c85600660003373ffffffffffffffffffffffffffffffffffffffff1673ffffffffffffffffffffffffffffffffffffffff16815260200190815260200160002060008973ffffffffffffffffffffffffffffffffffffffff1673ffffffffffffffffffffffffffffffffffffffff1681526020019081526020016000205461429890919063ffffffff16565b613f43565b6001905092915050565b600073ffffffffffffffffffffffffffffffffffffffff168273ffffffffffffffffffffffffffffffffffffffff16141515156136d757600080fd5b6136ec8160075461429890919063ffffffff16565b60078190555061374481600560008573ffffffffffffffffffffffffffffffffffffffff1673ffffffffffffffffffffffffffffffffffffffff1681526020019081526020016000205461429890919063ffffffff16565b600560008473ffffffffffffffffffffffffffffffffffffffff1673ffffffffffffffffffffffffffffffffffffffff168152602001908152602001600020819055508173ffffffffffffffffffffffffffffffffffffffff16600073ffffffffffffffffffffffffffffffffffffffff167fddf252ad1be2c89b69c2b068fc378daa952ba7f163c4a11628f55a4df523b3ef836040518082815260200191505060405180910390a35050565b600073ffffffffffffffffffffffffffffffffffffffff168273ffffffffffffffffffffffffffffffffffffffff161415151561382d57600080fd5b6138428160075461427690919063ffffffff16565b60078190555061389a81600560008573ffffffffffffffffffffffffffffffffffffffff1673ffffffffffffffffffffffffffffffffffffffff1681526020019081526020016000205461427690919063ffffffff16565b600560008473ffffffffffffffffffffffffffffffffffffffff1673ffffffffffffffffffffffffffffffffffffffff16815260200190815260200160002081905550600073ffffffffffffffffffffffffffffffffffffffff168273ffffffffffffffffffffffffffffffffffffffff167fddf252ad1be2c89b69c2b068fc378daa952ba7f163c4a11628f55a4df523b3ef836040518082815260200191505060405180910390a35050565b60008073ffffffffffffffffffffffffffffffffffffffff168273ffffffffffffffffffffffffffffffffffffffff161415151561398457600080fd5b8260000160008373ffffffffffffffffffffffffffffffffffffffff1673ffffffffffffffffffffffffffffffffffffffff16815260200190815260200160002060009054906101000a900460ff16905092915050565b6139e361443c565b60008090506000806139f485612c3c565b846000019061ffff16908161ffff1681525050613a166107b261ffff16613332565b613a27856000015161ffff16613332565b039150816301e285000283019250816107b285600001510361ffff16036301e1338002830192506000600191505b600c8260ff16111515613aad57613a7082866000015161336b565b60ff1662015180029050858482011115613a9b5781856020019060ff16908160ff1681525050613aad565b80840193508180600101925050613a55565b600191505b613ac48560200151866000015161336b565b60ff168260ff16111515613b0b57858462015180011115613af65781856040019060ff16908160ff1681525050613b0b565b62015180840193508180600101925050613ab2565b613b1486611d1f565b856060019060ff16908160ff1681525050613b2e8661350d565b856080019060ff16908160ff1681525050613b48866128e2565b8560a0019060ff16908160ff1681525050613b62866122bc565b8560c0019060ff16908160ff168152505050505050919050565b613b908160006142b990919063ffffffff16565b8073ffffffffffffffffffffffffffffffffffffffff167fcd265ebaf09df2871cc7bd4133404a235ba12eff2041bb89d9c714a2621c7c7e60405160405180910390a250565b613be082826137f1565b613c798233613c7484600660008873ffffffffffffffffffffffffffffffffffffffff1673ffffffffffffffffffffffffffffffffffffffff16815260200190815260200160002060003373ffffffffffffffffffffffffffffffffffffffff1673ffffffffffffffffffffffffffffffffffffffff1681526020019081526020016000205461427690919063ffffffff16565b613f43565b5050565b613c9181600061436890919063ffffffff16565b8073ffffffffffffffffffffffffffffffffffffffff167f6719d08c1888103bea251a4ed56406bd0c3e69723c8a1686e017e7bbe159b6f860405160405180910390a250565b613ceb81600961436890919063ffffffff16565b8073ffffffffffffffffffffffffffffffffffffffff167f6ae172837ea30b801fbfcdd4108aa1d5bf8ff775444fd70256b44e6bf3dfc3f660405160405180910390a250565b613d458160096142b990919063ffffffff16565b8073ffffffffffffffffffffffffffffffffffffffff167fe94479a9f7e1952cc78f2d6baab678adc1b772d936c6583def489e524cb6669260405160405180910390a250565b6000613e263384613e2185600660003373ffffffffffffffffffffffffffffffffffffffff1673ffffffffffffffffffffffffffffffffffffffff16815260200190815260200160002060008973ffffffffffffffffffffffffffffffffffffffff1673ffffffffffffffffffffffffffffffffffffffff1681526020019081526020016000205461427690919063ffffffff16565b613f43565b6001905092915050565b6000613e3d3384846140a6565b6001905092915050565b600073ffffffffffffffffffffffffffffffffffffffff168173ffffffffffffffffffffffffffffffffffffffff1614151515613e8357600080fd5b8073ffffffffffffffffffffffffffffffffffffffff16600860009054906101000a900473ffffffffffffffffffffffffffffffffffffffff1673ffffffffffffffffffffffffffffffffffffffff167f8be0079c531659141344cd1fd0a4f28419497f9722a3daafe3b4186f6b6457e060405160405180910390a380600860006101000a81548173ffffffffffffffffffffffffffffffffffffffff021916908373ffffffffffffffffffffffffffffffffffffffff16021790555050565b600073ffffffffffffffffffffffffffffffffffffffff168273ffffffffffffffffffffffffffffffffffffffff1614151515613f7f57600080fd5b600073ffffffffffffffffffffffffffffffffffffffff168373ffffffffffffffffffffffffffffffffffffffff1614151515613fbb57600080fd5b80600660008573ffffffffffffffffffffffffffffffffffffffff1673ffffffffffffffffffffffffffffffffffffffff16815260200190815260200160002060008473ffffffffffffffffffffffffffffffffffffffff1673ffffffffffffffffffffffffffffffffffffffff168152602001908152602001600020819055508173ffffffffffffffffffffffffffffffffffffffff168373ffffffffffffffffffffffffffffffffffffffff167f8c5be1e5ebec7d5bd14f71427d1e84f3dd0314c0f7b2291e5b200ac8c7c3b925836040518082815260200191505060405180910390a3505050565b600073ffffffffffffffffffffffffffffffffffffffff168273ffffffffffffffffffffffffffffffffffffffff16141515156140e257600080fd5b61413481600560008673ffffffffffffffffffffffffffffffffffffffff1673ffffffffffffffffffffffffffffffffffffffff1681526020019081526020016000205461427690919063ffffffff16565b600560008573ffffffffffffffffffffffffffffffffffffffff1673ffffffffffffffffffffffffffffffffffffffff168152602001908152602001600020819055506141c981600560008573ffffffffffffffffffffffffffffffffffffffff1673ffffffffffffffffffffffffffffffffffffffff1681526020019081526020016000205461429890919063ffffffff16565b600560008473ffffffffffffffffffffffffffffffffffffffff1673ffffffffffffffffffffffffffffffffffffffff168152602001908152602001600020819055508173ffffffffffffffffffffffffffffffffffffffff168373ffffffffffffffffffffffffffffffffffffffff167fddf252ad1be2c89b69c2b068fc378daa952ba7f163c4a11628f55a4df523b3ef836040518082815260200191505060405180910390a3505050565b600082821115151561428757600080fd5b600082840390508091505092915050565b60008082840190508381101515156142af57600080fd5b8091505092915050565b600073ffffffffffffffffffffffffffffffffffffffff168173ffffffffffffffffffffffffffffffffffffffff16141515156142f557600080fd5b6142ff8282613947565b151561430a57600080fd5b60008260000160008373ffffffffffffffffffffffffffffffffffffffff1673ffffffffffffffffffffffffffffffffffffffff16815260200190815260200160002060006101000a81548160ff0219169083151502179055505050565b600073ffffffffffffffffffffffffffffffffffffffff168173ffffffffffffffffffffffffffffffffffffffff16141515156143a457600080fd5b6143ae8282613947565b1515156143ba57600080fd5b60018260000160008373ffffffffffffffffffffffffffffffffffffffff1673ffffffffffffffffffffffffffffffffffffffff16815260200190815260200160002060006101000a81548160ff0219169083151502179055505050565b61018060405190810160405280600c90602082028038833980820191505090505090565b60e060405190810160405280600061ffff168152602001600060ff168152602001600060ff168152602001600060ff168152602001600060ff168152602001600060ff168152602001600060ff168152509056fe596f752061726520747279696e6720746f2073656e6420746f6b656e7320746f20746f6b656e20636f6e7472616374596f7520656e7465726564206d6f726520746f6b656e73207468616e20617661696c61626c65546f6b656e732068617665206265656e20616c7265616479206d696e74656420666f72207468697320796561722ea165627a7a72305820602f6be280df1270746f5b60f9a6582965d3683510917993002b63eaa1472af40029",
  "source": "pragma solidity ^0.5.2;\n\nimport \"../../../openzeppelin-solidity/contracts/lifecycle/Pausable.sol\";\nimport \"../../../openzeppelin-solidity/contracts/token/ERC20/ERC20Detailed.sol\";\nimport \"../../../openzeppelin-solidity/contracts/token/ERC20/ERC20Burnable.sol\";\nimport \"../../../openzeppelin-solidity/contracts/ownership/Ownable.sol\";\nimport \"../../../openzeppelin-solidity/contracts/token/ERC20/ERC20Mintable.sol\";\nimport \"./MigrationAgent.sol\";\nimport \"./DateTime.sol\";\nimport \"./Locked.sol\";\n\n\n/**\n * @title Token\n * @dev Burnable, Mintabble, Ownable, Pausable, with Locking ability per user. \n */\ncontract Token is Pausable, ERC20Detailed, Ownable, ERC20Burnable, ERC20Mintable, Locked, DateTime {\n\n\n    //using DateTime for uint256;\n    uint8 public constant DECIMALS = 18;\n    uint256 public constant INITIAL_SUPPLY = 250000000 * (10 ** uint256(DECIMALS));   \n    uint256 public constant ONE_YEAR_SUPPLY = 12500000 * (10 ** uint256(DECIMALS));   \n    address public migrationAgent;\n    uint256 public totalMigrated;\n    address public mintAgent;    \n\n    mapping (uint => bool) public mintedYears;\n\n    event Migrate(address indexed from, address indexed to, uint256 value);\n    event MintAgentSet(address indexed mintAgent);\n    event MigrationAgentSet(address indexed migrationAgent);\n    event BlacklistedFundsBurned(address indexed from, uint256 value);\n\n    /// @dev prevent accidental sending of tokens to this token contract\n    /// @param _self - address of this contract\n    modifier notSelf(address _self) {\n        require(_self != address(this), \"You are trying to send tokens to token contract\");\n        _;\n    }\n\n    /**\n     * @dev Constructor that gives msg.sender all of existing tokens.\n     */\n    constructor () public ERC20Detailed(\"Auditchain\", \"AUDT\", DECIMALS)  {      \n        mint(msg.sender, INITIAL_SUPPLY + ONE_YEAR_SUPPLY);     \n       mintedYears[getYear(now)] = true;\n    }\n     \n     /// @dev Function to mint tokens\n     /// @return A boolean that indicates if the operation was successful.\n    function mint() public returns (bool) {\n\n        require(mintAgent != address(0), \"Mint agent address can't be 0\");\n        require (!mintedYears[getYear(now)], \"Tokens have been already minted for this year.\");\n\n        mint(mintAgent, ONE_YEAR_SUPPLY);\n        mintedYears[getYear(now)] = true;\n\n        return true;\n    }\n\n    /// @notice Set contract to which yearly tokens will be minted\n    /// @param _mintAgent - address of the contract to set\n    function setMintContract(address _mintAgent) external onlyOwner() {\n\n        require(_mintAgent != address(0), \"Mint agent address can't be 0\");\n        mintAgent = _mintAgent;\n        emit MintAgentSet(_mintAgent);\n    }\n\n    /// @notice Migrate tokens to the new token contract.\n    /// @param _value The amount of token to be migrated\n    function migrate(uint256 _value) external whenNotPaused() {         \n\n        require(migrationAgent != address(0), \"Enter migration agent address\");        \n        // Validate input value.\n        require(_value > 0, \"Amount of tokens is required\");\n        require(_value <= balanceOf(msg.sender), \"You entered more tokens than available\");\n       \n        burn(balanceOf(msg.sender));\n        totalMigrated += _value;\n        MigrationAgent(migrationAgent).migrateFrom(msg.sender, _value);\n        emit Migrate(msg.sender, migrationAgent, _value);\n    }\n\n    /// @notice Set address of migration target contract and enable migration process\n    /// @param _agent The address of the MigrationAgent contract\n    function setMigrationAgent(address _agent) external onlyOwner() {       \n\n        require(migrationAgent == address(0), \"Migration agent can't be 0\");       \n        migrationAgent = _agent;\n        emit MigrationAgentSet(_agent);\n    }\n\n    /// @notice Overwrite parent implementation to add blacklisted and notSelf modifiers\n    function transfer(address to, uint256 value) public \n                                                    isNotLocked(msg.sender, to) \n                                                    notSelf(to) \n                                                    returns (bool) {\n        return super.transfer(to, value);\n    }\n\n    /// @notice Overwrite parent implementation to add blacklisted and notSelf modifiers\n    function transferFrom(address from, address to, uint256 value) public \n                                                                    isNotLocked(from, to) \n                                                                    notSelf(to) \n                                                                    returns (bool) {\n        return super.transferFrom(from, to, value);\n    }\n\n    /// @notice Overwrite parent implementation to add blacklisted and notSelf modifiers\n    function approve(address spender, uint256 value) public \n                                                        isNotLocked(msg.sender, spender) \n                                                        notSelf(spender) \n                                                        returns (bool) {\n        return super.approve(spender, value);\n    }\n\n    /// @notice Overwrite parent implementation to add blacklisted and notSelf modifiers\n    function increaseAllowance(address spender, uint addedValue) public \n                                                                isNotLocked(msg.sender, spender) \n                                                                notSelf(spender) \n                                                                returns (bool success) {\n        return super.increaseAllowance(spender, addedValue);\n    }\n\n    /// @notice Overwrite parent implementation to add blacklisted and notSelf modifiers\n    function decreaseAllowance(address spender, uint subtractedValue) public \n                                                                        isNotLocked(msg.sender, spender) \n                                                                        notSelf(spender) \n                                                                        returns (bool success) {\n        return super.decreaseAllowance(spender, subtractedValue);\n    }\n    \n    \n}",
  "sourcePath": "/home/bogdan/Ethereum/Projects/TGE/Token/contracts/Token.sol",
  "compiler": {
    "name": "solc",
    "version": "0.5.2+commit.1df8f40c.Emscripten.clang"
  },
  "schemaVersion": "3.0.2",
  "updatedAt": "2019-02-21T02:33:23.187Z",
  "devdoc": {
    "details": "Burnable, Mintabble, Ownable, Pausable, with Locking ability per user. ",
    "methods": {
      "addLock(address)": {
        "details": "add user to lock",
        "params": {
          "_user": "to lock"
        }
      },
      "allowance(address,address)": {
        "details": "Function to check the amount of tokens that an owner allowed to a spender.",
        "params": {
          "owner": "address The address which owns the funds.",
          "spender": "address The address which will spend the funds."
        },
        "return": "A uint256 specifying the amount of tokens still available for the spender."
      },
      "balanceOf(address)": {
        "details": "Gets the balance of the specified address.",
        "params": {
          "owner": "The address to query the balance of."
        },
        "return": "An uint256 representing the amount owned by the passed address."
      },
      "burn(uint256)": {
        "details": "Burns a specific amount of tokens.",
        "params": {
          "value": "The amount of token to be burned."
        }
      },
      "burnFrom(address,uint256)": {
        "details": "Burns a specific amount of tokens from the target address and decrements allowance",
        "params": {
          "from": "address The account whose tokens will be burned.",
          "value": "uint256 The amount of token to be burned."
        }
      },
      "constructor": {
        "details": "Constructor that gives msg.sender all of existing tokens."
      },
      "decimals()": {
        "return": "the number of decimals of the token."
      },
      "isLocked(address)": {
        "details": "check if user has been locked",
        "params": {
          "_user": "- usr to check"
        },
        "return": "true or false"
      },
      "isOwner()": {
        "return": "true if `msg.sender` is the owner of the contract."
      },
      "migrate(uint256)": {
        "params": {
          "_value": "The amount of token to be migrated"
        }
      },
      "mint()": {
        "details": "Function to mint tokens",
        "return": "A boolean that indicates if the operation was successful."
      },
      "mint(address,uint256)": {
        "details": "Function to mint tokens",
        "params": {
          "to": "The address that will receive the minted tokens.",
          "value": "The amount of tokens to mint."
        },
        "return": "A boolean that indicates if the operation was successful."
      },
      "name()": {
        "return": "the name of the token."
      },
      "owner()": {
        "return": "the address of the owner."
      },
      "pause()": {
        "details": "called by the owner to pause, triggers stopped state"
      },
      "paused()": {
        "return": "true if the contract is paused, false otherwise."
      },
      "removeLock(address)": {
        "details": "unlock user",
        "params": {
          "_user": "- user to unlock"
        }
      },
      "renounceOwnership()": {
        "details": "Allows the current owner to relinquish control of the contract."
      },
      "setMigrationAgent(address)": {
        "params": {
          "_agent": "The address of the MigrationAgent contract"
        }
      },
      "setMintContract(address)": {
        "params": {
          "_mintAgent": "- address of the contract to set"
        }
      },
      "symbol()": {
        "return": "the symbol of the token."
      },
      "totalSupply()": {
        "details": "Total number of tokens in existence"
      },
      "transferOwnership(address)": {
        "details": "Allows the current owner to transfer control of the contract to a newOwner.",
        "params": {
          "newOwner": "The address to transfer ownership to."
        }
      },
      "unpause()": {
        "details": "called by the owner to unpause, returns to normal state"
      }
    },
    "title": "Token"
  },
  "userdoc": {
    "methods": {
      "approve(address,uint256)": {
        "notice": "Overwrite parent implementation to add blacklisted and notSelf modifiers"
      },
      "decreaseAllowance(address,uint256)": {
        "notice": "Overwrite parent implementation to add blacklisted and notSelf modifiers"
      },
      "increaseAllowance(address,uint256)": {
        "notice": "Overwrite parent implementation to add blacklisted and notSelf modifiers"
      },
      "migrate(uint256)": {
        "notice": "Migrate tokens to the new token contract."
      },
      "renounceOwnership()": {
        "notice": "Renouncing to ownership will leave the contract without an owner. It will not be possible to call the functions with the `onlyOwner` modifier anymore."
      },
      "setMigrationAgent(address)": {
        "notice": "Set address of migration target contract and enable migration process"
      },
      "setMintContract(address)": {
        "notice": "Set contract to which yearly tokens will be minted"
      },
      "transfer(address,uint256)": {
        "notice": "Overwrite parent implementation to add blacklisted and notSelf modifiers"
      },
      "transferFrom(address,address,uint256)": {
        "notice": "Overwrite parent implementation to add blacklisted and notSelf modifiers"
      }
    }
  }
}