{
  "contractName": "Token",
  "abi": [
    {
      "constant": true,
      "inputs": [],
      "name": "name",
      "outputs": [
        {
          "name": "",
          "type": "string"
        }
      ],
      "payable": false,
      "stateMutability": "view",
      "type": "function"
    },
    {
      "constant": true,
      "inputs": [],
      "name": "mintAgent",
      "outputs": [
        {
          "name": "",
          "type": "address"
        }
      ],
      "payable": false,
      "stateMutability": "view",
      "type": "function"
    },
    {
      "constant": false,
      "inputs": [
        {
          "name": "_user",
          "type": "address"
        }
      ],
      "name": "addBlackList",
      "outputs": [],
      "payable": false,
      "stateMutability": "nonpayable",
      "type": "function"
    },
    {
      "constant": true,
      "inputs": [],
      "name": "totalSupply",
      "outputs": [
        {
          "name": "",
          "type": "uint256"
        }
      ],
      "payable": false,
      "stateMutability": "view",
      "type": "function"
    },
    {
      "constant": true,
      "inputs": [],
      "name": "DECIMALS",
      "outputs": [
        {
          "name": "",
          "type": "uint8"
        }
      ],
      "payable": false,
      "stateMutability": "view",
      "type": "function"
    },
    {
      "constant": true,
      "inputs": [],
      "name": "INITIAL_SUPPLY",
      "outputs": [
        {
          "name": "",
          "type": "uint256"
        }
      ],
      "payable": false,
      "stateMutability": "view",
      "type": "function"
    },
    {
      "constant": true,
      "inputs": [],
      "name": "decimals",
      "outputs": [
        {
          "name": "",
          "type": "uint8"
        }
      ],
      "payable": false,
      "stateMutability": "view",
      "type": "function"
    },
    {
      "constant": false,
      "inputs": [],
      "name": "unpause",
      "outputs": [],
      "payable": false,
      "stateMutability": "nonpayable",
      "type": "function"
    },
    {
      "constant": false,
      "inputs": [
        {
          "name": "value",
          "type": "uint256"
        }
      ],
      "name": "burn",
      "outputs": [],
      "payable": false,
      "stateMutability": "nonpayable",
      "type": "function"
    },
    {
      "constant": true,
      "inputs": [
        {
          "name": "account",
          "type": "address"
        }
      ],
      "name": "isPauser",
      "outputs": [
        {
          "name": "",
          "type": "bool"
        }
      ],
      "payable": false,
      "stateMutability": "view",
      "type": "function"
    },
    {
      "constant": true,
      "inputs": [],
      "name": "paused",
      "outputs": [
        {
          "name": "",
          "type": "bool"
        }
      ],
      "payable": false,
      "stateMutability": "view",
      "type": "function"
    },
    {
      "constant": false,
      "inputs": [],
      "name": "renouncePauser",
      "outputs": [],
      "payable": false,
      "stateMutability": "nonpayable",
      "type": "function"
    },
    {
      "constant": true,
      "inputs": [
        {
          "name": "owner",
          "type": "address"
        }
      ],
      "name": "balanceOf",
      "outputs": [
        {
          "name": "",
          "type": "uint256"
        }
      ],
      "payable": false,
      "stateMutability": "view",
      "type": "function"
    },
    {
      "constant": false,
      "inputs": [],
      "name": "renounceOwnership",
      "outputs": [],
      "payable": false,
      "stateMutability": "nonpayable",
      "type": "function"
    },
    {
      "constant": false,
      "inputs": [
        {
          "name": "from",
          "type": "address"
        },
        {
          "name": "value",
          "type": "uint256"
        }
      ],
      "name": "burnFrom",
      "outputs": [],
      "payable": false,
      "stateMutability": "nonpayable",
      "type": "function"
    },
    {
      "constant": false,
      "inputs": [
        {
          "name": "account",
          "type": "address"
        }
      ],
      "name": "addPauser",
      "outputs": [],
      "payable": false,
      "stateMutability": "nonpayable",
      "type": "function"
    },
    {
      "constant": true,
      "inputs": [],
      "name": "migrationAgent",
      "outputs": [
        {
          "name": "",
          "type": "address"
        }
      ],
      "payable": false,
      "stateMutability": "view",
      "type": "function"
    },
    {
      "constant": false,
      "inputs": [],
      "name": "pause",
      "outputs": [],
      "payable": false,
      "stateMutability": "nonpayable",
      "type": "function"
    },
    {
      "constant": true,
      "inputs": [],
      "name": "owner",
      "outputs": [
        {
          "name": "",
          "type": "address"
        }
      ],
      "payable": false,
      "stateMutability": "view",
      "type": "function"
    },
    {
      "constant": true,
      "inputs": [],
      "name": "isOwner",
      "outputs": [
        {
          "name": "",
          "type": "bool"
        }
      ],
      "payable": false,
      "stateMutability": "view",
      "type": "function"
    },
    {
      "constant": true,
      "inputs": [],
      "name": "totalMigrated",
      "outputs": [
        {
          "name": "",
          "type": "uint256"
        }
      ],
      "payable": false,
      "stateMutability": "view",
      "type": "function"
    },
    {
      "constant": true,
      "inputs": [],
      "name": "symbol",
      "outputs": [
        {
          "name": "",
          "type": "string"
        }
      ],
      "payable": false,
      "stateMutability": "view",
      "type": "function"
    },
    {
      "constant": false,
      "inputs": [
        {
          "name": "account",
          "type": "address"
        }
      ],
      "name": "addMinter",
      "outputs": [],
      "payable": false,
      "stateMutability": "nonpayable",
      "type": "function"
    },
    {
      "constant": false,
      "inputs": [],
      "name": "renounceMinter",
      "outputs": [],
      "payable": false,
      "stateMutability": "nonpayable",
      "type": "function"
    },
    {
      "constant": true,
      "inputs": [
        {
          "name": "account",
          "type": "address"
        }
      ],
      "name": "isMinter",
      "outputs": [
        {
          "name": "",
          "type": "bool"
        }
      ],
      "payable": false,
      "stateMutability": "view",
      "type": "function"
    },
    {
      "constant": true,
      "inputs": [
        {
          "name": "",
          "type": "uint256"
        }
      ],
      "name": "mintedYears",
      "outputs": [
        {
          "name": "",
          "type": "bool"
        }
      ],
      "payable": false,
      "stateMutability": "view",
      "type": "function"
    },
    {
      "constant": true,
      "inputs": [],
      "name": "ONE_YEAR_SUPPLY",
      "outputs": [
        {
          "name": "",
          "type": "uint256"
        }
      ],
      "payable": false,
      "stateMutability": "view",
      "type": "function"
    },
    {
      "constant": true,
      "inputs": [
        {
          "name": "owner",
          "type": "address"
        },
        {
          "name": "spender",
          "type": "address"
        }
      ],
      "name": "allowance",
      "outputs": [
        {
          "name": "",
          "type": "uint256"
        }
      ],
      "payable": false,
      "stateMutability": "view",
      "type": "function"
    },
    {
      "constant": false,
      "inputs": [
        {
          "name": "_user",
          "type": "address"
        }
      ],
      "name": "removeBlackList",
      "outputs": [],
      "payable": false,
      "stateMutability": "nonpayable",
      "type": "function"
    },
    {
      "constant": false,
      "inputs": [
        {
          "name": "newOwner",
          "type": "address"
        }
      ],
      "name": "transferOwnership",
      "outputs": [],
      "payable": false,
      "stateMutability": "nonpayable",
      "type": "function"
    },
    {
      "constant": true,
      "inputs": [
        {
          "name": "",
          "type": "address"
        }
      ],
      "name": "blacklist",
      "outputs": [
        {
          "name": "",
          "type": "bool"
        }
      ],
      "payable": false,
      "stateMutability": "view",
      "type": "function"
    },
    {
      "constant": true,
      "inputs": [
        {
          "name": "_user",
          "type": "address"
        }
      ],
      "name": "isBlacklisted",
      "outputs": [
        {
          "name": "",
          "type": "bool"
        }
      ],
      "payable": false,
      "stateMutability": "view",
      "type": "function"
    },
    {
      "inputs": [],
      "payable": false,
      "stateMutability": "nonpayable",
      "type": "constructor"
    },
    {
      "anonymous": false,
      "inputs": [
        {
          "indexed": true,
          "name": "from",
          "type": "address"
        },
        {
          "indexed": true,
          "name": "to",
          "type": "address"
        },
        {
          "indexed": false,
          "name": "value",
          "type": "uint256"
        }
      ],
      "name": "Migrate",
      "type": "event"
    },
    {
      "anonymous": false,
      "inputs": [
        {
          "indexed": true,
          "name": "mintAgent",
          "type": "address"
        }
      ],
      "name": "MintAgentSet",
      "type": "event"
    },
    {
      "anonymous": false,
      "inputs": [
        {
          "indexed": true,
          "name": "migrationAgent",
          "type": "address"
        }
      ],
      "name": "MigrationAgentSet",
      "type": "event"
    },
    {
      "anonymous": false,
      "inputs": [
        {
          "indexed": true,
          "name": "from",
          "type": "address"
        },
        {
          "indexed": false,
          "name": "value",
          "type": "uint256"
        }
      ],
      "name": "BlacklistedFundsBurned",
      "type": "event"
    },
    {
      "anonymous": false,
      "inputs": [
        {
          "indexed": false,
          "name": "user",
          "type": "address"
        }
      ],
      "name": "AddedBlackList",
      "type": "event"
    },
    {
      "anonymous": false,
      "inputs": [
        {
          "indexed": false,
          "name": "user",
          "type": "address"
        }
      ],
      "name": "RemovedBlackList",
      "type": "event"
    },
    {
      "anonymous": false,
      "inputs": [
        {
          "indexed": true,
          "name": "account",
          "type": "address"
        }
      ],
      "name": "MinterAdded",
      "type": "event"
    },
    {
      "anonymous": false,
      "inputs": [
        {
          "indexed": true,
          "name": "account",
          "type": "address"
        }
      ],
      "name": "MinterRemoved",
      "type": "event"
    },
    {
      "anonymous": false,
      "inputs": [
        {
          "indexed": true,
          "name": "previousOwner",
          "type": "address"
        },
        {
          "indexed": true,
          "name": "newOwner",
          "type": "address"
        }
      ],
      "name": "OwnershipTransferred",
      "type": "event"
    },
    {
      "anonymous": false,
      "inputs": [
        {
          "indexed": true,
          "name": "from",
          "type": "address"
        },
        {
          "indexed": true,
          "name": "to",
          "type": "address"
        },
        {
          "indexed": false,
          "name": "value",
          "type": "uint256"
        }
      ],
      "name": "Transfer",
      "type": "event"
    },
    {
      "anonymous": false,
      "inputs": [
        {
          "indexed": true,
          "name": "owner",
          "type": "address"
        },
        {
          "indexed": true,
          "name": "spender",
          "type": "address"
        },
        {
          "indexed": false,
          "name": "value",
          "type": "uint256"
        }
      ],
      "name": "Approval",
      "type": "event"
    },
    {
      "anonymous": false,
      "inputs": [
        {
          "indexed": false,
          "name": "account",
          "type": "address"
        }
      ],
      "name": "Paused",
      "type": "event"
    },
    {
      "anonymous": false,
      "inputs": [
        {
          "indexed": false,
          "name": "account",
          "type": "address"
        }
      ],
      "name": "Unpaused",
      "type": "event"
    },
    {
      "anonymous": false,
      "inputs": [
        {
          "indexed": true,
          "name": "account",
          "type": "address"
        }
      ],
      "name": "PauserAdded",
      "type": "event"
    },
    {
      "anonymous": false,
      "inputs": [
        {
          "indexed": true,
          "name": "account",
          "type": "address"
        }
      ],
      "name": "PauserRemoved",
      "type": "event"
    },
    {
      "constant": false,
      "inputs": [],
      "name": "mint",
      "outputs": [
        {
          "name": "",
          "type": "bool"
        }
      ],
      "payable": false,
      "stateMutability": "nonpayable",
      "type": "function"
    },
    {
      "constant": false,
      "inputs": [
        {
          "name": "to",
          "type": "address"
        },
        {
          "name": "value",
          "type": "uint256"
        }
      ],
      "name": "mint",
      "outputs": [
        {
          "name": "",
          "type": "bool"
        }
      ],
      "payable": false,
      "stateMutability": "nonpayable",
      "type": "function"
    },
    {
      "constant": false,
      "inputs": [
        {
          "name": "_mintAgent",
          "type": "address"
        }
      ],
      "name": "setMintContract",
      "outputs": [],
      "payable": false,
      "stateMutability": "nonpayable",
      "type": "function"
    },
    {
      "constant": false,
      "inputs": [
        {
          "name": "_value",
          "type": "uint256"
        }
      ],
      "name": "migrate",
      "outputs": [],
      "payable": false,
      "stateMutability": "nonpayable",
      "type": "function"
    },
    {
      "constant": false,
      "inputs": [
        {
          "name": "_agent",
          "type": "address"
        }
      ],
      "name": "setMigrationAgent",
      "outputs": [],
      "payable": false,
      "stateMutability": "nonpayable",
      "type": "function"
    },
    {
      "constant": false,
      "inputs": [
        {
          "name": "_blacklistedUser",
          "type": "address"
        }
      ],
      "name": "burnBlacklistedFunds",
      "outputs": [],
      "payable": false,
      "stateMutability": "nonpayable",
      "type": "function"
    },
    {
      "constant": false,
      "inputs": [
        {
          "name": "to",
          "type": "address"
        },
        {
          "name": "value",
          "type": "uint256"
        }
      ],
      "name": "transfer",
      "outputs": [
        {
          "name": "",
          "type": "bool"
        }
      ],
      "payable": false,
      "stateMutability": "nonpayable",
      "type": "function"
    },
    {
      "constant": false,
      "inputs": [
        {
          "name": "from",
          "type": "address"
        },
        {
          "name": "to",
          "type": "address"
        },
        {
          "name": "value",
          "type": "uint256"
        }
      ],
      "name": "transferFrom",
      "outputs": [
        {
          "name": "",
          "type": "bool"
        }
      ],
      "payable": false,
      "stateMutability": "nonpayable",
      "type": "function"
    },
    {
      "constant": false,
      "inputs": [
        {
          "name": "spender",
          "type": "address"
        },
        {
          "name": "value",
          "type": "uint256"
        }
      ],
      "name": "approve",
      "outputs": [
        {
          "name": "",
          "type": "bool"
        }
      ],
      "payable": false,
      "stateMutability": "nonpayable",
      "type": "function"
    },
    {
      "constant": false,
      "inputs": [
        {
          "name": "spender",
          "type": "address"
        },
        {
          "name": "addedValue",
          "type": "uint256"
        }
      ],
      "name": "increaseAllowance",
      "outputs": [
        {
          "name": "success",
          "type": "bool"
        }
      ],
      "payable": false,
      "stateMutability": "nonpayable",
      "type": "function"
    },
    {
      "constant": false,
      "inputs": [
        {
          "name": "spender",
          "type": "address"
        },
        {
          "name": "subtractedValue",
          "type": "uint256"
        }
      ],
      "name": "decreaseAllowance",
      "outputs": [
        {
          "name": "success",
          "type": "bool"
        }
      ],
      "payable": false,
      "stateMutability": "nonpayable",
      "type": "function"
    }
  ],
  "bytecode": "0x60806040523480156200001157600080fd5b506040805190810160405280600a81526020017f4175646974636861696e000000000000000000000000000000000000000000008152506040805190810160405280600481526020017f415544540000000000000000000000000000000000000000000000000000000081525060126200009a33620002f4640100000000026401000000009004565b6000600160006101000a81548160ff0219169083151502179055508260029080519060200190620000cd92919062000733565b508160039080519060200190620000e692919062000733565b5080600460006101000a81548160ff021916908360ff16021790555050505033600860006101000a81548173ffffffffffffffffffffffffffffffffffffffff021916908373ffffffffffffffffffffffffffffffffffffffff160217905550600860009054906101000a900473ffffffffffffffffffffffffffffffffffffffff1673ffffffffffffffffffffffffffffffffffffffff16600073ffffffffffffffffffffffffffffffffffffffff167f8be0079c531659141344cd1fd0a4f28419497f9722a3daafe3b4186f6b6457e060405160405180910390a3620001dd336200035e640100000000026401000000009004565b6200021333601260ff16600a0a62bebc2002601260ff16600a0a630ee6b2800201620003c8640100000000026401000000009004565b506001600e60004273__DateTime______________________________6392d6631390916040518263ffffffff167c01000000000000000000000000000000000000000000000000000000000281526004018082815260200191505060206040518083038186803b1580156200028857600080fd5b505af41580156200029d573d6000803e3d6000fd5b505050506040513d6020811015620002b457600080fd5b810190808051906020019092919050505061ffff16815260200190815260200160002060006101000a81548160ff021916908315150217905550620007e2565b620003188160006200041564010000000002620037cd179091906401000000009004565b8073ffffffffffffffffffffffffffffffffffffffff167f6719d08c1888103bea251a4ed56406bd0c3e69723c8a1686e017e7bbe159b6f860405160405180910390a250565b620003828160096200041564010000000002620037cd179091906401000000009004565b8073ffffffffffffffffffffffffffffffffffffffff167f6ae172837ea30b801fbfcdd4108aa1d5bf8ff775444fd70256b44e6bf3dfc3f660405160405180910390a250565b6000620003e433620004d8640100000000026401000000009004565b1515620003f057600080fd5b6200040b838362000505640100000000026401000000009004565b6001905092915050565b600073ffffffffffffffffffffffffffffffffffffffff168173ffffffffffffffffffffffffffffffffffffffff16141515156200045257600080fd5b6200046d82826200067c640100000000026401000000009004565b1515156200047a57600080fd5b60018260000160008373ffffffffffffffffffffffffffffffffffffffff1673ffffffffffffffffffffffffffffffffffffffff16815260200190815260200160002060006101000a81548160ff0219169083151502179055505050565b6000620004fe8260096200067c6401000000000262002f4d179091906401000000009004565b9050919050565b600073ffffffffffffffffffffffffffffffffffffffff168273ffffffffffffffffffffffffffffffffffffffff16141515156200054257600080fd5b62000567816007546200071164010000000002620036fd179091906401000000009004565b600781905550620005cf81600560008573ffffffffffffffffffffffffffffffffffffffff1673ffffffffffffffffffffffffffffffffffffffff168152602001908152602001600020546200071164010000000002620036fd179091906401000000009004565b600560008473ffffffffffffffffffffffffffffffffffffffff1673ffffffffffffffffffffffffffffffffffffffff168152602001908152602001600020819055508173ffffffffffffffffffffffffffffffffffffffff16600073ffffffffffffffffffffffffffffffffffffffff167fddf252ad1be2c89b69c2b068fc378daa952ba7f163c4a11628f55a4df523b3ef836040518082815260200191505060405180910390a35050565b60008073ffffffffffffffffffffffffffffffffffffffff168273ffffffffffffffffffffffffffffffffffffffff1614151515620006ba57600080fd5b8260000160008373ffffffffffffffffffffffffffffffffffffffff1673ffffffffffffffffffffffffffffffffffffffff16815260200190815260200160002060009054906101000a900460ff16905092915050565b60008082840190508381101515156200072957600080fd5b8091505092915050565b828054600181600116156101000203166002900490600052602060002090601f016020900481019282601f106200077657805160ff1916838001178555620007a7565b82800160010185558215620007a7579182015b82811115620007a657825182559160200191906001019062000789565b5b509050620007b69190620007ba565b5090565b620007df91905b80821115620007db576000816000905550600101620007c1565b5090565b90565b61392c80620007f26000396000f3fe608060405234801561001057600080fd5b5060043610610286576000357c010000000000000000000000000000000000000000000000000000000090048063715018a61161016e57806398650275116100e0578063d0dafd8e116100a4578063d0dafd8e14610bc5578063dd62ed3e14610be3578063e4997dc514610c5b578063f2fde38b14610c9f578063f9f92be414610ce3578063fe575a8714610d3f57610286565b80639865027514610a4d578063a457c2d714610a57578063a9059cbb14610abd578063aa271e1a14610b23578063d0abed2114610b7f57610286565b80638456cb59116101325780638456cb59146108f25780638da5cb5b146108fc5780638f32d59b1461094657806395a0f5eb1461096857806395d89b4114610986578063983b2d5614610a0957610286565b8063715018a6146107c857806375e2ff65146107d257806379cc67901461081657806382dc1ec4146108645780638328dbcd146108a857610286565b8063313ce56711610207578063454b0608116101cb578063454b06081461067657806346fbf68e146106a45780635c975abb146107005780635fb64a6a146107225780636ef8d66d1461076657806370a082311461077057610286565b8063313ce5671461054e57806339509351146105725780633f4ba83a146105d857806340c10f19146105e257806342966c681461064857610286565b80631249c58b1161024e5780631249c58b1461044657806318160ddd1461046857806323b872dd146104865780632e0f26251461050c5780632ff2e9dc1461053057610286565b806306fdde031461028b578063095ea7b31461030e5780630d3737b0146103745780630ecb93c0146103be578063114f4c9b14610402575b600080fd5b610293610d9b565b6040518080602001828103825283818151815260200191508051906020019080838360005b838110156102d35780820151818401526020810190506102b8565b50505050905090810190601f1680156103005780820380516001836020036101000a031916815260200191505b509250505060405180910390f35b61035a6004803603604081101561032457600080fd5b81019080803573ffffffffffffffffffffffffffffffffffffffff16906020019092919080359060200190929190505050610e3d565b604051808215151515815260200191505060405180910390f35b61037c611062565b604051808273ffffffffffffffffffffffffffffffffffffffff1673ffffffffffffffffffffffffffffffffffffffff16815260200191505060405180910390f35b610400600480360360208110156103d457600080fd5b81019080803573ffffffffffffffffffffffffffffffffffffffff169060200190929190505050611088565b005b6104446004803603602081101561041857600080fd5b81019080803573ffffffffffffffffffffffffffffffffffffffff169060200190929190505050611159565b005b61044e611296565b604051808215151515815260200191505060405180910390f35b6104706115ae565b6040518082815260200191505060405180910390f35b6104f26004803603606081101561049c57600080fd5b81019080803573ffffffffffffffffffffffffffffffffffffffff169060200190929190803573ffffffffffffffffffffffffffffffffffffffff169060200190929190803590602001909291905050506115b8565b604051808215151515815260200191505060405180910390f35b6105146117df565b604051808260ff1660ff16815260200191505060405180910390f35b6105386117e4565b6040518082815260200191505060405180910390f35b6105566117f5565b604051808260ff1660ff16815260200191505060405180910390f35b6105be6004803603604081101561058857600080fd5b81019080803573ffffffffffffffffffffffffffffffffffffffff1690602001909291908035906020019092919050505061180c565b604051808215151515815260200191505060405180910390f35b6105e0611a31565b005b61062e600480360360408110156105f857600080fd5b81019080803573ffffffffffffffffffffffffffffffffffffffff16906020019092919080359060200190929190505050611ae0565b604051808215151515815260200191505060405180910390f35b6106746004803603602081101561065e57600080fd5b8101908080359060200190929190505050611b0a565b005b6106a26004803603602081101561068c57600080fd5b8101908080359060200190929190505050611b17565b005b6106e6600480360360208110156106ba57600080fd5b81019080803573ffffffffffffffffffffffffffffffffffffffff169060200190929190505050611e5d565b604051808215151515815260200191505060405180910390f35b610708611e7a565b604051808215151515815260200191505060405180910390f35b6107646004803603602081101561073857600080fd5b81019080803573ffffffffffffffffffffffffffffffffffffffff169060200190929190505050611e91565b005b61076e611fd0565b005b6107b26004803603602081101561078657600080fd5b81019080803573ffffffffffffffffffffffffffffffffffffffff169060200190929190505050611fdb565b6040518082815260200191505060405180910390f35b6107d0612024565b005b610814600480360360208110156107e857600080fd5b81019080803573ffffffffffffffffffffffffffffffffffffffff1690602001909291905050506120f8565b005b6108626004803603604081101561082c57600080fd5b81019080803573ffffffffffffffffffffffffffffffffffffffff16906020019092919080359060200190929190505050612258565b005b6108a66004803603602081101561087a57600080fd5b81019080803573ffffffffffffffffffffffffffffffffffffffff169060200190929190505050612266565b005b6108b0612286565b604051808273ffffffffffffffffffffffffffffffffffffffff1673ffffffffffffffffffffffffffffffffffffffff16815260200191505060405180910390f35b6108fa6122ac565b005b61090461235b565b604051808273ffffffffffffffffffffffffffffffffffffffff1673ffffffffffffffffffffffffffffffffffffffff16815260200191505060405180910390f35b61094e612385565b604051808215151515815260200191505060405180910390f35b6109706123dd565b6040518082815260200191505060405180910390f35b61098e6123e3565b6040518080602001828103825283818151815260200191508051906020019080838360005b838110156109ce5780820151818401526020810190506109b3565b50505050905090810190601f1680156109fb5780820380516001836020036101000a031916815260200191505b509250505060405180910390f35b610a4b60048036036020811015610a1f57600080fd5b81019080803573ffffffffffffffffffffffffffffffffffffffff169060200190929190505050612485565b005b610a556124a5565b005b610aa360048036036040811015610a6d57600080fd5b81019080803573ffffffffffffffffffffffffffffffffffffffff169060200190929190803590602001909291905050506124b0565b604051808215151515815260200191505060405180910390f35b610b0960048036036040811015610ad357600080fd5b81019080803573ffffffffffffffffffffffffffffffffffffffff169060200190929190803590602001909291905050506126d5565b604051808215151515815260200191505060405180910390f35b610b6560048036036020811015610b3957600080fd5b81019080803573ffffffffffffffffffffffffffffffffffffffff1690602001909291905050506128fa565b604051808215151515815260200191505060405180910390f35b610bab60048036036020811015610b9557600080fd5b8101908080359060200190929190505050612917565b604051808215151515815260200191505060405180910390f35b610bcd612937565b6040518082815260200191505060405180910390f35b610c4560048036036040811015610bf957600080fd5b81019080803573ffffffffffffffffffffffffffffffffffffffff169060200190929190803573ffffffffffffffffffffffffffffffffffffffff169060200190929190505050612947565b6040518082815260200191505060405180910390f35b610c9d60048036036020811015610c7157600080fd5b81019080803573ffffffffffffffffffffffffffffffffffffffff1690602001909291905050506129ce565b005b610ce160048036036020811015610cb557600080fd5b81019080803573ffffffffffffffffffffffffffffffffffffffff169060200190929190505050612a9f565b005b610d2560048036036020811015610cf957600080fd5b81019080803573ffffffffffffffffffffffffffffffffffffffff169060200190929190505050612abe565b604051808215151515815260200191505060405180910390f35b610d8160048036036020811015610d5557600080fd5b81019080803573ffffffffffffffffffffffffffffffffffffffff169060200190929190505050612ade565b604051808215151515815260200191505060405180910390f35b606060028054600181600116156101000203166002900480601f016020809104026020016040519081016040528092919081815260200182805460018160011615610100020316600290048015610e335780601f10610e0857610100808354040283529160200191610e33565b820191906000526020600020905b815481529060010190602001808311610e1657829003601f168201915b5050505050905090565b60003383600a60008373ffffffffffffffffffffffffffffffffffffffff1673ffffffffffffffffffffffffffffffffffffffff16815260200190815260200160002060009054906101000a900460ff16151515610f03576040517f08c379a00000000000000000000000000000000000000000000000000000000081526004018080602001828103825260138152602001807f5573657220697320626c61636b6c69737465640000000000000000000000000081525060200191505060405180910390fd5b600a60008273ffffffffffffffffffffffffffffffffffffffff1673ffffffffffffffffffffffffffffffffffffffff16815260200190815260200160002060009054906101000a900460ff16151515610fc5576040517f08c379a00000000000000000000000000000000000000000000000000000000081526004018080602001828103825260138152602001807f5573657220697320626c61636b6c69737465640000000000000000000000000081525060200191505060405180910390fd5b843073ffffffffffffffffffffffffffffffffffffffff168173ffffffffffffffffffffffffffffffffffffffff161415151561104d576040517f08c379a000000000000000000000000000000000000000000000000000000000815260040180806020018281038252602f81526020018061387e602f913960400191505060405180910390fd5b6110578686612b34565b935050505092915050565b600d60009054906101000a900473ffffffffffffffffffffffffffffffffffffffff1681565b611090612385565b151561109b57600080fd5b6001600a60008373ffffffffffffffffffffffffffffffffffffffff1673ffffffffffffffffffffffffffffffffffffffff16815260200190815260200160002060006101000a81548160ff0219169083151502179055507f42e160154868087d6bfdc0ca23d96a1c1cfa32f1b72ba9ba27b69b98a0d819dc81604051808273ffffffffffffffffffffffffffffffffffffffff1673ffffffffffffffffffffffffffffffffffffffff16815260200191505060405180910390a150565b611161612385565b151561116c57600080fd5b600a60008273ffffffffffffffffffffffffffffffffffffffff1673ffffffffffffffffffffffffffffffffffffffff16815260200190815260200160002060009054906101000a900460ff16151561122d576040517f08c379a000000000000000000000000000000000000000000000000000000000815260040180806020018281038252601d8152602001807f54686573652075736572206973206e6f7420626c61636b6c697374656400000081525060200191505060405180910390fd5b600061123882611fdb565b90506112448282612b4b565b8173ffffffffffffffffffffffffffffffffffffffff167f6997c1eb6d174422311abab65d096f8a4ad1131a5aeb66e15269b2af0d965bc8826040518082815260200191505060405180910390a25050565b60006112a1336128fa565b15156112ac57600080fd5b600073ffffffffffffffffffffffffffffffffffffffff16600d60009054906101000a900473ffffffffffffffffffffffffffffffffffffffff1673ffffffffffffffffffffffffffffffffffffffff1614151515611373576040517f08c379a000000000000000000000000000000000000000000000000000000000815260040180806020018281038252601d8152602001807f4d696e74206167656e7420616464726573732063616e2774206265203000000081525060200191505060405180910390fd5b600e60004273__DateTime______________________________6392d6631390916040518263ffffffff167c01000000000000000000000000000000000000000000000000000000000281526004018082815260200191505060206040518083038186803b1580156113e457600080fd5b505af41580156113f8573d6000803e3d6000fd5b505050506040513d602081101561140e57600080fd5b810190808051906020019092919050505061ffff16815260200190815260200160002060009054906101000a900460ff16151515611497576040517f08c379a000000000000000000000000000000000000000000000000000000000815260040180806020018281038252602e8152602001806138d3602e913960400191505060405180910390fd5b6114cf600d60009054906101000a900473ffffffffffffffffffffffffffffffffffffffff16601260ff16600a0a62bebc2002611ae0565b506001600e60004273__DateTime______________________________6392d6631390916040518263ffffffff167c01000000000000000000000000000000000000000000000000000000000281526004018082815260200191505060206040518083038186803b15801561154357600080fd5b505af4158015611557573d6000803e3d6000fd5b505050506040513d602081101561156d57600080fd5b810190808051906020019092919050505061ffff16815260200190815260200160002060006101000a81548160ff0219169083151502179055506001905090565b6000600754905090565b60008383600a60008373ffffffffffffffffffffffffffffffffffffffff1673ffffffffffffffffffffffffffffffffffffffff16815260200190815260200160002060009054906101000a900460ff1615151561167e576040517f08c379a00000000000000000000000000000000000000000000000000000000081526004018080602001828103825260138152602001807f5573657220697320626c61636b6c69737465640000000000000000000000000081525060200191505060405180910390fd5b600a60008273ffffffffffffffffffffffffffffffffffffffff1673ffffffffffffffffffffffffffffffffffffffff16815260200190815260200160002060009054906101000a900460ff16151515611740576040517f08c379a00000000000000000000000000000000000000000000000000000000081526004018080602001828103825260138152602001807f5573657220697320626c61636b6c69737465640000000000000000000000000081525060200191505060405180910390fd5b843073ffffffffffffffffffffffffffffffffffffffff168173ffffffffffffffffffffffffffffffffffffffff16141515156117c8576040517f08c379a000000000000000000000000000000000000000000000000000000000815260040180806020018281038252602f81526020018061387e602f913960400191505060405180910390fd5b6117d3878787612ca1565b93505050509392505050565b601281565b601260ff16600a0a630ee6b2800281565b6000600460009054906101000a900460ff16905090565b60003383600a60008373ffffffffffffffffffffffffffffffffffffffff1673ffffffffffffffffffffffffffffffffffffffff16815260200190815260200160002060009054906101000a900460ff161515156118d2576040517f08c379a00000000000000000000000000000000000000000000000000000000081526004018080602001828103825260138152602001807f5573657220697320626c61636b6c69737465640000000000000000000000000081525060200191505060405180910390fd5b600a60008273ffffffffffffffffffffffffffffffffffffffff1673ffffffffffffffffffffffffffffffffffffffff16815260200190815260200160002060009054906101000a900460ff16151515611994576040517f08c379a00000000000000000000000000000000000000000000000000000000081526004018080602001828103825260138152602001807f5573657220697320626c61636b6c69737465640000000000000000000000000081525060200191505060405180910390fd5b843073ffffffffffffffffffffffffffffffffffffffff168173ffffffffffffffffffffffffffffffffffffffff1614151515611a1c576040517f08c379a000000000000000000000000000000000000000000000000000000000815260040180806020018281038252602f81526020018061387e602f913960400191505060405180910390fd5b611a268686612d52565b935050505092915050565b611a3a33611e5d565b1515611a4557600080fd5b600160009054906101000a900460ff161515611a6057600080fd5b6000600160006101000a81548160ff0219169083151502179055507f5db9ee0a495bf2e6ff9c91a7834c1ba4fdd244a5e8aa4e537bd38aeae4b073aa33604051808273ffffffffffffffffffffffffffffffffffffffff1673ffffffffffffffffffffffffffffffffffffffff16815260200191505060405180910390a1565b6000611aeb336128fa565b1515611af657600080fd5b611b008383612df7565b6001905092915050565b611b143382612b4b565b50565b600160009054906101000a900460ff16151515611b3357600080fd5b600073ffffffffffffffffffffffffffffffffffffffff16600b60009054906101000a900473ffffffffffffffffffffffffffffffffffffffff1673ffffffffffffffffffffffffffffffffffffffff1614151515611bfa576040517f08c379a000000000000000000000000000000000000000000000000000000000815260040180806020018281038252601d8152602001807f456e746572206d6967726174696f6e206167656e74206164647265737300000081525060200191505060405180910390fd5b600081111515611c72576040517f08c379a000000000000000000000000000000000000000000000000000000000815260040180806020018281038252601c8152602001807f416d6f756e74206f6620746f6b656e732069732072657175697265640000000081525060200191505060405180910390fd5b611c7b33611fdb565b8111151515611cd5576040517f08c379a00000000000000000000000000000000000000000000000000000000081526004018080602001828103825260268152602001806138ad6026913960400191505060405180910390fd5b611ce6611ce133611fdb565b611b0a565b80600c60008282540192505081905550600b60009054906101000a900473ffffffffffffffffffffffffffffffffffffffff1673ffffffffffffffffffffffffffffffffffffffff16637a3130e333836040518363ffffffff167c0100000000000000000000000000000000000000000000000000000000028152600401808373ffffffffffffffffffffffffffffffffffffffff1673ffffffffffffffffffffffffffffffffffffffff16815260200182815260200192505050600060405180830381600087803b158015611dbb57600080fd5b505af1158015611dcf573d6000803e3d6000fd5b50505050600b60009054906101000a900473ffffffffffffffffffffffffffffffffffffffff1673ffffffffffffffffffffffffffffffffffffffff163373ffffffffffffffffffffffffffffffffffffffff167f18df02dcc52b9c494f391df09661519c0069bd8540141946280399408205ca1a836040518082815260200191505060405180910390a350565b6000611e73826000612f4d90919063ffffffff16565b9050919050565b6000600160009054906101000a900460ff16905090565b611e99612385565b1515611ea457600080fd5b600073ffffffffffffffffffffffffffffffffffffffff168173ffffffffffffffffffffffffffffffffffffffff1614151515611f49576040517f08c379a000000000000000000000000000000000000000000000000000000000815260040180806020018281038252601d8152602001807f4d696e74206167656e7420616464726573732063616e2774206265203000000081525060200191505060405180910390fd5b80600d60006101000a81548173ffffffffffffffffffffffffffffffffffffffff021916908373ffffffffffffffffffffffffffffffffffffffff1602179055508073ffffffffffffffffffffffffffffffffffffffff167fcea475dd5b51b9b5218c64ef560247c5b741ba24ddb1ad2fca98056f199518cc60405160405180910390a250565b611fd933612fe1565b565b6000600560008373ffffffffffffffffffffffffffffffffffffffff1673ffffffffffffffffffffffffffffffffffffffff168152602001908152602001600020549050919050565b61202c612385565b151561203757600080fd5b600073ffffffffffffffffffffffffffffffffffffffff16600860009054906101000a900473ffffffffffffffffffffffffffffffffffffffff1673ffffffffffffffffffffffffffffffffffffffff167f8be0079c531659141344cd1fd0a4f28419497f9722a3daafe3b4186f6b6457e060405160405180910390a36000600860006101000a81548173ffffffffffffffffffffffffffffffffffffffff021916908373ffffffffffffffffffffffffffffffffffffffff160217905550565b612100612385565b151561210b57600080fd5b600073ffffffffffffffffffffffffffffffffffffffff16600b60009054906101000a900473ffffffffffffffffffffffffffffffffffffffff1673ffffffffffffffffffffffffffffffffffffffff161415156121d1576040517f08c379a000000000000000000000000000000000000000000000000000000000815260040180806020018281038252601a8152602001807f4d6967726174696f6e206167656e742063616e2774206265203000000000000081525060200191505060405180910390fd5b80600b60006101000a81548173ffffffffffffffffffffffffffffffffffffffff021916908373ffffffffffffffffffffffffffffffffffffffff1602179055508073ffffffffffffffffffffffffffffffffffffffff167f53002f2ca3e2737f3405e7f734101551690f8426e082167285f3caa8e6c6a18260405160405180910390a250565b612262828261303b565b5050565b61226f33611e5d565b151561227a57600080fd5b612283816130e2565b50565b600b60009054906101000a900473ffffffffffffffffffffffffffffffffffffffff1681565b6122b533611e5d565b15156122c057600080fd5b600160009054906101000a900460ff161515156122dc57600080fd5b60018060006101000a81548160ff0219169083151502179055507f62e78cea01bee320cd4e420270b5ea74000d11b0c9f74754ebdbfc544b05a25833604051808273ffffffffffffffffffffffffffffffffffffffff1673ffffffffffffffffffffffffffffffffffffffff16815260200191505060405180910390a1565b6000600860009054906101000a900473ffffffffffffffffffffffffffffffffffffffff16905090565b6000600860009054906101000a900473ffffffffffffffffffffffffffffffffffffffff1673ffffffffffffffffffffffffffffffffffffffff163373ffffffffffffffffffffffffffffffffffffffff1614905090565b600c5481565b606060038054600181600116156101000203166002900480601f01602080910402602001604051908101604052809291908181526020018280546001816001161561010002031660029004801561247b5780601f106124505761010080835404028352916020019161247b565b820191906000526020600020905b81548152906001019060200180831161245e57829003601f168201915b5050505050905090565b61248e336128fa565b151561249957600080fd5b6124a28161313c565b50565b6124ae33613196565b565b60003383600a60008373ffffffffffffffffffffffffffffffffffffffff1673ffffffffffffffffffffffffffffffffffffffff16815260200190815260200160002060009054906101000a900460ff16151515612576576040517f08c379a00000000000000000000000000000000000000000000000000000000081526004018080602001828103825260138152602001807f5573657220697320626c61636b6c69737465640000000000000000000000000081525060200191505060405180910390fd5b600a60008273ffffffffffffffffffffffffffffffffffffffff1673ffffffffffffffffffffffffffffffffffffffff16815260200190815260200160002060009054906101000a900460ff16151515612638576040517f08c379a00000000000000000000000000000000000000000000000000000000081526004018080602001828103825260138152602001807f5573657220697320626c61636b6c69737465640000000000000000000000000081525060200191505060405180910390fd5b843073ffffffffffffffffffffffffffffffffffffffff168173ffffffffffffffffffffffffffffffffffffffff16141515156126c0576040517f08c379a000000000000000000000000000000000000000000000000000000000815260040180806020018281038252602f81526020018061387e602f913960400191505060405180910390fd5b6126ca86866131f0565b935050505092915050565b60003383600a60008373ffffffffffffffffffffffffffffffffffffffff1673ffffffffffffffffffffffffffffffffffffffff16815260200190815260200160002060009054906101000a900460ff1615151561279b576040517f08c379a00000000000000000000000000000000000000000000000000000000081526004018080602001828103825260138152602001807f5573657220697320626c61636b6c69737465640000000000000000000000000081525060200191505060405180910390fd5b600a60008273ffffffffffffffffffffffffffffffffffffffff1673ffffffffffffffffffffffffffffffffffffffff16815260200190815260200160002060009054906101000a900460ff1615151561285d576040517f08c379a00000000000000000000000000000000000000000000000000000000081526004018080602001828103825260138152602001807f5573657220697320626c61636b6c69737465640000000000000000000000000081525060200191505060405180910390fd5b843073ffffffffffffffffffffffffffffffffffffffff168173ffffffffffffffffffffffffffffffffffffffff16141515156128e5576040517f08c379a000000000000000000000000000000000000000000000000000000000815260040180806020018281038252602f81526020018061387e602f913960400191505060405180910390fd5b6128ef8686613295565b935050505092915050565b6000612910826009612f4d90919063ffffffff16565b9050919050565b600e6020528060005260406000206000915054906101000a900460ff1681565b601260ff16600a0a62bebc200281565b6000600660008473ffffffffffffffffffffffffffffffffffffffff1673ffffffffffffffffffffffffffffffffffffffff16815260200190815260200160002060008373ffffffffffffffffffffffffffffffffffffffff1673ffffffffffffffffffffffffffffffffffffffff16815260200190815260200160002054905092915050565b6129d6612385565b15156129e157600080fd5b6000600a60008373ffffffffffffffffffffffffffffffffffffffff1673ffffffffffffffffffffffffffffffffffffffff16815260200190815260200160002060006101000a81548160ff0219169083151502179055507fd7e9ec6e6ecd65492dce6bf513cd6867560d49544421d0783ddf06e76c24470c81604051808273ffffffffffffffffffffffffffffffffffffffff1673ffffffffffffffffffffffffffffffffffffffff16815260200191505060405180910390a150565b612aa7612385565b1515612ab257600080fd5b612abb816132ac565b50565b600a6020528060005260406000206000915054906101000a900460ff1681565b6000600a60008373ffffffffffffffffffffffffffffffffffffffff1673ffffffffffffffffffffffffffffffffffffffff16815260200190815260200160002060009054906101000a900460ff169050919050565b6000612b413384846133a8565b6001905092915050565b600073ffffffffffffffffffffffffffffffffffffffff168273ffffffffffffffffffffffffffffffffffffffff1614151515612b8757600080fd5b612b9c8160075461350b90919063ffffffff16565b600781905550612bf481600560008573ffffffffffffffffffffffffffffffffffffffff1673ffffffffffffffffffffffffffffffffffffffff1681526020019081526020016000205461350b90919063ffffffff16565b600560008473ffffffffffffffffffffffffffffffffffffffff1673ffffffffffffffffffffffffffffffffffffffff16815260200190815260200160002081905550600073ffffffffffffffffffffffffffffffffffffffff168273ffffffffffffffffffffffffffffffffffffffff167fddf252ad1be2c89b69c2b068fc378daa952ba7f163c4a11628f55a4df523b3ef836040518082815260200191505060405180910390a35050565b6000612cae84848461352d565b612d478433612d4285600660008a73ffffffffffffffffffffffffffffffffffffffff1673ffffffffffffffffffffffffffffffffffffffff16815260200190815260200160002060003373ffffffffffffffffffffffffffffffffffffffff1673ffffffffffffffffffffffffffffffffffffffff1681526020019081526020016000205461350b90919063ffffffff16565b6133a8565b600190509392505050565b6000612ded3384612de885600660003373ffffffffffffffffffffffffffffffffffffffff1673ffffffffffffffffffffffffffffffffffffffff16815260200190815260200160002060008973ffffffffffffffffffffffffffffffffffffffff1673ffffffffffffffffffffffffffffffffffffffff168152602001908152602001600020546136fd90919063ffffffff16565b6133a8565b6001905092915050565b600073ffffffffffffffffffffffffffffffffffffffff168273ffffffffffffffffffffffffffffffffffffffff1614151515612e3357600080fd5b612e48816007546136fd90919063ffffffff16565b600781905550612ea081600560008573ffffffffffffffffffffffffffffffffffffffff1673ffffffffffffffffffffffffffffffffffffffff168152602001908152602001600020546136fd90919063ffffffff16565b600560008473ffffffffffffffffffffffffffffffffffffffff1673ffffffffffffffffffffffffffffffffffffffff168152602001908152602001600020819055508173ffffffffffffffffffffffffffffffffffffffff16600073ffffffffffffffffffffffffffffffffffffffff167fddf252ad1be2c89b69c2b068fc378daa952ba7f163c4a11628f55a4df523b3ef836040518082815260200191505060405180910390a35050565b60008073ffffffffffffffffffffffffffffffffffffffff168273ffffffffffffffffffffffffffffffffffffffff1614151515612f8a57600080fd5b8260000160008373ffffffffffffffffffffffffffffffffffffffff1673ffffffffffffffffffffffffffffffffffffffff16815260200190815260200160002060009054906101000a900460ff16905092915050565b612ff581600061371e90919063ffffffff16565b8073ffffffffffffffffffffffffffffffffffffffff167fcd265ebaf09df2871cc7bd4133404a235ba12eff2041bb89d9c714a2621c7c7e60405160405180910390a250565b6130458282612b4b565b6130de82336130d984600660008873ffffffffffffffffffffffffffffffffffffffff1673ffffffffffffffffffffffffffffffffffffffff16815260200190815260200160002060003373ffffffffffffffffffffffffffffffffffffffff1673ffffffffffffffffffffffffffffffffffffffff1681526020019081526020016000205461350b90919063ffffffff16565b6133a8565b5050565b6130f68160006137cd90919063ffffffff16565b8073ffffffffffffffffffffffffffffffffffffffff167f6719d08c1888103bea251a4ed56406bd0c3e69723c8a1686e017e7bbe159b6f860405160405180910390a250565b6131508160096137cd90919063ffffffff16565b8073ffffffffffffffffffffffffffffffffffffffff167f6ae172837ea30b801fbfcdd4108aa1d5bf8ff775444fd70256b44e6bf3dfc3f660405160405180910390a250565b6131aa81600961371e90919063ffffffff16565b8073ffffffffffffffffffffffffffffffffffffffff167fe94479a9f7e1952cc78f2d6baab678adc1b772d936c6583def489e524cb6669260405160405180910390a250565b600061328b338461328685600660003373ffffffffffffffffffffffffffffffffffffffff1673ffffffffffffffffffffffffffffffffffffffff16815260200190815260200160002060008973ffffffffffffffffffffffffffffffffffffffff1673ffffffffffffffffffffffffffffffffffffffff1681526020019081526020016000205461350b90919063ffffffff16565b6133a8565b6001905092915050565b60006132a233848461352d565b6001905092915050565b600073ffffffffffffffffffffffffffffffffffffffff168173ffffffffffffffffffffffffffffffffffffffff16141515156132e857600080fd5b8073ffffffffffffffffffffffffffffffffffffffff16600860009054906101000a900473ffffffffffffffffffffffffffffffffffffffff1673ffffffffffffffffffffffffffffffffffffffff167f8be0079c531659141344cd1fd0a4f28419497f9722a3daafe3b4186f6b6457e060405160405180910390a380600860006101000a81548173ffffffffffffffffffffffffffffffffffffffff021916908373ffffffffffffffffffffffffffffffffffffffff16021790555050565b600073ffffffffffffffffffffffffffffffffffffffff168273ffffffffffffffffffffffffffffffffffffffff16141515156133e457600080fd5b600073ffffffffffffffffffffffffffffffffffffffff168373ffffffffffffffffffffffffffffffffffffffff161415151561342057600080fd5b80600660008573ffffffffffffffffffffffffffffffffffffffff1673ffffffffffffffffffffffffffffffffffffffff16815260200190815260200160002060008473ffffffffffffffffffffffffffffffffffffffff1673ffffffffffffffffffffffffffffffffffffffff168152602001908152602001600020819055508173ffffffffffffffffffffffffffffffffffffffff168373ffffffffffffffffffffffffffffffffffffffff167f8c5be1e5ebec7d5bd14f71427d1e84f3dd0314c0f7b2291e5b200ac8c7c3b925836040518082815260200191505060405180910390a3505050565b600082821115151561351c57600080fd5b600082840390508091505092915050565b600073ffffffffffffffffffffffffffffffffffffffff168273ffffffffffffffffffffffffffffffffffffffff161415151561356957600080fd5b6135bb81600560008673ffffffffffffffffffffffffffffffffffffffff1673ffffffffffffffffffffffffffffffffffffffff1681526020019081526020016000205461350b90919063ffffffff16565b600560008573ffffffffffffffffffffffffffffffffffffffff1673ffffffffffffffffffffffffffffffffffffffff1681526020019081526020016000208190555061365081600560008573ffffffffffffffffffffffffffffffffffffffff1673ffffffffffffffffffffffffffffffffffffffff168152602001908152602001600020546136fd90919063ffffffff16565b600560008473ffffffffffffffffffffffffffffffffffffffff1673ffffffffffffffffffffffffffffffffffffffff168152602001908152602001600020819055508173ffffffffffffffffffffffffffffffffffffffff168373ffffffffffffffffffffffffffffffffffffffff167fddf252ad1be2c89b69c2b068fc378daa952ba7f163c4a11628f55a4df523b3ef836040518082815260200191505060405180910390a3505050565b600080828401905083811015151561371457600080fd5b8091505092915050565b600073ffffffffffffffffffffffffffffffffffffffff168173ffffffffffffffffffffffffffffffffffffffff161415151561375a57600080fd5b6137648282612f4d565b151561376f57600080fd5b60008260000160008373ffffffffffffffffffffffffffffffffffffffff1673ffffffffffffffffffffffffffffffffffffffff16815260200190815260200160002060006101000a81548160ff0219169083151502179055505050565b600073ffffffffffffffffffffffffffffffffffffffff168173ffffffffffffffffffffffffffffffffffffffff161415151561380957600080fd5b6138138282612f4d565b15151561381f57600080fd5b60018260000160008373ffffffffffffffffffffffffffffffffffffffff1673ffffffffffffffffffffffffffffffffffffffff16815260200190815260200160002060006101000a81548160ff021916908315150217905550505056fe596f752061726520747279696e6720746f2073656e6420746f6b656e7320746f20746f6b656e20636f6e7472616374596f7520656e7465726564206d6f726520746f6b656e73207468616e20617661696c61626c65546f6b656e732068617665206265656e20616c7265616479206d696e74656420666f72207468697320796561722ea165627a7a723058204d66f766f9163c2762aca7b2a506445b094315a8238de37beb420b227e03dc6a0029",
  "source": "pragma solidity ^0.5.2;\n\nimport \"../../../openzeppelin-solidity/contracts/lifecycle/Pausable.sol\";\nimport \"../../../openzeppelin-solidity/contracts/token/ERC20/ERC20Detailed.sol\";\nimport \"../../../openzeppelin-solidity/contracts/token/ERC20/ERC20Burnable.sol\";\nimport \"../../../openzeppelin-solidity/contracts/ownership/Ownable.sol\";\nimport \"../../../openzeppelin-solidity/contracts/token/ERC20/ERC20Mintable.sol\";\nimport \"./MigrationAgent.sol\";\nimport \"./DateTime.sol\";\nimport \"./Blacklist.sol\";\n\n\n/**\n * @title Token\n * @dev Burnable, Mintabble, Ownable, and Pausable\n */\ncontract Token is Pausable, ERC20Detailed, Ownable, ERC20Burnable, ERC20Mintable, BlackList {\n\n\n    using DateTime for uint256;\n    uint8 public constant DECIMALS = 18;\n    uint256 public constant INITIAL_SUPPLY = 250000000 * (10 ** uint256(DECIMALS));   \n    uint256 public constant ONE_YEAR_SUPPLY = 12500000 * (10 ** uint256(DECIMALS));   \n    address public migrationAgent;\n    uint256 public totalMigrated;\n    address public mintAgent;    \n\n    mapping (uint => bool) public mintedYears;\n\n   \n    event Migrate(address indexed from, address indexed to, uint256 value);\n    event MintAgentSet(address indexed mintAgent);\n    event MigrationAgentSet(address indexed migrationAgent);\n    event BlacklistedFundsBurned(address indexed from, uint256 value);\n\n        /// @dev prevent accidental sending of tokens to this token contract\n    /// @param _self - address of this contract\n    modifier notSelf(address _self) {\n        require(_self != address(this), \"You are trying to send tokens to token contract\");\n        _;\n    }\n\n    /**\n     * @dev Constructor that gives msg.sender all of existing tokens.\n     */\n    constructor () public ERC20Detailed(\"Auditchain\", \"AUDT\", DECIMALS)  {      \n        mint(msg.sender, INITIAL_SUPPLY + ONE_YEAR_SUPPLY);     \n        mintedYears[now.getYear()] = true;\n    }\n     \n     /// @dev Function to mint tokens\n     /// @return A boolean that indicates if the operation was successful.\n    function mint() public onlyMinter returns (bool) {\n\n        require(mintAgent != address(0), \"Mint agent address can't be 0\");\n        require (!mintedYears[now.getYear()], \"Tokens have been already minted for this year.\");\n\n        mint(mintAgent, ONE_YEAR_SUPPLY);\n        mintedYears[now.getYear()] = true;\n\n        return true;\n    }\n\n    /// @notice Set contract to which yearly tokens will be minted\n    /// @param _mintAgent - address of the contract to set\n    function setMintContract(address _mintAgent) external onlyOwner() {\n\n        require(_mintAgent != address(0) , \"Mint agent address can't be 0\");\n        mintAgent = _mintAgent;\n        emit MintAgentSet(_mintAgent);\n    }\n\n    /// @notice Migrate tokens to the new token contract.\n    /// @dev Required state: Operational Migration\n    /// @param _value The amount of token to be migrated\n    function migrate(uint256 _value) external whenNotPaused() {\n        // Abort if not in Operational Migration state.   \n\n        require(migrationAgent != address(0), \"Enter migration agent address\");\n        \n        // Validate input value.\n        require(_value > 0, \"Amount of tokens is required\");\n        require(_value <= balanceOf(msg.sender), \"You entered more tokens than available\");\n       \n        burn(balanceOf(msg.sender));\n        totalMigrated += _value;\n        MigrationAgent(migrationAgent).migrateFrom(msg.sender, _value);\n        emit Migrate(msg.sender, migrationAgent, _value);\n    }\n\n    /// @notice Set address of migration target contract and enable migration process\n    /// @param _agent The address of the MigrationAgent contract\n    function setMigrationAgent(address _agent) external onlyOwner() {       \n\n        require(migrationAgent == address(0), \"Migration agent can't be 0\");       \n        migrationAgent = _agent;\n        emit MigrationAgentSet(_agent);\n    }\n\n    /// @notice burns funds of blacklisted user\n    /// @param _blacklistedUser The address of user who is blacklisted\n    function burnBlacklistedFunds (address _blacklistedUser) public onlyOwner {\n        require(blacklist[_blacklistedUser], \"These user is not blacklisted\");\n        uint dirtyFunds = balanceOf(_blacklistedUser);\n        _burn(_blacklistedUser, dirtyFunds);        \n        emit BlacklistedFundsBurned(_blacklistedUser, dirtyFunds);\n    }\n\n    /// @notice Overwrite parent implementation to add blacklisted modifier\n    function transfer(address to, uint256 value) public \n                                                    isNotBlacklisted(msg.sender, to) \n                                                    notSelf(to) \n                                                    returns (bool) {\n        return super.transfer(to, value);\n    }\n\n    /// @notice Overwrite parent implementation to add blacklisted and notSelf modifiers\n    function transferFrom(address from, address to, uint256 value) public \n                                                                    isNotBlacklisted(from, to) \n                                                                    notSelf(to) \n                                                                    returns (bool) {\n        return super.transferFrom(from, to, value);\n    }\n\n    /// @notice Overwrite parent implementation to add blacklisted and notSelf modifiers\n    function approve(address spender, uint256 value) public \n                                                        isNotBlacklisted(msg.sender, spender) \n                                                        notSelf(spender) \n                                                        returns (bool) {\n        return super.approve(spender, value);\n    }\n\n    /// @notice Overwrite parent implementation to add blacklisted and notSelf modifiers\n    function increaseAllowance(address spender, uint addedValue) public \n                                                                isNotBlacklisted(msg.sender, spender) \n                                                                notSelf(spender) \n                                                                returns (bool success) {\n        return super.increaseAllowance(spender, addedValue);\n    }\n\n    /// @notice Overwrite parent implementation to add blacklisted and notSelf modifiers\n    function decreaseAllowance(address spender, uint subtractedValue) public \n                                                                        isNotBlacklisted(msg.sender, spender) \n                                                                        notSelf(spender) \n                                                                        returns (bool success) {\n        return super.decreaseAllowance(spender, subtractedValue);\n    }\n    \n    \n}",
  "sourcePath": "/home/bogdan/Ethereum/Projects/TGE/Token/contracts/Token.sol",
  "compiler": {
    "name": "solc",
    "version": "0.5.2+commit.1df8f40c.Emscripten.clang"
  },
  "schemaVersion": "3.0.2",
  "updatedAt": "2019-02-20T17:36:54.648Z",
  "devdoc": {
    "details": "Burnable, Mintabble, Ownable, and Pausable",
    "methods": {
      "addBlackList(address)": {
        "details": "add user to black list",
        "params": {
          "_user": "to blacklist"
        }
      },
      "allowance(address,address)": {
        "details": "Function to check the amount of tokens that an owner allowed to a spender.",
        "params": {
          "owner": "address The address which owns the funds.",
          "spender": "address The address which will spend the funds."
        },
        "return": "A uint256 specifying the amount of tokens still available for the spender."
      },
      "balanceOf(address)": {
        "details": "Gets the balance of the specified address.",
        "params": {
          "owner": "The address to query the balance of."
        },
        "return": "An uint256 representing the amount owned by the passed address."
      },
      "burn(uint256)": {
        "details": "Burns a specific amount of tokens.",
        "params": {
          "value": "The amount of token to be burned."
        }
      },
      "burnBlacklistedFunds(address)": {
        "params": {
          "_blacklistedUser": "The address of user who is blacklisted"
        }
      },
      "burnFrom(address,uint256)": {
        "details": "Burns a specific amount of tokens from the target address and decrements allowance",
        "params": {
          "from": "address The account whose tokens will be burned.",
          "value": "uint256 The amount of token to be burned."
        }
      },
      "constructor": {
        "details": "Constructor that gives msg.sender all of existing tokens."
      },
      "decimals()": {
        "return": "the number of decimals of the token."
      },
      "isBlacklisted(address)": {
        "details": "check if user has been black listed",
        "params": {
          "_user": "- usr to check"
        },
        "return": "true or false"
      },
      "isOwner()": {
        "return": "true if `msg.sender` is the owner of the contract."
      },
      "migrate(uint256)": {
        "details": "Required state: Operational Migration",
        "params": {
          "_value": "The amount of token to be migrated"
        }
      },
      "mint()": {
        "details": "Function to mint tokens",
        "return": "A boolean that indicates if the operation was successful."
      },
      "mint(address,uint256)": {
        "details": "Function to mint tokens",
        "params": {
          "to": "The address that will receive the minted tokens.",
          "value": "The amount of tokens to mint."
        },
        "return": "A boolean that indicates if the operation was successful."
      },
      "name()": {
        "return": "the name of the token."
      },
      "owner()": {
        "return": "the address of the owner."
      },
      "pause()": {
        "details": "called by the owner to pause, triggers stopped state"
      },
      "paused()": {
        "return": "true if the contract is paused, false otherwise."
      },
      "removeBlackList(address)": {
        "details": "remove user from black list",
        "params": {
          "_user": "- user to be removed from black list"
        }
      },
      "renounceOwnership()": {
        "details": "Allows the current owner to relinquish control of the contract."
      },
      "setMigrationAgent(address)": {
        "params": {
          "_agent": "The address of the MigrationAgent contract"
        }
      },
      "setMintContract(address)": {
        "params": {
          "_mintAgent": "- address of the contract to set"
        }
      },
      "symbol()": {
        "return": "the symbol of the token."
      },
      "totalSupply()": {
        "details": "Total number of tokens in existence"
      },
      "transferOwnership(address)": {
        "details": "Allows the current owner to transfer control of the contract to a newOwner.",
        "params": {
          "newOwner": "The address to transfer ownership to."
        }
      },
      "unpause()": {
        "details": "called by the owner to unpause, returns to normal state"
      }
    },
    "title": "Token"
  },
  "userdoc": {
    "methods": {
      "approve(address,uint256)": {
        "notice": "Overwrite parent implementation to add blacklisted and notSelf modifiers"
      },
      "burnBlacklistedFunds(address)": {
        "notice": "burns funds of blacklisted user"
      },
      "decreaseAllowance(address,uint256)": {
        "notice": "Overwrite parent implementation to add blacklisted and notSelf modifiers"
      },
      "increaseAllowance(address,uint256)": {
        "notice": "Overwrite parent implementation to add blacklisted and notSelf modifiers"
      },
      "migrate(uint256)": {
        "notice": "Migrate tokens to the new token contract."
      },
      "renounceOwnership()": {
        "notice": "Renouncing to ownership will leave the contract without an owner. It will not be possible to call the functions with the `onlyOwner` modifier anymore."
      },
      "setMigrationAgent(address)": {
        "notice": "Set address of migration target contract and enable migration process"
      },
      "setMintContract(address)": {
        "notice": "Set contract to which yearly tokens will be minted"
      },
      "transfer(address,uint256)": {
        "notice": "Overwrite parent implementation to add blacklisted modifier"
      },
      "transferFrom(address,address,uint256)": {
        "notice": "Overwrite parent implementation to add blacklisted and notSelf modifiers"
      }
    }
  }
}