{
  "contractName": "Token",
  "abi": [
    {
      "constant": true,
      "inputs": [],
      "name": "name",
      "outputs": [
        {
          "name": "",
          "type": "string"
        }
      ],
      "payable": false,
      "stateMutability": "view",
      "type": "function"
    },
    {
      "constant": true,
      "inputs": [],
      "name": "mintAgent",
      "outputs": [
        {
          "name": "",
          "type": "address"
        }
      ],
      "payable": false,
      "stateMutability": "view",
      "type": "function"
    },
    {
      "constant": true,
      "inputs": [],
      "name": "totalSupply",
      "outputs": [
        {
          "name": "",
          "type": "uint256"
        }
      ],
      "payable": false,
      "stateMutability": "view",
      "type": "function"
    },
    {
      "constant": true,
      "inputs": [
        {
          "name": "",
          "type": "address"
        }
      ],
      "name": "lockedList",
      "outputs": [
        {
          "name": "",
          "type": "bool"
        }
      ],
      "payable": false,
      "stateMutability": "view",
      "type": "function"
    },
    {
      "constant": true,
      "inputs": [],
      "name": "DECIMALS",
      "outputs": [
        {
          "name": "",
          "type": "uint8"
        }
      ],
      "payable": false,
      "stateMutability": "view",
      "type": "function"
    },
    {
      "constant": true,
      "inputs": [],
      "name": "INITIAL_SUPPLY",
      "outputs": [
        {
          "name": "",
          "type": "uint256"
        }
      ],
      "payable": false,
      "stateMutability": "view",
      "type": "function"
    },
    {
      "constant": true,
      "inputs": [],
      "name": "decimals",
      "outputs": [
        {
          "name": "",
          "type": "uint8"
        }
      ],
      "payable": false,
      "stateMutability": "view",
      "type": "function"
    },
    {
      "constant": false,
      "inputs": [],
      "name": "unpause",
      "outputs": [],
      "payable": false,
      "stateMutability": "nonpayable",
      "type": "function"
    },
    {
      "constant": false,
      "inputs": [
        {
          "name": "value",
          "type": "uint256"
        }
      ],
      "name": "burn",
      "outputs": [],
      "payable": false,
      "stateMutability": "nonpayable",
      "type": "function"
    },
    {
      "constant": true,
      "inputs": [
        {
          "name": "account",
          "type": "address"
        }
      ],
      "name": "isPauser",
      "outputs": [
        {
          "name": "",
          "type": "bool"
        }
      ],
      "payable": false,
      "stateMutability": "view",
      "type": "function"
    },
    {
      "constant": false,
      "inputs": [
        {
          "name": "_user",
          "type": "address"
        }
      ],
      "name": "removeLock",
      "outputs": [],
      "payable": false,
      "stateMutability": "nonpayable",
      "type": "function"
    },
    {
      "constant": true,
      "inputs": [
        {
          "name": "_user",
          "type": "address"
        }
      ],
      "name": "isLocked",
      "outputs": [
        {
          "name": "",
          "type": "bool"
        }
      ],
      "payable": false,
      "stateMutability": "view",
      "type": "function"
    },
    {
      "constant": true,
      "inputs": [],
      "name": "paused",
      "outputs": [
        {
          "name": "",
          "type": "bool"
        }
      ],
      "payable": false,
      "stateMutability": "view",
      "type": "function"
    },
    {
      "constant": false,
      "inputs": [],
      "name": "renouncePauser",
      "outputs": [],
      "payable": false,
      "stateMutability": "nonpayable",
      "type": "function"
    },
    {
      "constant": true,
      "inputs": [
        {
          "name": "owner",
          "type": "address"
        }
      ],
      "name": "balanceOf",
      "outputs": [
        {
          "name": "",
          "type": "uint256"
        }
      ],
      "payable": false,
      "stateMutability": "view",
      "type": "function"
    },
    {
      "constant": false,
      "inputs": [],
      "name": "renounceOwnership",
      "outputs": [],
      "payable": false,
      "stateMutability": "nonpayable",
      "type": "function"
    },
    {
      "constant": false,
      "inputs": [
        {
          "name": "from",
          "type": "address"
        },
        {
          "name": "value",
          "type": "uint256"
        }
      ],
      "name": "burnFrom",
      "outputs": [],
      "payable": false,
      "stateMutability": "nonpayable",
      "type": "function"
    },
    {
      "constant": false,
      "inputs": [
        {
          "name": "account",
          "type": "address"
        }
      ],
      "name": "addPauser",
      "outputs": [],
      "payable": false,
      "stateMutability": "nonpayable",
      "type": "function"
    },
    {
      "constant": true,
      "inputs": [],
      "name": "migrationAgent",
      "outputs": [
        {
          "name": "",
          "type": "address"
        }
      ],
      "payable": false,
      "stateMutability": "view",
      "type": "function"
    },
    {
      "constant": false,
      "inputs": [],
      "name": "pause",
      "outputs": [],
      "payable": false,
      "stateMutability": "nonpayable",
      "type": "function"
    },
    {
      "constant": false,
      "inputs": [
        {
          "name": "_user",
          "type": "address"
        }
      ],
      "name": "addLock",
      "outputs": [],
      "payable": false,
      "stateMutability": "nonpayable",
      "type": "function"
    },
    {
      "constant": true,
      "inputs": [],
      "name": "owner",
      "outputs": [
        {
          "name": "",
          "type": "address"
        }
      ],
      "payable": false,
      "stateMutability": "view",
      "type": "function"
    },
    {
      "constant": true,
      "inputs": [],
      "name": "isOwner",
      "outputs": [
        {
          "name": "",
          "type": "bool"
        }
      ],
      "payable": false,
      "stateMutability": "view",
      "type": "function"
    },
    {
      "constant": true,
      "inputs": [],
      "name": "totalMigrated",
      "outputs": [
        {
          "name": "",
          "type": "uint256"
        }
      ],
      "payable": false,
      "stateMutability": "view",
      "type": "function"
    },
    {
      "constant": true,
      "inputs": [],
      "name": "symbol",
      "outputs": [
        {
          "name": "",
          "type": "string"
        }
      ],
      "payable": false,
      "stateMutability": "view",
      "type": "function"
    },
    {
      "constant": false,
      "inputs": [
        {
          "name": "account",
          "type": "address"
        }
      ],
      "name": "addMinter",
      "outputs": [],
      "payable": false,
      "stateMutability": "nonpayable",
      "type": "function"
    },
    {
      "constant": false,
      "inputs": [],
      "name": "renounceMinter",
      "outputs": [],
      "payable": false,
      "stateMutability": "nonpayable",
      "type": "function"
    },
    {
      "constant": true,
      "inputs": [
        {
          "name": "account",
          "type": "address"
        }
      ],
      "name": "isMinter",
      "outputs": [
        {
          "name": "",
          "type": "bool"
        }
      ],
      "payable": false,
      "stateMutability": "view",
      "type": "function"
    },
    {
      "constant": true,
      "inputs": [
        {
          "name": "",
          "type": "uint256"
        }
      ],
      "name": "mintedYears",
      "outputs": [
        {
          "name": "",
          "type": "bool"
        }
      ],
      "payable": false,
      "stateMutability": "view",
      "type": "function"
    },
    {
      "constant": true,
      "inputs": [],
      "name": "ONE_YEAR_SUPPLY",
      "outputs": [
        {
          "name": "",
          "type": "uint256"
        }
      ],
      "payable": false,
      "stateMutability": "view",
      "type": "function"
    },
    {
      "constant": true,
      "inputs": [
        {
          "name": "owner",
          "type": "address"
        },
        {
          "name": "spender",
          "type": "address"
        }
      ],
      "name": "allowance",
      "outputs": [
        {
          "name": "",
          "type": "uint256"
        }
      ],
      "payable": false,
      "stateMutability": "view",
      "type": "function"
    },
    {
      "constant": false,
      "inputs": [
        {
          "name": "newOwner",
          "type": "address"
        }
      ],
      "name": "transferOwnership",
      "outputs": [],
      "payable": false,
      "stateMutability": "nonpayable",
      "type": "function"
    },
    {
      "inputs": [],
      "payable": false,
      "stateMutability": "nonpayable",
      "type": "constructor"
    },
    {
      "anonymous": false,
      "inputs": [
        {
          "indexed": true,
          "name": "from",
          "type": "address"
        },
        {
          "indexed": true,
          "name": "to",
          "type": "address"
        },
        {
          "indexed": false,
          "name": "value",
          "type": "uint256"
        }
      ],
      "name": "Migrate",
      "type": "event"
    },
    {
      "anonymous": false,
      "inputs": [
        {
          "indexed": true,
          "name": "mintAgent",
          "type": "address"
        }
      ],
      "name": "MintAgentSet",
      "type": "event"
    },
    {
      "anonymous": false,
      "inputs": [
        {
          "indexed": true,
          "name": "migrationAgent",
          "type": "address"
        }
      ],
      "name": "MigrationAgentSet",
      "type": "event"
    },
    {
      "anonymous": false,
      "inputs": [
        {
          "indexed": true,
          "name": "from",
          "type": "address"
        },
        {
          "indexed": false,
          "name": "value",
          "type": "uint256"
        }
      ],
      "name": "BlacklistedFundsBurned",
      "type": "event"
    },
    {
      "anonymous": false,
      "inputs": [
        {
          "indexed": false,
          "name": "user",
          "type": "address"
        }
      ],
      "name": "AddedLock",
      "type": "event"
    },
    {
      "anonymous": false,
      "inputs": [
        {
          "indexed": false,
          "name": "user",
          "type": "address"
        }
      ],
      "name": "RemovedLock",
      "type": "event"
    },
    {
      "anonymous": false,
      "inputs": [
        {
          "indexed": true,
          "name": "account",
          "type": "address"
        }
      ],
      "name": "MinterAdded",
      "type": "event"
    },
    {
      "anonymous": false,
      "inputs": [
        {
          "indexed": true,
          "name": "account",
          "type": "address"
        }
      ],
      "name": "MinterRemoved",
      "type": "event"
    },
    {
      "anonymous": false,
      "inputs": [
        {
          "indexed": true,
          "name": "previousOwner",
          "type": "address"
        },
        {
          "indexed": true,
          "name": "newOwner",
          "type": "address"
        }
      ],
      "name": "OwnershipTransferred",
      "type": "event"
    },
    {
      "anonymous": false,
      "inputs": [
        {
          "indexed": true,
          "name": "from",
          "type": "address"
        },
        {
          "indexed": true,
          "name": "to",
          "type": "address"
        },
        {
          "indexed": false,
          "name": "value",
          "type": "uint256"
        }
      ],
      "name": "Transfer",
      "type": "event"
    },
    {
      "anonymous": false,
      "inputs": [
        {
          "indexed": true,
          "name": "owner",
          "type": "address"
        },
        {
          "indexed": true,
          "name": "spender",
          "type": "address"
        },
        {
          "indexed": false,
          "name": "value",
          "type": "uint256"
        }
      ],
      "name": "Approval",
      "type": "event"
    },
    {
      "anonymous": false,
      "inputs": [
        {
          "indexed": false,
          "name": "account",
          "type": "address"
        }
      ],
      "name": "Paused",
      "type": "event"
    },
    {
      "anonymous": false,
      "inputs": [
        {
          "indexed": false,
          "name": "account",
          "type": "address"
        }
      ],
      "name": "Unpaused",
      "type": "event"
    },
    {
      "anonymous": false,
      "inputs": [
        {
          "indexed": true,
          "name": "account",
          "type": "address"
        }
      ],
      "name": "PauserAdded",
      "type": "event"
    },
    {
      "anonymous": false,
      "inputs": [
        {
          "indexed": true,
          "name": "account",
          "type": "address"
        }
      ],
      "name": "PauserRemoved",
      "type": "event"
    },
    {
      "constant": false,
      "inputs": [],
      "name": "mint",
      "outputs": [
        {
          "name": "",
          "type": "bool"
        }
      ],
      "payable": false,
      "stateMutability": "nonpayable",
      "type": "function"
    },
    {
      "constant": false,
      "inputs": [
        {
          "name": "to",
          "type": "address"
        },
        {
          "name": "value",
          "type": "uint256"
        }
      ],
      "name": "mint",
      "outputs": [
        {
          "name": "",
          "type": "bool"
        }
      ],
      "payable": false,
      "stateMutability": "nonpayable",
      "type": "function"
    },
    {
      "constant": false,
      "inputs": [
        {
          "name": "_mintAgent",
          "type": "address"
        }
      ],
      "name": "setMintContract",
      "outputs": [],
      "payable": false,
      "stateMutability": "nonpayable",
      "type": "function"
    },
    {
      "constant": false,
      "inputs": [
        {
          "name": "_value",
          "type": "uint256"
        }
      ],
      "name": "migrate",
      "outputs": [],
      "payable": false,
      "stateMutability": "nonpayable",
      "type": "function"
    },
    {
      "constant": false,
      "inputs": [
        {
          "name": "_agent",
          "type": "address"
        }
      ],
      "name": "setMigrationAgent",
      "outputs": [],
      "payable": false,
      "stateMutability": "nonpayable",
      "type": "function"
    },
    {
      "constant": false,
      "inputs": [
        {
          "name": "to",
          "type": "address"
        },
        {
          "name": "value",
          "type": "uint256"
        }
      ],
      "name": "transfer",
      "outputs": [
        {
          "name": "",
          "type": "bool"
        }
      ],
      "payable": false,
      "stateMutability": "nonpayable",
      "type": "function"
    },
    {
      "constant": false,
      "inputs": [
        {
          "name": "from",
          "type": "address"
        },
        {
          "name": "to",
          "type": "address"
        },
        {
          "name": "value",
          "type": "uint256"
        }
      ],
      "name": "transferFrom",
      "outputs": [
        {
          "name": "",
          "type": "bool"
        }
      ],
      "payable": false,
      "stateMutability": "nonpayable",
      "type": "function"
    },
    {
      "constant": false,
      "inputs": [
        {
          "name": "spender",
          "type": "address"
        },
        {
          "name": "value",
          "type": "uint256"
        }
      ],
      "name": "approve",
      "outputs": [
        {
          "name": "",
          "type": "bool"
        }
      ],
      "payable": false,
      "stateMutability": "nonpayable",
      "type": "function"
    },
    {
      "constant": false,
      "inputs": [
        {
          "name": "spender",
          "type": "address"
        },
        {
          "name": "addedValue",
          "type": "uint256"
        }
      ],
      "name": "increaseAllowance",
      "outputs": [
        {
          "name": "success",
          "type": "bool"
        }
      ],
      "payable": false,
      "stateMutability": "nonpayable",
      "type": "function"
    },
    {
      "constant": false,
      "inputs": [
        {
          "name": "spender",
          "type": "address"
        },
        {
          "name": "subtractedValue",
          "type": "uint256"
        }
      ],
      "name": "decreaseAllowance",
      "outputs": [
        {
          "name": "success",
          "type": "bool"
        }
      ],
      "payable": false,
      "stateMutability": "nonpayable",
      "type": "function"
    }
  ],
  "bytecode": "0x60806040523480156200001157600080fd5b506040805190810160405280600a81526020017f4175646974636861696e000000000000000000000000000000000000000000008152506040805190810160405280600481526020017f415544540000000000000000000000000000000000000000000000000000000081525060126200009a33620002f4640100000000026401000000009004565b6000600160006101000a81548160ff0219169083151502179055508260029080519060200190620000cd92919062000733565b508160039080519060200190620000e692919062000733565b5080600460006101000a81548160ff021916908360ff16021790555050505033600860006101000a81548173ffffffffffffffffffffffffffffffffffffffff021916908373ffffffffffffffffffffffffffffffffffffffff160217905550600860009054906101000a900473ffffffffffffffffffffffffffffffffffffffff1673ffffffffffffffffffffffffffffffffffffffff16600073ffffffffffffffffffffffffffffffffffffffff167f8be0079c531659141344cd1fd0a4f28419497f9722a3daafe3b4186f6b6457e060405160405180910390a3620001dd336200035e640100000000026401000000009004565b6200021333601260ff16600a0a62bebc2002601260ff16600a0a630ee6b2800201620003c8640100000000026401000000009004565b506001600e60004273__DateTime______________________________6392d6631390916040518263ffffffff167c01000000000000000000000000000000000000000000000000000000000281526004018082815260200191505060206040518083038186803b1580156200028857600080fd5b505af41580156200029d573d6000803e3d6000fd5b505050506040513d6020811015620002b457600080fd5b810190808051906020019092919050505061ffff16815260200190815260200160002060006101000a81548160ff021916908315150217905550620007e2565b6200031881600062000415640100000000026200375d179091906401000000009004565b8073ffffffffffffffffffffffffffffffffffffffff167f6719d08c1888103bea251a4ed56406bd0c3e69723c8a1686e017e7bbe159b6f860405160405180910390a250565b6200038281600962000415640100000000026200375d179091906401000000009004565b8073ffffffffffffffffffffffffffffffffffffffff167f6ae172837ea30b801fbfcdd4108aa1d5bf8ff775444fd70256b44e6bf3dfc3f660405160405180910390a250565b6000620003e433620004d8640100000000026401000000009004565b1515620003f057600080fd5b6200040b838362000505640100000000026401000000009004565b6001905092915050565b600073ffffffffffffffffffffffffffffffffffffffff168173ffffffffffffffffffffffffffffffffffffffff16141515156200045257600080fd5b6200046d82826200067c640100000000026401000000009004565b1515156200047a57600080fd5b60018260000160008373ffffffffffffffffffffffffffffffffffffffff1673ffffffffffffffffffffffffffffffffffffffff16815260200190815260200160002060006101000a81548160ff0219169083151502179055505050565b6000620004fe8260096200067c6401000000000262002edd179091906401000000009004565b9050919050565b600073ffffffffffffffffffffffffffffffffffffffff168273ffffffffffffffffffffffffffffffffffffffff16141515156200054257600080fd5b620005678160075462000711640100000000026200368d179091906401000000009004565b600781905550620005cf81600560008573ffffffffffffffffffffffffffffffffffffffff1673ffffffffffffffffffffffffffffffffffffffff1681526020019081526020016000205462000711640100000000026200368d179091906401000000009004565b600560008473ffffffffffffffffffffffffffffffffffffffff1673ffffffffffffffffffffffffffffffffffffffff168152602001908152602001600020819055508173ffffffffffffffffffffffffffffffffffffffff16600073ffffffffffffffffffffffffffffffffffffffff167fddf252ad1be2c89b69c2b068fc378daa952ba7f163c4a11628f55a4df523b3ef836040518082815260200191505060405180910390a35050565b60008073ffffffffffffffffffffffffffffffffffffffff168273ffffffffffffffffffffffffffffffffffffffff1614151515620006ba57600080fd5b8260000160008373ffffffffffffffffffffffffffffffffffffffff1673ffffffffffffffffffffffffffffffffffffffff16815260200190815260200160002060009054906101000a900460ff16905092915050565b60008082840190508381101515156200072957600080fd5b8091505092915050565b828054600181600116156101000203166002900490600052602060002090601f016020900481019282601f106200077657805160ff1916838001178555620007a7565b82800160010185558215620007a7579182015b82811115620007a657825182559160200191906001019062000789565b5b509050620007b69190620007ba565b5090565b620007df91905b80821115620007db576000816000905550600101620007c1565b5090565b90565b6138bc80620007f26000396000f3fe608060405234801561001057600080fd5b506004361061027b576000357c01000000000000000000000000000000000000000000000000000000009004806370a082311161016357806395a0f5eb116100e0578063a9059cbb116100a4578063a9059cbb14610b6a578063aa271e1a14610bd0578063d0abed2114610c2c578063d0dafd8e14610c72578063dd62ed3e14610c90578063f2fde38b14610d085761027b565b806395a0f5eb14610a1557806395d89b4114610a33578063983b2d5614610ab65780639865027514610afa578063a457c2d714610b045761027b565b80638328dbcd116101275780638328dbcd146109115780638456cb591461095b578063882f327b146109655780638da5cb5b146109a95780638f32d59b146109f35761027b565b806370a08231146107d9578063715018a61461083157806375e2ff651461083b57806379cc67901461087f57806382dc1ec4146108cd5761027b565b806339509351116101fc57806346fbf68e116101c057806346fbf68e1461066d5780634a387bef146106c95780634a4fbeec1461070d5780635c975abb146107695780635fb64a6a1461078b5780636ef8d66d146107cf5761027b565b8063395093511461053b5780633f4ba83a146105a157806340c10f19146105ab57806342966c6814610611578063454b06081461063f5761027b565b80631a921b3e116102435780631a921b3e146103f357806323b872dd1461044f5780632e0f2625146104d55780632ff2e9dc146104f9578063313ce567146105175761027b565b806306fdde0314610280578063095ea7b3146103035780630d3737b0146103695780631249c58b146103b357806318160ddd146103d5575b600080fd5b610288610d4c565b6040518080602001828103825283818151815260200191508051906020019080838360005b838110156102c85780820151818401526020810190506102ad565b50505050905090810190601f1680156102f55780820380516001836020036101000a031916815260200191505b509250505060405180910390f35b61034f6004803603604081101561031957600080fd5b81019080803573ffffffffffffffffffffffffffffffffffffffff16906020019092919080359060200190929190505050610dee565b604051808215151515815260200191505060405180910390f35b610371611050565b604051808273ffffffffffffffffffffffffffffffffffffffff1673ffffffffffffffffffffffffffffffffffffffff16815260200191505060405180910390f35b6103bb611076565b604051808215151515815260200191505060405180910390f35b6103dd611379565b6040518082815260200191505060405180910390f35b6104356004803603602081101561040957600080fd5b81019080803573ffffffffffffffffffffffffffffffffffffffff169060200190929190505050611383565b604051808215151515815260200191505060405180910390f35b6104bb6004803603606081101561046557600080fd5b81019080803573ffffffffffffffffffffffffffffffffffffffff169060200190929190803573ffffffffffffffffffffffffffffffffffffffff169060200190929190803590602001909291905050506113a3565b604051808215151515815260200191505060405180910390f35b6104dd611607565b604051808260ff1660ff16815260200191505060405180910390f35b61050161160c565b6040518082815260200191505060405180910390f35b61051f61161d565b604051808260ff1660ff16815260200191505060405180910390f35b6105876004803603604081101561055157600080fd5b81019080803573ffffffffffffffffffffffffffffffffffffffff16906020019092919080359060200190929190505050611634565b604051808215151515815260200191505060405180910390f35b6105a9611896565b005b6105f7600480360360408110156105c157600080fd5b81019080803573ffffffffffffffffffffffffffffffffffffffff16906020019092919080359060200190929190505050611945565b604051808215151515815260200191505060405180910390f35b61063d6004803603602081101561062757600080fd5b810190808035906020019092919050505061196f565b005b61066b6004803603602081101561065557600080fd5b810190808035906020019092919050505061197c565b005b6106af6004803603602081101561068357600080fd5b81019080803573ffffffffffffffffffffffffffffffffffffffff169060200190929190505050611cc2565b604051808215151515815260200191505060405180910390f35b61070b600480360360208110156106df57600080fd5b81019080803573ffffffffffffffffffffffffffffffffffffffff169060200190929190505050611cdf565b005b61074f6004803603602081101561072357600080fd5b81019080803573ffffffffffffffffffffffffffffffffffffffff169060200190929190505050611db0565b604051808215151515815260200191505060405180910390f35b610771611e06565b604051808215151515815260200191505060405180910390f35b6107cd600480360360208110156107a157600080fd5b81019080803573ffffffffffffffffffffffffffffffffffffffff169060200190929190505050611e1d565b005b6107d7611f5c565b005b61081b600480360360208110156107ef57600080fd5b81019080803573ffffffffffffffffffffffffffffffffffffffff169060200190929190505050611f67565b6040518082815260200191505060405180910390f35b610839611fb0565b005b61087d6004803603602081101561085157600080fd5b81019080803573ffffffffffffffffffffffffffffffffffffffff169060200190929190505050612084565b005b6108cb6004803603604081101561089557600080fd5b81019080803573ffffffffffffffffffffffffffffffffffffffff169060200190929190803590602001909291905050506121e4565b005b61090f600480360360208110156108e357600080fd5b81019080803573ffffffffffffffffffffffffffffffffffffffff1690602001909291905050506121f2565b005b610919612212565b604051808273ffffffffffffffffffffffffffffffffffffffff1673ffffffffffffffffffffffffffffffffffffffff16815260200191505060405180910390f35b610963612238565b005b6109a76004803603602081101561097b57600080fd5b81019080803573ffffffffffffffffffffffffffffffffffffffff1690602001909291905050506122e7565b005b6109b16123b8565b604051808273ffffffffffffffffffffffffffffffffffffffff1673ffffffffffffffffffffffffffffffffffffffff16815260200191505060405180910390f35b6109fb6123e2565b604051808215151515815260200191505060405180910390f35b610a1d61243a565b6040518082815260200191505060405180910390f35b610a3b612440565b6040518080602001828103825283818151815260200191508051906020019080838360005b83811015610a7b578082015181840152602081019050610a60565b50505050905090810190601f168015610aa85780820380516001836020036101000a031916815260200191505b509250505060405180910390f35b610af860048036036020811015610acc57600080fd5b81019080803573ffffffffffffffffffffffffffffffffffffffff1690602001909291905050506124e2565b005b610b02612502565b005b610b5060048036036040811015610b1a57600080fd5b81019080803573ffffffffffffffffffffffffffffffffffffffff1690602001909291908035906020019092919050505061250d565b604051808215151515815260200191505060405180910390f35b610bb660048036036040811015610b8057600080fd5b81019080803573ffffffffffffffffffffffffffffffffffffffff1690602001909291908035906020019092919050505061276f565b604051808215151515815260200191505060405180910390f35b610c1260048036036020811015610be657600080fd5b81019080803573ffffffffffffffffffffffffffffffffffffffff1690602001909291905050506129d1565b604051808215151515815260200191505060405180910390f35b610c5860048036036020811015610c4257600080fd5b81019080803590602001909291905050506129ee565b604051808215151515815260200191505060405180910390f35b610c7a612a0e565b6040518082815260200191505060405180910390f35b610cf260048036036040811015610ca657600080fd5b81019080803573ffffffffffffffffffffffffffffffffffffffff169060200190929190803573ffffffffffffffffffffffffffffffffffffffff169060200190929190505050612a1e565b6040518082815260200191505060405180910390f35b610d4a60048036036020811015610d1e57600080fd5b81019080803573ffffffffffffffffffffffffffffffffffffffff169060200190929190505050612aa5565b005b606060028054600181600116156101000203166002900480601f016020809104026020016040519081016040528092919081815260200182805460018160011615610100020316600290048015610de45780601f10610db957610100808354040283529160200191610de4565b820191906000526020600020905b815481529060010190602001808311610dc757829003601f168201915b5050505050905090565b60003383610dfa6123b8565b73ffffffffffffffffffffffffffffffffffffffff168273ffffffffffffffffffffffffffffffffffffffff16141515610fb357600a60008373ffffffffffffffffffffffffffffffffffffffff1673ffffffffffffffffffffffffffffffffffffffff16815260200190815260200160002060009054906101000a900460ff16151515610ef0576040517f08c379a000000000000000000000000000000000000000000000000000000000815260040180806020018281038252600e8152602001807f55736572206973206c6f636b656400000000000000000000000000000000000081525060200191505060405180910390fd5b600a60008273ffffffffffffffffffffffffffffffffffffffff1673ffffffffffffffffffffffffffffffffffffffff16815260200190815260200160002060009054906101000a900460ff16151515610fb2576040517f08c379a000000000000000000000000000000000000000000000000000000000815260040180806020018281038252600e8152602001807f55736572206973206c6f636b656400000000000000000000000000000000000081525060200191505060405180910390fd5b5b843073ffffffffffffffffffffffffffffffffffffffff168173ffffffffffffffffffffffffffffffffffffffff161415151561103b576040517f08c379a000000000000000000000000000000000000000000000000000000000815260040180806020018281038252602f81526020018061380e602f913960400191505060405180910390fd5b6110458686612ac4565b935050505092915050565b600d60009054906101000a900473ffffffffffffffffffffffffffffffffffffffff1681565b60008073ffffffffffffffffffffffffffffffffffffffff16600d60009054906101000a900473ffffffffffffffffffffffffffffffffffffffff1673ffffffffffffffffffffffffffffffffffffffff161415151561113e576040517f08c379a000000000000000000000000000000000000000000000000000000000815260040180806020018281038252601d8152602001807f4d696e74206167656e7420616464726573732063616e2774206265203000000081525060200191505060405180910390fd5b600e60004273__DateTime______________________________6392d6631390916040518263ffffffff167c01000000000000000000000000000000000000000000000000000000000281526004018082815260200191505060206040518083038186803b1580156111af57600080fd5b505af41580156111c3573d6000803e3d6000fd5b505050506040513d60208110156111d957600080fd5b810190808051906020019092919050505061ffff16815260200190815260200160002060009054906101000a900460ff16151515611262576040517f08c379a000000000000000000000000000000000000000000000000000000000815260040180806020018281038252602e815260200180613863602e913960400191505060405180910390fd5b61129a600d60009054906101000a900473ffffffffffffffffffffffffffffffffffffffff16601260ff16600a0a62bebc2002611945565b506001600e60004273__DateTime______________________________6392d6631390916040518263ffffffff167c01000000000000000000000000000000000000000000000000000000000281526004018082815260200191505060206040518083038186803b15801561130e57600080fd5b505af4158015611322573d6000803e3d6000fd5b505050506040513d602081101561133857600080fd5b810190808051906020019092919050505061ffff16815260200190815260200160002060006101000a81548160ff0219169083151502179055506001905090565b6000600754905090565b600a6020528060005260406000206000915054906101000a900460ff1681565b600083836113af6123b8565b73ffffffffffffffffffffffffffffffffffffffff168273ffffffffffffffffffffffffffffffffffffffff1614151561156857600a60008373ffffffffffffffffffffffffffffffffffffffff1673ffffffffffffffffffffffffffffffffffffffff16815260200190815260200160002060009054906101000a900460ff161515156114a5576040517f08c379a000000000000000000000000000000000000000000000000000000000815260040180806020018281038252600e8152602001807f55736572206973206c6f636b656400000000000000000000000000000000000081525060200191505060405180910390fd5b600a60008273ffffffffffffffffffffffffffffffffffffffff1673ffffffffffffffffffffffffffffffffffffffff16815260200190815260200160002060009054906101000a900460ff16151515611567576040517f08c379a000000000000000000000000000000000000000000000000000000000815260040180806020018281038252600e8152602001807f55736572206973206c6f636b656400000000000000000000000000000000000081525060200191505060405180910390fd5b5b843073ffffffffffffffffffffffffffffffffffffffff168173ffffffffffffffffffffffffffffffffffffffff16141515156115f0576040517f08c379a000000000000000000000000000000000000000000000000000000000815260040180806020018281038252602f81526020018061380e602f913960400191505060405180910390fd5b6115fb878787612adb565b93505050509392505050565b601281565b601260ff16600a0a630ee6b2800281565b6000600460009054906101000a900460ff16905090565b600033836116406123b8565b73ffffffffffffffffffffffffffffffffffffffff168273ffffffffffffffffffffffffffffffffffffffff161415156117f957600a60008373ffffffffffffffffffffffffffffffffffffffff1673ffffffffffffffffffffffffffffffffffffffff16815260200190815260200160002060009054906101000a900460ff16151515611736576040517f08c379a000000000000000000000000000000000000000000000000000000000815260040180806020018281038252600e8152602001807f55736572206973206c6f636b656400000000000000000000000000000000000081525060200191505060405180910390fd5b600a60008273ffffffffffffffffffffffffffffffffffffffff1673ffffffffffffffffffffffffffffffffffffffff16815260200190815260200160002060009054906101000a900460ff161515156117f8576040517f08c379a000000000000000000000000000000000000000000000000000000000815260040180806020018281038252600e8152602001807f55736572206973206c6f636b656400000000000000000000000000000000000081525060200191505060405180910390fd5b5b843073ffffffffffffffffffffffffffffffffffffffff168173ffffffffffffffffffffffffffffffffffffffff1614151515611881576040517f08c379a000000000000000000000000000000000000000000000000000000000815260040180806020018281038252602f81526020018061380e602f913960400191505060405180910390fd5b61188b8686612b8c565b935050505092915050565b61189f33611cc2565b15156118aa57600080fd5b600160009054906101000a900460ff1615156118c557600080fd5b6000600160006101000a81548160ff0219169083151502179055507f5db9ee0a495bf2e6ff9c91a7834c1ba4fdd244a5e8aa4e537bd38aeae4b073aa33604051808273ffffffffffffffffffffffffffffffffffffffff1673ffffffffffffffffffffffffffffffffffffffff16815260200191505060405180910390a1565b6000611950336129d1565b151561195b57600080fd5b6119658383612c31565b6001905092915050565b6119793382612d87565b50565b600160009054906101000a900460ff1615151561199857600080fd5b600073ffffffffffffffffffffffffffffffffffffffff16600b60009054906101000a900473ffffffffffffffffffffffffffffffffffffffff1673ffffffffffffffffffffffffffffffffffffffff1614151515611a5f576040517f08c379a000000000000000000000000000000000000000000000000000000000815260040180806020018281038252601d8152602001807f456e746572206d6967726174696f6e206167656e74206164647265737300000081525060200191505060405180910390fd5b600081111515611ad7576040517f08c379a000000000000000000000000000000000000000000000000000000000815260040180806020018281038252601c8152602001807f416d6f756e74206f6620746f6b656e732069732072657175697265640000000081525060200191505060405180910390fd5b611ae033611f67565b8111151515611b3a576040517f08c379a000000000000000000000000000000000000000000000000000000000815260040180806020018281038252602681526020018061383d6026913960400191505060405180910390fd5b611b4b611b4633611f67565b61196f565b80600c60008282540192505081905550600b60009054906101000a900473ffffffffffffffffffffffffffffffffffffffff1673ffffffffffffffffffffffffffffffffffffffff16637a3130e333836040518363ffffffff167c0100000000000000000000000000000000000000000000000000000000028152600401808373ffffffffffffffffffffffffffffffffffffffff1673ffffffffffffffffffffffffffffffffffffffff16815260200182815260200192505050600060405180830381600087803b158015611c2057600080fd5b505af1158015611c34573d6000803e3d6000fd5b50505050600b60009054906101000a900473ffffffffffffffffffffffffffffffffffffffff1673ffffffffffffffffffffffffffffffffffffffff163373ffffffffffffffffffffffffffffffffffffffff167f18df02dcc52b9c494f391df09661519c0069bd8540141946280399408205ca1a836040518082815260200191505060405180910390a350565b6000611cd8826000612edd90919063ffffffff16565b9050919050565b611ce76123e2565b1515611cf257600080fd5b6000600a60008373ffffffffffffffffffffffffffffffffffffffff1673ffffffffffffffffffffffffffffffffffffffff16815260200190815260200160002060006101000a81548160ff0219169083151502179055507f6134e30ca79f58d7566528b3768c7d33c9c30815c63cfeae3b69f52cf31dd61a81604051808273ffffffffffffffffffffffffffffffffffffffff1673ffffffffffffffffffffffffffffffffffffffff16815260200191505060405180910390a150565b6000600a60008373ffffffffffffffffffffffffffffffffffffffff1673ffffffffffffffffffffffffffffffffffffffff16815260200190815260200160002060009054906101000a900460ff169050919050565b6000600160009054906101000a900460ff16905090565b611e256123e2565b1515611e3057600080fd5b600073ffffffffffffffffffffffffffffffffffffffff168173ffffffffffffffffffffffffffffffffffffffff1614151515611ed5576040517f08c379a000000000000000000000000000000000000000000000000000000000815260040180806020018281038252601d8152602001807f4d696e74206167656e7420616464726573732063616e2774206265203000000081525060200191505060405180910390fd5b80600d60006101000a81548173ffffffffffffffffffffffffffffffffffffffff021916908373ffffffffffffffffffffffffffffffffffffffff1602179055508073ffffffffffffffffffffffffffffffffffffffff167fcea475dd5b51b9b5218c64ef560247c5b741ba24ddb1ad2fca98056f199518cc60405160405180910390a250565b611f6533612f71565b565b6000600560008373ffffffffffffffffffffffffffffffffffffffff1673ffffffffffffffffffffffffffffffffffffffff168152602001908152602001600020549050919050565b611fb86123e2565b1515611fc357600080fd5b600073ffffffffffffffffffffffffffffffffffffffff16600860009054906101000a900473ffffffffffffffffffffffffffffffffffffffff1673ffffffffffffffffffffffffffffffffffffffff167f8be0079c531659141344cd1fd0a4f28419497f9722a3daafe3b4186f6b6457e060405160405180910390a36000600860006101000a81548173ffffffffffffffffffffffffffffffffffffffff021916908373ffffffffffffffffffffffffffffffffffffffff160217905550565b61208c6123e2565b151561209757600080fd5b600073ffffffffffffffffffffffffffffffffffffffff16600b60009054906101000a900473ffffffffffffffffffffffffffffffffffffffff1673ffffffffffffffffffffffffffffffffffffffff1614151561215d576040517f08c379a000000000000000000000000000000000000000000000000000000000815260040180806020018281038252601a8152602001807f4d6967726174696f6e206167656e742063616e2774206265203000000000000081525060200191505060405180910390fd5b80600b60006101000a81548173ffffffffffffffffffffffffffffffffffffffff021916908373ffffffffffffffffffffffffffffffffffffffff1602179055508073ffffffffffffffffffffffffffffffffffffffff167f53002f2ca3e2737f3405e7f734101551690f8426e082167285f3caa8e6c6a18260405160405180910390a250565b6121ee8282612fcb565b5050565b6121fb33611cc2565b151561220657600080fd5b61220f81613072565b50565b600b60009054906101000a900473ffffffffffffffffffffffffffffffffffffffff1681565b61224133611cc2565b151561224c57600080fd5b600160009054906101000a900460ff1615151561226857600080fd5b60018060006101000a81548160ff0219169083151502179055507f62e78cea01bee320cd4e420270b5ea74000d11b0c9f74754ebdbfc544b05a25833604051808273ffffffffffffffffffffffffffffffffffffffff1673ffffffffffffffffffffffffffffffffffffffff16815260200191505060405180910390a1565b6122ef6123e2565b15156122fa57600080fd5b6001600a60008373ffffffffffffffffffffffffffffffffffffffff1673ffffffffffffffffffffffffffffffffffffffff16815260200190815260200160002060006101000a81548160ff0219169083151502179055507f1b6f28dfffb89ba40ba9067329c3c0e8bd926256b970cf7d060cd48b1cd0e44e81604051808273ffffffffffffffffffffffffffffffffffffffff1673ffffffffffffffffffffffffffffffffffffffff16815260200191505060405180910390a150565b6000600860009054906101000a900473ffffffffffffffffffffffffffffffffffffffff16905090565b6000600860009054906101000a900473ffffffffffffffffffffffffffffffffffffffff1673ffffffffffffffffffffffffffffffffffffffff163373ffffffffffffffffffffffffffffffffffffffff1614905090565b600c5481565b606060038054600181600116156101000203166002900480601f0160208091040260200160405190810160405280929190818152602001828054600181600116156101000203166002900480156124d85780601f106124ad576101008083540402835291602001916124d8565b820191906000526020600020905b8154815290600101906020018083116124bb57829003601f168201915b5050505050905090565b6124eb336129d1565b15156124f657600080fd5b6124ff816130cc565b50565b61250b33613126565b565b600033836125196123b8565b73ffffffffffffffffffffffffffffffffffffffff168273ffffffffffffffffffffffffffffffffffffffff161415156126d257600a60008373ffffffffffffffffffffffffffffffffffffffff1673ffffffffffffffffffffffffffffffffffffffff16815260200190815260200160002060009054906101000a900460ff1615151561260f576040517f08c379a000000000000000000000000000000000000000000000000000000000815260040180806020018281038252600e8152602001807f55736572206973206c6f636b656400000000000000000000000000000000000081525060200191505060405180910390fd5b600a60008273ffffffffffffffffffffffffffffffffffffffff1673ffffffffffffffffffffffffffffffffffffffff16815260200190815260200160002060009054906101000a900460ff161515156126d1576040517f08c379a000000000000000000000000000000000000000000000000000000000815260040180806020018281038252600e8152602001807f55736572206973206c6f636b656400000000000000000000000000000000000081525060200191505060405180910390fd5b5b843073ffffffffffffffffffffffffffffffffffffffff168173ffffffffffffffffffffffffffffffffffffffff161415151561275a576040517f08c379a000000000000000000000000000000000000000000000000000000000815260040180806020018281038252602f81526020018061380e602f913960400191505060405180910390fd5b6127648686613180565b935050505092915050565b6000338361277b6123b8565b73ffffffffffffffffffffffffffffffffffffffff168273ffffffffffffffffffffffffffffffffffffffff1614151561293457600a60008373ffffffffffffffffffffffffffffffffffffffff1673ffffffffffffffffffffffffffffffffffffffff16815260200190815260200160002060009054906101000a900460ff16151515612871576040517f08c379a000000000000000000000000000000000000000000000000000000000815260040180806020018281038252600e8152602001807f55736572206973206c6f636b656400000000000000000000000000000000000081525060200191505060405180910390fd5b600a60008273ffffffffffffffffffffffffffffffffffffffff1673ffffffffffffffffffffffffffffffffffffffff16815260200190815260200160002060009054906101000a900460ff16151515612933576040517f08c379a000000000000000000000000000000000000000000000000000000000815260040180806020018281038252600e8152602001807f55736572206973206c6f636b656400000000000000000000000000000000000081525060200191505060405180910390fd5b5b843073ffffffffffffffffffffffffffffffffffffffff168173ffffffffffffffffffffffffffffffffffffffff16141515156129bc576040517f08c379a000000000000000000000000000000000000000000000000000000000815260040180806020018281038252602f81526020018061380e602f913960400191505060405180910390fd5b6129c68686613225565b935050505092915050565b60006129e7826009612edd90919063ffffffff16565b9050919050565b600e6020528060005260406000206000915054906101000a900460ff1681565b601260ff16600a0a62bebc200281565b6000600660008473ffffffffffffffffffffffffffffffffffffffff1673ffffffffffffffffffffffffffffffffffffffff16815260200190815260200160002060008373ffffffffffffffffffffffffffffffffffffffff1673ffffffffffffffffffffffffffffffffffffffff16815260200190815260200160002054905092915050565b612aad6123e2565b1515612ab857600080fd5b612ac18161323c565b50565b6000612ad1338484613338565b6001905092915050565b6000612ae884848461349b565b612b818433612b7c85600660008a73ffffffffffffffffffffffffffffffffffffffff1673ffffffffffffffffffffffffffffffffffffffff16815260200190815260200160002060003373ffffffffffffffffffffffffffffffffffffffff1673ffffffffffffffffffffffffffffffffffffffff1681526020019081526020016000205461366b90919063ffffffff16565b613338565b600190509392505050565b6000612c273384612c2285600660003373ffffffffffffffffffffffffffffffffffffffff1673ffffffffffffffffffffffffffffffffffffffff16815260200190815260200160002060008973ffffffffffffffffffffffffffffffffffffffff1673ffffffffffffffffffffffffffffffffffffffff1681526020019081526020016000205461368d90919063ffffffff16565b613338565b6001905092915050565b600073ffffffffffffffffffffffffffffffffffffffff168273ffffffffffffffffffffffffffffffffffffffff1614151515612c6d57600080fd5b612c828160075461368d90919063ffffffff16565b600781905550612cda81600560008573ffffffffffffffffffffffffffffffffffffffff1673ffffffffffffffffffffffffffffffffffffffff1681526020019081526020016000205461368d90919063ffffffff16565b600560008473ffffffffffffffffffffffffffffffffffffffff1673ffffffffffffffffffffffffffffffffffffffff168152602001908152602001600020819055508173ffffffffffffffffffffffffffffffffffffffff16600073ffffffffffffffffffffffffffffffffffffffff167fddf252ad1be2c89b69c2b068fc378daa952ba7f163c4a11628f55a4df523b3ef836040518082815260200191505060405180910390a35050565b600073ffffffffffffffffffffffffffffffffffffffff168273ffffffffffffffffffffffffffffffffffffffff1614151515612dc357600080fd5b612dd88160075461366b90919063ffffffff16565b600781905550612e3081600560008573ffffffffffffffffffffffffffffffffffffffff1673ffffffffffffffffffffffffffffffffffffffff1681526020019081526020016000205461366b90919063ffffffff16565b600560008473ffffffffffffffffffffffffffffffffffffffff1673ffffffffffffffffffffffffffffffffffffffff16815260200190815260200160002081905550600073ffffffffffffffffffffffffffffffffffffffff168273ffffffffffffffffffffffffffffffffffffffff167fddf252ad1be2c89b69c2b068fc378daa952ba7f163c4a11628f55a4df523b3ef836040518082815260200191505060405180910390a35050565b60008073ffffffffffffffffffffffffffffffffffffffff168273ffffffffffffffffffffffffffffffffffffffff1614151515612f1a57600080fd5b8260000160008373ffffffffffffffffffffffffffffffffffffffff1673ffffffffffffffffffffffffffffffffffffffff16815260200190815260200160002060009054906101000a900460ff16905092915050565b612f858160006136ae90919063ffffffff16565b8073ffffffffffffffffffffffffffffffffffffffff167fcd265ebaf09df2871cc7bd4133404a235ba12eff2041bb89d9c714a2621c7c7e60405160405180910390a250565b612fd58282612d87565b61306e823361306984600660008873ffffffffffffffffffffffffffffffffffffffff1673ffffffffffffffffffffffffffffffffffffffff16815260200190815260200160002060003373ffffffffffffffffffffffffffffffffffffffff1673ffffffffffffffffffffffffffffffffffffffff1681526020019081526020016000205461366b90919063ffffffff16565b613338565b5050565b61308681600061375d90919063ffffffff16565b8073ffffffffffffffffffffffffffffffffffffffff167f6719d08c1888103bea251a4ed56406bd0c3e69723c8a1686e017e7bbe159b6f860405160405180910390a250565b6130e081600961375d90919063ffffffff16565b8073ffffffffffffffffffffffffffffffffffffffff167f6ae172837ea30b801fbfcdd4108aa1d5bf8ff775444fd70256b44e6bf3dfc3f660405160405180910390a250565b61313a8160096136ae90919063ffffffff16565b8073ffffffffffffffffffffffffffffffffffffffff167fe94479a9f7e1952cc78f2d6baab678adc1b772d936c6583def489e524cb6669260405160405180910390a250565b600061321b338461321685600660003373ffffffffffffffffffffffffffffffffffffffff1673ffffffffffffffffffffffffffffffffffffffff16815260200190815260200160002060008973ffffffffffffffffffffffffffffffffffffffff1673ffffffffffffffffffffffffffffffffffffffff1681526020019081526020016000205461366b90919063ffffffff16565b613338565b6001905092915050565b600061323233848461349b565b6001905092915050565b600073ffffffffffffffffffffffffffffffffffffffff168173ffffffffffffffffffffffffffffffffffffffff161415151561327857600080fd5b8073ffffffffffffffffffffffffffffffffffffffff16600860009054906101000a900473ffffffffffffffffffffffffffffffffffffffff1673ffffffffffffffffffffffffffffffffffffffff167f8be0079c531659141344cd1fd0a4f28419497f9722a3daafe3b4186f6b6457e060405160405180910390a380600860006101000a81548173ffffffffffffffffffffffffffffffffffffffff021916908373ffffffffffffffffffffffffffffffffffffffff16021790555050565b600073ffffffffffffffffffffffffffffffffffffffff168273ffffffffffffffffffffffffffffffffffffffff161415151561337457600080fd5b600073ffffffffffffffffffffffffffffffffffffffff168373ffffffffffffffffffffffffffffffffffffffff16141515156133b057600080fd5b80600660008573ffffffffffffffffffffffffffffffffffffffff1673ffffffffffffffffffffffffffffffffffffffff16815260200190815260200160002060008473ffffffffffffffffffffffffffffffffffffffff1673ffffffffffffffffffffffffffffffffffffffff168152602001908152602001600020819055508173ffffffffffffffffffffffffffffffffffffffff168373ffffffffffffffffffffffffffffffffffffffff167f8c5be1e5ebec7d5bd14f71427d1e84f3dd0314c0f7b2291e5b200ac8c7c3b925836040518082815260200191505060405180910390a3505050565b600073ffffffffffffffffffffffffffffffffffffffff168273ffffffffffffffffffffffffffffffffffffffff16141515156134d757600080fd5b61352981600560008673ffffffffffffffffffffffffffffffffffffffff1673ffffffffffffffffffffffffffffffffffffffff1681526020019081526020016000205461366b90919063ffffffff16565b600560008573ffffffffffffffffffffffffffffffffffffffff1673ffffffffffffffffffffffffffffffffffffffff168152602001908152602001600020819055506135be81600560008573ffffffffffffffffffffffffffffffffffffffff1673ffffffffffffffffffffffffffffffffffffffff1681526020019081526020016000205461368d90919063ffffffff16565b600560008473ffffffffffffffffffffffffffffffffffffffff1673ffffffffffffffffffffffffffffffffffffffff168152602001908152602001600020819055508173ffffffffffffffffffffffffffffffffffffffff168373ffffffffffffffffffffffffffffffffffffffff167fddf252ad1be2c89b69c2b068fc378daa952ba7f163c4a11628f55a4df523b3ef836040518082815260200191505060405180910390a3505050565b600082821115151561367c57600080fd5b600082840390508091505092915050565b60008082840190508381101515156136a457600080fd5b8091505092915050565b600073ffffffffffffffffffffffffffffffffffffffff168173ffffffffffffffffffffffffffffffffffffffff16141515156136ea57600080fd5b6136f48282612edd565b15156136ff57600080fd5b60008260000160008373ffffffffffffffffffffffffffffffffffffffff1673ffffffffffffffffffffffffffffffffffffffff16815260200190815260200160002060006101000a81548160ff0219169083151502179055505050565b600073ffffffffffffffffffffffffffffffffffffffff168173ffffffffffffffffffffffffffffffffffffffff161415151561379957600080fd5b6137a38282612edd565b1515156137af57600080fd5b60018260000160008373ffffffffffffffffffffffffffffffffffffffff1673ffffffffffffffffffffffffffffffffffffffff16815260200190815260200160002060006101000a81548160ff021916908315150217905550505056fe596f752061726520747279696e6720746f2073656e6420746f6b656e7320746f20746f6b656e20636f6e7472616374596f7520656e7465726564206d6f726520746f6b656e73207468616e20617661696c61626c65546f6b656e732068617665206265656e20616c7265616479206d696e74656420666f72207468697320796561722ea165627a7a72305820f2f11c0d9c9e5f96767126bcade4a6e85e0c4b868875809c4d5fb5d6f324ee3f0029",
  "source": "pragma solidity ^0.5.2;\n\nimport \"../../../openzeppelin-solidity/contracts/lifecycle/Pausable.sol\";\nimport \"../../../openzeppelin-solidity/contracts/token/ERC20/ERC20Detailed.sol\";\nimport \"../../../openzeppelin-solidity/contracts/token/ERC20/ERC20Burnable.sol\";\nimport \"../../../openzeppelin-solidity/contracts/ownership/Ownable.sol\";\nimport \"../../../openzeppelin-solidity/contracts/token/ERC20/ERC20Mintable.sol\";\nimport \"./MigrationAgent.sol\";\nimport \"./DateTime.sol\";\nimport \"./Locked.sol\";\n\n\n/**\n * @title Token\n * @dev Burnable, Mintabble, Ownable, Pausable, with Locking ability per user. \n */\ncontract Token is Pausable, ERC20Detailed, Ownable, ERC20Burnable, ERC20Mintable, Locked {\n\n\n    using DateTime for uint256;\n    uint8 public constant DECIMALS = 18;\n    uint256 public constant INITIAL_SUPPLY = 250000000 * (10 ** uint256(DECIMALS));   \n    uint256 public constant ONE_YEAR_SUPPLY = 12500000 * (10 ** uint256(DECIMALS));   \n    address public migrationAgent;\n    uint256 public totalMigrated;\n    address public mintAgent;    \n\n    mapping (uint => bool) public mintedYears;\n\n    event Migrate(address indexed from, address indexed to, uint256 value);\n    event MintAgentSet(address indexed mintAgent);\n    event MigrationAgentSet(address indexed migrationAgent);\n    event BlacklistedFundsBurned(address indexed from, uint256 value);\n\n    /// @dev prevent accidental sending of tokens to this token contract\n    /// @param _self - address of this contract\n    modifier notSelf(address _self) {\n        require(_self != address(this), \"You are trying to send tokens to token contract\");\n        _;\n    }\n\n    /**\n     * @dev Constructor that gives msg.sender all of existing tokens.\n     */\n    constructor () public ERC20Detailed(\"Auditchain\", \"AUDT\", DECIMALS)  {      \n        mint(msg.sender, INITIAL_SUPPLY + ONE_YEAR_SUPPLY);     \n        mintedYears[now.getYear()] = true;\n    }\n     \n     /// @dev Function to mint tokens\n     /// @return A boolean that indicates if the operation was successful.\n    function mint() public returns (bool) {\n\n        require(mintAgent != address(0), \"Mint agent address can't be 0\");\n        require (!mintedYears[now.getYear()], \"Tokens have been already minted for this year.\");\n\n        mint(mintAgent, ONE_YEAR_SUPPLY);\n        mintedYears[now.getYear()] = true;\n\n        return true;\n    }\n\n    /// @notice Set contract to which yearly tokens will be minted\n    /// @param _mintAgent - address of the contract to set\n    function setMintContract(address _mintAgent) external onlyOwner() {\n\n        require(_mintAgent != address(0), \"Mint agent address can't be 0\");\n        mintAgent = _mintAgent;\n        emit MintAgentSet(_mintAgent);\n    }\n\n    /// @notice Migrate tokens to the new token contract.\n    /// @param _value The amount of token to be migrated\n    function migrate(uint256 _value) external whenNotPaused() {         \n\n        require(migrationAgent != address(0), \"Enter migration agent address\");        \n        // Validate input value.\n        require(_value > 0, \"Amount of tokens is required\");\n        require(_value <= balanceOf(msg.sender), \"You entered more tokens than available\");\n       \n        burn(balanceOf(msg.sender));\n        totalMigrated += _value;\n        MigrationAgent(migrationAgent).migrateFrom(msg.sender, _value);\n        emit Migrate(msg.sender, migrationAgent, _value);\n    }\n\n    /// @notice Set address of migration target contract and enable migration process\n    /// @param _agent The address of the MigrationAgent contract\n    function setMigrationAgent(address _agent) external onlyOwner() {       \n\n        require(migrationAgent == address(0), \"Migration agent can't be 0\");       \n        migrationAgent = _agent;\n        emit MigrationAgentSet(_agent);\n    }\n\n    /// @notice Overwrite parent implementation to add blacklisted and notSelf modifiers\n    function transfer(address to, uint256 value) public \n                                                    isNotLocked(msg.sender, to) \n                                                    notSelf(to) \n                                                    returns (bool) {\n        return super.transfer(to, value);\n    }\n\n    /// @notice Overwrite parent implementation to add blacklisted and notSelf modifiers\n    function transferFrom(address from, address to, uint256 value) public \n                                                                    isNotLocked(from, to) \n                                                                    notSelf(to) \n                                                                    returns (bool) {\n        return super.transferFrom(from, to, value);\n    }\n\n    /// @notice Overwrite parent implementation to add blacklisted and notSelf modifiers\n    function approve(address spender, uint256 value) public \n                                                        isNotLocked(msg.sender, spender) \n                                                        notSelf(spender) \n                                                        returns (bool) {\n        return super.approve(spender, value);\n    }\n\n    /// @notice Overwrite parent implementation to add blacklisted and notSelf modifiers\n    function increaseAllowance(address spender, uint addedValue) public \n                                                                isNotLocked(msg.sender, spender) \n                                                                notSelf(spender) \n                                                                returns (bool success) {\n        return super.increaseAllowance(spender, addedValue);\n    }\n\n    /// @notice Overwrite parent implementation to add blacklisted and notSelf modifiers\n    function decreaseAllowance(address spender, uint subtractedValue) public \n                                                                        isNotLocked(msg.sender, spender) \n                                                                        notSelf(spender) \n                                                                        returns (bool success) {\n        return super.decreaseAllowance(spender, subtractedValue);\n    }\n    \n    \n}",
  "sourcePath": "/home/bogdan/Ethereum/Projects/TGE/Token/contracts/Token.sol",
  "compiler": {
    "name": "solc",
    "version": "0.5.2+commit.1df8f40c.Emscripten.clang"
  },
  "schemaVersion": "3.0.2",
  "updatedAt": "2019-02-20T22:37:56.698Z",
  "devdoc": {
    "details": "Burnable, Mintabble, Ownable, Pausable, with Locking ability per user. ",
    "methods": {
      "addLock(address)": {
        "details": "add user to lock",
        "params": {
          "_user": "to lock"
        }
      },
      "allowance(address,address)": {
        "details": "Function to check the amount of tokens that an owner allowed to a spender.",
        "params": {
          "owner": "address The address which owns the funds.",
          "spender": "address The address which will spend the funds."
        },
        "return": "A uint256 specifying the amount of tokens still available for the spender."
      },
      "balanceOf(address)": {
        "details": "Gets the balance of the specified address.",
        "params": {
          "owner": "The address to query the balance of."
        },
        "return": "An uint256 representing the amount owned by the passed address."
      },
      "burn(uint256)": {
        "details": "Burns a specific amount of tokens.",
        "params": {
          "value": "The amount of token to be burned."
        }
      },
      "burnFrom(address,uint256)": {
        "details": "Burns a specific amount of tokens from the target address and decrements allowance",
        "params": {
          "from": "address The account whose tokens will be burned.",
          "value": "uint256 The amount of token to be burned."
        }
      },
      "constructor": {
        "details": "Constructor that gives msg.sender all of existing tokens."
      },
      "decimals()": {
        "return": "the number of decimals of the token."
      },
      "isLocked(address)": {
        "details": "check if user has been locked",
        "params": {
          "_user": "- usr to check"
        },
        "return": "true or false"
      },
      "isOwner()": {
        "return": "true if `msg.sender` is the owner of the contract."
      },
      "migrate(uint256)": {
        "params": {
          "_value": "The amount of token to be migrated"
        }
      },
      "mint()": {
        "details": "Function to mint tokens",
        "return": "A boolean that indicates if the operation was successful."
      },
      "mint(address,uint256)": {
        "details": "Function to mint tokens",
        "params": {
          "to": "The address that will receive the minted tokens.",
          "value": "The amount of tokens to mint."
        },
        "return": "A boolean that indicates if the operation was successful."
      },
      "name()": {
        "return": "the name of the token."
      },
      "owner()": {
        "return": "the address of the owner."
      },
      "pause()": {
        "details": "called by the owner to pause, triggers stopped state"
      },
      "paused()": {
        "return": "true if the contract is paused, false otherwise."
      },
      "removeLock(address)": {
        "details": "unlock user",
        "params": {
          "_user": "- user to unlock"
        }
      },
      "renounceOwnership()": {
        "details": "Allows the current owner to relinquish control of the contract."
      },
      "setMigrationAgent(address)": {
        "params": {
          "_agent": "The address of the MigrationAgent contract"
        }
      },
      "setMintContract(address)": {
        "params": {
          "_mintAgent": "- address of the contract to set"
        }
      },
      "symbol()": {
        "return": "the symbol of the token."
      },
      "totalSupply()": {
        "details": "Total number of tokens in existence"
      },
      "transferOwnership(address)": {
        "details": "Allows the current owner to transfer control of the contract to a newOwner.",
        "params": {
          "newOwner": "The address to transfer ownership to."
        }
      },
      "unpause()": {
        "details": "called by the owner to unpause, returns to normal state"
      }
    },
    "title": "Token"
  },
  "userdoc": {
    "methods": {
      "approve(address,uint256)": {
        "notice": "Overwrite parent implementation to add blacklisted and notSelf modifiers"
      },
      "decreaseAllowance(address,uint256)": {
        "notice": "Overwrite parent implementation to add blacklisted and notSelf modifiers"
      },
      "increaseAllowance(address,uint256)": {
        "notice": "Overwrite parent implementation to add blacklisted and notSelf modifiers"
      },
      "migrate(uint256)": {
        "notice": "Migrate tokens to the new token contract."
      },
      "renounceOwnership()": {
        "notice": "Renouncing to ownership will leave the contract without an owner. It will not be possible to call the functions with the `onlyOwner` modifier anymore."
      },
      "setMigrationAgent(address)": {
        "notice": "Set address of migration target contract and enable migration process"
      },
      "setMintContract(address)": {
        "notice": "Set contract to which yearly tokens will be minted"
      },
      "transfer(address,uint256)": {
        "notice": "Overwrite parent implementation to add blacklisted and notSelf modifiers"
      },
      "transferFrom(address,address,uint256)": {
        "notice": "Overwrite parent implementation to add blacklisted and notSelf modifiers"
      }
    }
  }
}